{
  "abi": [
    {
      "inputs": [
        {
          "internalType": "contract IERC721",
          "name": "_nftCollection",
          "type": "address"
        },
        {
          "internalType": "contract IERC20",
          "name": "_rewardsToken",
          "type": "address"
        }
      ],
      "stateMutability": "nonpayable",
      "type": "constructor"
    },
    {
      "anonymous": false,
      "inputs": [
        {
          "indexed": true,
          "internalType": "address",
          "name": "previousOwner",
          "type": "address"
        },
        {
          "indexed": true,
          "internalType": "address",
          "name": "newOwner",
          "type": "address"
        }
      ],
      "name": "OwnershipTransferred",
      "type": "event"
    },
    {
      "anonymous": false,
      "inputs": [
        {
          "indexed": false,
          "internalType": "address",
          "name": "account",
          "type": "address"
        }
      ],
      "name": "Paused",
      "type": "event"
    },
    {
      "anonymous": false,
      "inputs": [
        {
          "indexed": false,
          "internalType": "address",
          "name": "account",
          "type": "address"
        }
      ],
      "name": "Unpaused",
      "type": "event"
    },
    {
      "inputs": [],
      "name": "claimRewards",
      "outputs": [],
      "stateMutability": "nonpayable",
      "type": "function"
    },
    {
      "inputs": [],
      "name": "nftCollection",
      "outputs": [
        {
          "internalType": "contract IERC721",
          "name": "",
          "type": "address"
        }
      ],
      "stateMutability": "view",
      "type": "function"
    },
    {
      "inputs": [],
      "name": "owner",
      "outputs": [
        {
          "internalType": "address",
          "name": "",
          "type": "address"
        }
      ],
      "stateMutability": "view",
      "type": "function"
    },
    {
      "inputs": [],
      "name": "pause",
      "outputs": [],
      "stateMutability": "nonpayable",
      "type": "function"
    },
    {
      "inputs": [],
      "name": "paused",
      "outputs": [
        {
          "internalType": "bool",
          "name": "",
          "type": "bool"
        }
      ],
      "stateMutability": "view",
      "type": "function"
    },
    {
      "inputs": [],
      "name": "renounceOwnership",
      "outputs": [],
      "stateMutability": "nonpayable",
      "type": "function"
    },
    {
      "inputs": [],
      "name": "rewardsToken",
      "outputs": [
        {
          "internalType": "contract IERC20",
          "name": "",
          "type": "address"
        }
      ],
      "stateMutability": "view",
      "type": "function"
    },
    {
      "inputs": [
        {
          "internalType": "uint256",
          "name": "_newValue",
          "type": "uint256"
        }
      ],
      "name": "setRewardsPerHour",
      "outputs": [],
      "stateMutability": "nonpayable",
      "type": "function"
    },
    {
      "inputs": [
        {
          "internalType": "uint256[]",
          "name": "_tokenIds",
          "type": "uint256[]"
        }
      ],
      "name": "stake",
      "outputs": [],
      "stateMutability": "nonpayable",
      "type": "function"
    },
    {
      "inputs": [
        {
          "internalType": "uint256",
          "name": "",
          "type": "uint256"
        }
      ],
      "name": "stakerAddress",
      "outputs": [
        {
          "internalType": "address",
          "name": "",
          "type": "address"
        }
      ],
      "stateMutability": "view",
      "type": "function"
    },
    {
      "inputs": [
        {
          "internalType": "address",
          "name": "",
          "type": "address"
        }
      ],
      "name": "stakerToArrayIndex",
      "outputs": [
        {
          "internalType": "uint256",
          "name": "",
          "type": "uint256"
        }
      ],
      "stateMutability": "view",
      "type": "function"
    },
    {
      "inputs": [
        {
          "internalType": "address",
          "name": "",
          "type": "address"
        }
      ],
      "name": "stakers",
      "outputs": [
        {
          "internalType": "uint256",
          "name": "timeOfLastUpdate",
          "type": "uint256"
        },
        {
          "internalType": "uint256",
          "name": "unclaimedRewards",
          "type": "uint256"
        }
      ],
      "stateMutability": "view",
      "type": "function"
    },
    {
      "inputs": [
        {
          "internalType": "uint256",
          "name": "",
          "type": "uint256"
        }
      ],
      "name": "stakersArray",
      "outputs": [
        {
          "internalType": "address",
          "name": "",
          "type": "address"
        }
      ],
      "stateMutability": "view",
      "type": "function"
    },
    {
      "inputs": [
        {
          "internalType": "uint256",
          "name": "",
          "type": "uint256"
        }
      ],
      "name": "tokenIdToArrayIndex",
      "outputs": [
        {
          "internalType": "uint256",
          "name": "",
          "type": "uint256"
        }
      ],
      "stateMutability": "view",
      "type": "function"
    },
    {
      "inputs": [
        {
          "internalType": "address",
          "name": "newOwner",
          "type": "address"
        }
      ],
      "name": "transferOwnership",
      "outputs": [],
      "stateMutability": "nonpayable",
      "type": "function"
    },
    {
      "inputs": [],
      "name": "unpause",
      "outputs": [],
      "stateMutability": "nonpayable",
      "type": "function"
    },
    {
      "inputs": [
        {
          "internalType": "address",
          "name": "_user",
          "type": "address"
        }
      ],
      "name": "userStakeInfo",
      "outputs": [
        {
          "internalType": "uint256[]",
          "name": "_stakedTokenIds",
          "type": "uint256[]"
        },
        {
          "internalType": "uint256",
          "name": "_availableRewards",
          "type": "uint256"
        }
      ],
      "stateMutability": "view",
      "type": "function"
    },
    {
      "inputs": [
        {
          "internalType": "uint256[]",
          "name": "_tokenIds",
          "type": "uint256[]"
        }
      ],
      "name": "withdraw",
      "outputs": [],
      "stateMutability": "nonpayable",
      "type": "function"
    }
  ],
  "devdoc": {
    "author": "andreitoma8",
    "details": "The contract is built to be compatible with most ERC721 and ERC20 tokens.",
    "kind": "dev",
    "methods": {
      "constructor": {
        "params": {
          "_nftCollection": "- The address of the ERC721 Collection.",
          "_rewardsToken": "- The address of the ERC20 Reward Token."
        }
      },
      "owner()": {
        "details": "Returns the address of the current owner."
      },
      "pause()": {
        "details": "Pause staking."
      },
      "paused()": {
        "details": "Returns true if the contract is paused, and false otherwise."
      },
      "renounceOwnership()": {
        "details": "Leaves the contract without owner. It will not be possible to call `onlyOwner` functions. Can only be called by the current owner. NOTE: Renouncing ownership will leave the contract without an owner, thereby disabling any functionality that is only available to the owner."
      },
      "setRewardsPerHour(uint256)": {
        "details": "Because the rewards are calculated passively, the owner has to first update the rewards to all the stakers, witch could result in very heavy load and expensive transactions or even reverting due to reaching the gas limit per block.",
        "params": {
          "_newValue": "- The new value of the rewardsPerHour variable."
        }
      },
      "stake(uint256[])": {
        "details": "Each Token Id must be approved for transfer by the user before calling this function.",
        "params": {
          "_tokenIds": "- The array of Token Ids to stake."
        }
      },
      "transferOwnership(address)": {
        "details": "Transfers ownership of the contract to a new account (`newOwner`). Can only be called by the current owner."
      },
      "unpause()": {
        "details": "Resume staking."
      },
      "userStakeInfo(address)": {
        "params": {
          "_user": "- The address of the user."
        },
        "returns": {
          "_availableRewards": "- The available rewards for the user.",
          "_stakedTokenIds": "- The array of Token Ids staked by the user."
        }
      },
      "withdraw(uint256[])": {
        "params": {
          "_tokenIds": "- The array of Token Ids to withdraw."
        }
      }
    },
    "stateVariables": {
      "nftCollection": {
        "details": "The ERC721 Collection that will be staked."
      },
      "rewardsPerHour": {
        "details": "The amount of ERC20 Reward Tokens accrued per hour."
      },
      "rewardsToken": {
        "details": "The ERC20 Reward Token that will be distributed to stakers."
      },
      "stakerAddress": {
        "details": "Mapping of Token Id to staker address."
      },
      "stakerToArrayIndex": {
        "details": "Mapping of stakers addresses to their index in the stakersArray."
      },
      "stakers": {
        "details": "Mapping of stakers to their staking info."
      },
      "stakersArray": {
        "details": "Array of stakers addresses."
      }
    },
    "title": "ERC721 Staking Smart Contract",
    "version": 1
  },
  "evm": {
    "assembly": "    /* \"NftStaking.sol\":1366:9681  contract ERC721Staking is Ownable, ReentrancyGuard, Pausable {... */\n  mstore(0x40, 0xc0)\n    /* \"NftStaking.sol\":2399:2418  1000000000000000000 */\n  0x0de0b6b3a7640000\n    /* \"NftStaking.sol\":2366:2418  uint256 private rewardsPerHour = 1000000000000000000 */\n  0x03\n  sstore\n    /* \"NftStaking.sol\":3346:3492  constructor(IERC721 _nftCollection, IERC20 _rewardsToken) {... */\n  callvalue\n  dup1\n  iszero\n  tag_1\n  jumpi\n  0x00\n  dup1\n  revert\ntag_1:\n  pop\n  mload(0x40)\n  sub(codesize, bytecodeSize)\n  dup1\n  bytecodeSize\n  dup4\n  codecopy\n  dup2\n  add\n  0x40\n  dup2\n  swap1\n  mstore\n  tag_2\n  swap2\n  tag_3\n  jump\t// in\ntag_2:\n    /* \"@openzeppelin/contracts/access/Ownable.sol\":936:968   */\n  tag_9\n    /* \"@openzeppelin/contracts/utils/Context.sol\":719:729   */\n  caller\n    /* \"@openzeppelin/contracts/access/Ownable.sol\":936:954   */\n  tag_12\n    /* \"@openzeppelin/contracts/access/Ownable.sol\":936:968   */\n  jump\t// in\ntag_9:\n    /* \"@openzeppelin/contracts/security/ReentrancyGuard.sol\":1716:1717   */\n  0x01\n    /* \"@openzeppelin/contracts/security/ReentrancyGuard.sol\":1821:1843   */\n  dup1\n  sstore\n    /* \"@openzeppelin/contracts/security/Pausable.sol\":996:1003   */\n  0x02\n    /* \"@openzeppelin/contracts/security/Pausable.sol\":996:1011   */\n  dup1\n  sload\n  not(0xff)\n  and\n  swap1\n  sstore\n  sub(shl(0xa0, 0x01), 0x01)\n    /* \"NftStaking.sol\":3415:3445  nftCollection = _nftCollection */\n  swap2\n  dup3\n  and\n  0xa0\n  mstore\n    /* \"NftStaking.sol\":3456:3484  rewardsToken = _rewardsToken */\n  and\n  0x80\n  mstore\n    /* \"NftStaking.sol\":1366:9681  contract ERC721Staking is Ownable, ReentrancyGuard, Pausable {... */\n  jump(tag_20)\n    /* \"@openzeppelin/contracts/access/Ownable.sol\":2426:2613   */\ntag_12:\n    /* \"@openzeppelin/contracts/access/Ownable.sol\":2499:2515   */\n  0x00\n    /* \"@openzeppelin/contracts/access/Ownable.sol\":2518:2524   */\n  dup1\n  sload\n  sub(shl(0xa0, 0x01), 0x01)\n    /* \"@openzeppelin/contracts/access/Ownable.sol\":2534:2551   */\n  dup4\n  dup2\n  and\n  not(sub(shl(0xa0, 0x01), 0x01))\n  dup4\n  and\n  dup2\n  or\n  dup5\n  sstore\n    /* \"@openzeppelin/contracts/access/Ownable.sol\":2566:2606   */\n  mload(0x40)\n    /* \"@openzeppelin/contracts/access/Ownable.sol\":2518:2524   */\n  swap2\n  swap1\n  swap3\n  and\n  swap3\n  dup4\n  swap2\n    /* \"@openzeppelin/contracts/access/Ownable.sol\":2566:2606   */\n  0x8be0079c531659141344cd1fd0a4f28419497f9722a3daafe3b4186f6b6457e0\n  swap2\n    /* \"@openzeppelin/contracts/access/Ownable.sol\":2499:2515   */\n  swap1\n    /* \"@openzeppelin/contracts/access/Ownable.sol\":2566:2606   */\n  log3\n    /* \"@openzeppelin/contracts/access/Ownable.sol\":2489:2613   */\n  pop\n    /* \"@openzeppelin/contracts/access/Ownable.sol\":2426:2613   */\n  pop\n  jump\t// out\n    /* \"#utility.yul\":14:154   */\ntag_19:\n  sub(shl(0xa0, 0x01), 0x01)\n    /* \"#utility.yul\":98:129   */\n  dup2\n  and\n    /* \"#utility.yul\":88:130   */\n  dup2\n  eq\n    /* \"#utility.yul\":78:148   */\n  tag_22\n  jumpi\n    /* \"#utility.yul\":144:145   */\n  0x00\n    /* \"#utility.yul\":141:142   */\n  dup1\n    /* \"#utility.yul\":134:146   */\n  revert\n    /* \"#utility.yul\":78:148   */\ntag_22:\n    /* \"#utility.yul\":14:154   */\n  pop\n  jump\t// out\n    /* \"#utility.yul\":159:592   */\ntag_3:\n    /* \"#utility.yul\":268:274   */\n  0x00\n    /* \"#utility.yul\":276:282   */\n  dup1\n    /* \"#utility.yul\":329:331   */\n  0x40\n    /* \"#utility.yul\":317:326   */\n  dup4\n    /* \"#utility.yul\":308:315   */\n  dup6\n    /* \"#utility.yul\":304:327   */\n  sub\n    /* \"#utility.yul\":300:332   */\n  slt\n    /* \"#utility.yul\":297:349   */\n  iszero\n  tag_24\n  jumpi\n    /* \"#utility.yul\":345:346   */\n  0x00\n    /* \"#utility.yul\":342:343   */\n  dup1\n    /* \"#utility.yul\":335:347   */\n  revert\n    /* \"#utility.yul\":297:349   */\ntag_24:\n    /* \"#utility.yul\":377:386   */\n  dup3\n    /* \"#utility.yul\":371:387   */\n  mload\n    /* \"#utility.yul\":396:436   */\n  tag_25\n    /* \"#utility.yul\":430:435   */\n  dup2\n    /* \"#utility.yul\":396:436   */\n  tag_19\n  jump\t// in\ntag_25:\n    /* \"#utility.yul\":505:507   */\n  0x20\n    /* \"#utility.yul\":490:508   */\n  dup5\n  add\n    /* \"#utility.yul\":484:509   */\n  mload\n    /* \"#utility.yul\":455:460   */\n  swap1\n  swap3\n  pop\n    /* \"#utility.yul\":518:560   */\n  tag_26\n    /* \"#utility.yul\":484:509   */\n  dup2\n    /* \"#utility.yul\":518:560   */\n  tag_19\n  jump\t// in\ntag_26:\n    /* \"#utility.yul\":579:586   */\n  dup1\n    /* \"#utility.yul\":569:586   */\n  swap2\n  pop\n  pop\n    /* \"#utility.yul\":159:592   */\n  swap3\n  pop\n  swap3\n  swap1\n  pop\n  jump\t// out\ntag_20:\n    /* \"NftStaking.sol\":1366:9681  contract ERC721Staking is Ownable, ReentrancyGuard, Pausable {... */\n  mload(0x80)\n  mload(0xa0)\n  codecopy(0x00, dataOffset(sub_0), dataSize(sub_0))\n  0x00\n  assignImmutable(\"0x9cce9eb03c9f29c6481fca9f0f942b15bef0bbbc47fda0ddb44df157019835d9\")\n  0x00\n  assignImmutable(\"0xd4d1a59767271eefdc7830a772b9732a11d503531d972ab8c981a6b1c0e666e5\")\n  return(0x00, dataSize(sub_0))\nstop\n\nsub_0: assembly {\n        /* \"NftStaking.sol\":1366:9681  contract ERC721Staking is Ownable, ReentrancyGuard, Pausable {... */\n      mstore(0x40, 0x80)\n      callvalue\n      dup1\n      iszero\n      tag_1\n      jumpi\n      0x00\n      dup1\n      revert\n    tag_1:\n      pop\n      jumpi(tag_2, lt(calldatasize, 0x04))\n      shr(0xe0, calldataload(0x00))\n      dup1\n      0x8456cb59\n      gt\n      tag_21\n      jumpi\n      dup1\n      0x983d95ce\n      gt\n      tag_22\n      jumpi\n      dup1\n      0xc1030da4\n      gt\n      tag_23\n      jumpi\n      dup1\n      0xc1030da4\n      eq\n      tag_18\n      jumpi\n      dup1\n      0xd1af0c7d\n      eq\n      tag_19\n      jumpi\n      dup1\n      0xf2fde38b\n      eq\n      tag_20\n      jumpi\n      0x00\n      dup1\n      revert\n    tag_23:\n      dup1\n      0x983d95ce\n      eq\n      tag_16\n      jumpi\n      dup1\n      0xb5a5e509\n      eq\n      tag_17\n      jumpi\n      0x00\n      dup1\n      revert\n    tag_22:\n      dup1\n      0x8456cb59\n      eq\n      tag_12\n      jumpi\n      dup1\n      0x8da5cb5b\n      eq\n      tag_13\n      jumpi\n      dup1\n      0x9168ae72\n      eq\n      tag_14\n      jumpi\n      dup1\n      0x94067045\n      eq\n      tag_15\n      jumpi\n      0x00\n      dup1\n      revert\n    tag_21:\n      dup1\n      0x50df1e02\n      gt\n      tag_24\n      jumpi\n      dup1\n      0x5c975abb\n      gt\n      tag_25\n      jumpi\n      dup1\n      0x5c975abb\n      eq\n      tag_9\n      jumpi\n      dup1\n      0x6588103b\n      eq\n      tag_10\n      jumpi\n      dup1\n      0x715018a6\n      eq\n      tag_11\n      jumpi\n      0x00\n      dup1\n      revert\n    tag_25:\n      dup1\n      0x50df1e02\n      eq\n      tag_7\n      jumpi\n      dup1\n      0x5357e916\n      eq\n      tag_8\n      jumpi\n      0x00\n      dup1\n      revert\n    tag_24:\n      dup1\n      0x0fbf0a93\n      eq\n      tag_3\n      jumpi\n      dup1\n      0x372500ab\n      eq\n      tag_4\n      jumpi\n      dup1\n      0x3f4ba83a\n      eq\n      tag_5\n      jumpi\n      dup1\n      0x4ead4327\n      eq\n      tag_6\n      jumpi\n    tag_2:\n      0x00\n      dup1\n      revert\n        /* \"NftStaking.sol\":3731:4636  function stake(uint256[] calldata _tokenIds) external whenNotPaused {... */\n    tag_3:\n      tag_26\n      tag_27\n      calldatasize\n      0x04\n      tag_28\n      jump\t// in\n    tag_27:\n      tag_29\n      jump\t// in\n    tag_26:\n      stop\n        /* \"NftStaking.sol\":6263:6657  function claimRewards() external {... */\n    tag_4:\n      tag_26\n      tag_31\n      jump\t// in\n        /* \"NftStaking.sol\":9611:9678  function unpause() external onlyOwner {... */\n    tag_5:\n      tag_26\n      tag_33\n      jump\t// in\n        /* \"NftStaking.sol\":7731:7965  function userStakeInfo(address _user)... */\n    tag_6:\n      tag_34\n      tag_35\n      calldatasize\n      0x04\n      tag_36\n      jump\t// in\n    tag_35:\n      tag_37\n      jump\t// in\n    tag_34:\n      mload(0x40)\n      tag_38\n      swap3\n      swap2\n      swap1\n      tag_39\n      jump\t// in\n    tag_38:\n      mload(0x40)\n      dup1\n      swap2\n      sub\n      swap1\n      return\n        /* \"NftStaking.sol\":3038:3092  mapping(uint256 => uint256) public tokenIdToArrayIndex */\n    tag_7:\n      tag_40\n      tag_41\n      calldatasize\n      0x04\n      tag_42\n      jump\t// in\n    tag_41:\n      mstore(0x20, 0x08)\n      0x00\n      swap1\n      dup2\n      mstore\n      0x40\n      swap1\n      keccak256\n      sload\n      dup2\n      jump\n    tag_40:\n      mload(0x40)\n        /* \"#utility.yul\":2086:2111   */\n      swap1\n      dup2\n      mstore\n        /* \"#utility.yul\":2074:2076   */\n      0x20\n        /* \"#utility.yul\":2059:2077   */\n      add\n        /* \"NftStaking.sol\":3038:3092  mapping(uint256 => uint256) public tokenIdToArrayIndex */\n      tag_38\n        /* \"#utility.yul\":1940:2117   */\n      jump\n        /* \"NftStaking.sol\":2736:2765  address[] public stakersArray */\n    tag_8:\n      tag_46\n      tag_47\n      calldatasize\n      0x04\n      tag_42\n      jump\t// in\n    tag_47:\n      tag_48\n      jump\t// in\n    tag_46:\n      mload(0x40)\n      sub(shl(0xa0, 0x01), 0x01)\n        /* \"#utility.yul\":2286:2341   */\n      swap1\n      swap2\n      and\n        /* \"#utility.yul\":2268:2342   */\n      dup2\n      mstore\n        /* \"#utility.yul\":2256:2258   */\n      0x20\n        /* \"#utility.yul\":2241:2259   */\n      add\n        /* \"NftStaking.sol\":2736:2765  address[] public stakersArray */\n      tag_38\n        /* \"#utility.yul\":2122:2348   */\n      jump\n        /* \"@openzeppelin/contracts/security/Pausable.sol\":1615:1699   */\n    tag_9:\n        /* \"@openzeppelin/contracts/security/Pausable.sol\":1685:1692   */\n      and(0xff, sload(0x02))\n        /* \"@openzeppelin/contracts/security/Pausable.sol\":1615:1699   */\n      mload(0x40)\n        /* \"#utility.yul\":2518:2532   */\n      swap1\n      iszero\n        /* \"#utility.yul\":2511:2533   */\n      iszero\n        /* \"#utility.yul\":2493:2534   */\n      dup2\n      mstore\n        /* \"#utility.yul\":2481:2483   */\n      0x20\n        /* \"#utility.yul\":2466:2484   */\n      add\n        /* \"@openzeppelin/contracts/security/Pausable.sol\":1615:1699   */\n      tag_38\n        /* \"#utility.yul\":2353:2540   */\n      jump\n        /* \"NftStaking.sol\":1679:1717  IERC721 public immutable nftCollection */\n    tag_10:\n      tag_46\n      immutable(\"0x9cce9eb03c9f29c6481fca9f0f942b15bef0bbbc47fda0ddb44df157019835d9\")\n      dup2\n      jump\n        /* \"@openzeppelin/contracts/access/Ownable.sol\":1824:1925   */\n    tag_11:\n      tag_26\n      tag_60\n      jump\t// in\n        /* \"NftStaking.sol\":9493:9556  function pause() external onlyOwner {... */\n    tag_12:\n      tag_26\n      tag_62\n      jump\t// in\n        /* \"@openzeppelin/contracts/access/Ownable.sol\":1201:1286   */\n    tag_13:\n        /* \"@openzeppelin/contracts/access/Ownable.sol\":1247:1254   */\n      0x00\n        /* \"@openzeppelin/contracts/access/Ownable.sol\":1273:1279   */\n      sload\n      sub(shl(0xa0, 0x01), 0x01)\n      and\n        /* \"@openzeppelin/contracts/access/Ownable.sol\":1201:1286   */\n      jump(tag_46)\n        /* \"NftStaking.sol\":2500:2541  mapping(address => Staker) public stakers */\n    tag_14:\n      tag_66\n      tag_67\n      calldatasize\n      0x04\n      tag_36\n      jump\t// in\n    tag_67:\n      mstore(0x20, 0x04)\n      0x00\n      swap1\n      dup2\n      mstore\n      0x40\n      swap1\n      keccak256\n      0x01\n      dup2\n      add\n      sload\n      0x02\n      swap1\n      swap2\n      add\n      sload\n      dup3\n      jump\n    tag_66:\n      0x40\n      dup1\n      mload\n        /* \"#utility.yul\":2966:2991   */\n      swap3\n      dup4\n      mstore\n        /* \"#utility.yul\":3022:3024   */\n      0x20\n        /* \"#utility.yul\":3007:3025   */\n      dup4\n      add\n        /* \"#utility.yul\":3000:3034   */\n      swap2\n      swap1\n      swap2\n      mstore\n        /* \"#utility.yul\":2939:2957   */\n      add\n        /* \"NftStaking.sol\":2500:2541  mapping(address => Staker) public stakers */\n      tag_38\n        /* \"#utility.yul\":2792:3040   */\n      jump\n        /* \"NftStaking.sol\":2620:2668  mapping(uint256 => address) public stakerAddress */\n    tag_15:\n      tag_46\n      tag_72\n      calldatasize\n      0x04\n      tag_42\n      jump\t// in\n    tag_72:\n      mstore(0x20, 0x05)\n      0x00\n      swap1\n      dup2\n      mstore\n      0x40\n      swap1\n      keccak256\n      sload\n      sub(shl(0xa0, 0x01), 0x01)\n      and\n      dup2\n      jump\n        /* \"NftStaking.sol\":4782:6165  function withdraw(uint256[] calldata _tokenIds) external nonReentrant {... */\n    tag_16:\n      tag_26\n      tag_76\n      calldatasize\n      0x04\n      tag_28\n      jump\t// in\n    tag_76:\n      tag_77\n      jump\t// in\n        /* \"NftStaking.sol\":7106:7402  function setRewardsPerHour(uint256 _newValue) public onlyOwner {... */\n    tag_17:\n      tag_26\n      tag_79\n      calldatasize\n      0x04\n      tag_42\n      jump\t// in\n    tag_79:\n      tag_80\n      jump\t// in\n        /* \"NftStaking.sol\":2870:2923  mapping(address => uint256) public stakerToArrayIndex */\n    tag_18:\n      tag_40\n      tag_82\n      calldatasize\n      0x04\n      tag_36\n      jump\t// in\n    tag_82:\n      mstore(0x20, 0x07)\n      0x00\n      swap1\n      dup2\n      mstore\n      0x40\n      swap1\n      keccak256\n      sload\n      dup2\n      jump\n        /* \"NftStaking.sol\":1560:1596  IERC20 public immutable rewardsToken */\n    tag_19:\n      tag_46\n      immutable(\"0xd4d1a59767271eefdc7830a772b9732a11d503531d972ab8c981a6b1c0e666e5\")\n      dup2\n      jump\n        /* \"@openzeppelin/contracts/access/Ownable.sol\":2074:2272   */\n    tag_20:\n      tag_26\n      tag_90\n      calldatasize\n      0x04\n      tag_36\n      jump\t// in\n    tag_90:\n      tag_91\n      jump\t// in\n        /* \"NftStaking.sol\":3731:4636  function stake(uint256[] calldata _tokenIds) external whenNotPaused {... */\n    tag_29:\n        /* \"@openzeppelin/contracts/security/Pausable.sol\":1239:1258   */\n      tag_93\n        /* \"@openzeppelin/contracts/security/Pausable.sol\":1239:1256   */\n      tag_94\n        /* \"@openzeppelin/contracts/security/Pausable.sol\":1239:1258   */\n      jump\t// in\n    tag_93:\n        /* \"NftStaking.sol\":3842:3852  msg.sender */\n      caller\n        /* \"NftStaking.sol\":3810:3831  Staker storage staker */\n      0x00\n        /* \"NftStaking.sol\":3834:3853  stakers[msg.sender] */\n      swap1\n      dup2\n      mstore\n        /* \"NftStaking.sol\":3834:3841  stakers */\n      0x04\n        /* \"NftStaking.sol\":3834:3853  stakers[msg.sender] */\n      0x20\n      mstore\n      0x40\n      swap1\n      keccak256\n        /* \"NftStaking.sol\":3870:3898  staker.stakedTokenIds.length */\n      dup1\n      sload\n        /* \"NftStaking.sol\":3870:3902  staker.stakedTokenIds.length > 0 */\n      iszero\n        /* \"NftStaking.sol\":3866:4145  if (staker.stakedTokenIds.length > 0) {... */\n      tag_96\n      jumpi\n        /* \"NftStaking.sol\":3919:3944  updateRewards(msg.sender) */\n      tag_97\n        /* \"NftStaking.sol\":3933:3943  msg.sender */\n      caller\n        /* \"NftStaking.sol\":3919:3932  updateRewards */\n      tag_98\n        /* \"NftStaking.sol\":3919:3944  updateRewards(msg.sender) */\n      jump\t// in\n    tag_97:\n        /* \"NftStaking.sol\":3866:4145  if (staker.stakedTokenIds.length > 0) {... */\n      jump(tag_99)\n    tag_96:\n        /* \"NftStaking.sol\":3977:3989  stakersArray */\n      0x06\n        /* \"NftStaking.sol\":3977:4006  stakersArray.push(msg.sender) */\n      dup1\n      sload\n      0x01\n      dup2\n      dup2\n      add\n      dup4\n      sstore\n      0x00\n      dup4\n      swap1\n      mstore\n      0xf652222313e28459528d920b65115c16c04f3efc82aaedc97be59f3f377c0d3f\n      swap1\n      swap2\n      add\n      dup1\n      sload\n      not(sub(shl(0xa0, 0x01), 0x01))\n      and\n        /* \"NftStaking.sol\":3995:4005  msg.sender */\n      caller\n        /* \"NftStaking.sol\":3977:4006  stakersArray.push(msg.sender) */\n      or\n      swap1\n      sstore\n        /* \"NftStaking.sol\":4054:4073  stakersArray.length */\n      swap1\n      sload\n        /* \"NftStaking.sol\":4054:4077  stakersArray.length - 1 */\n      tag_101\n      swap2\n        /* \"NftStaking.sol\":3977:4006  stakersArray.push(msg.sender) */\n      swap1\n        /* \"NftStaking.sol\":4054:4077  stakersArray.length - 1 */\n      tag_102\n      jump\t// in\n    tag_101:\n        /* \"NftStaking.sol\":4040:4050  msg.sender */\n      caller\n        /* \"NftStaking.sol\":4021:4051  stakerToArrayIndex[msg.sender] */\n      0x00\n      swap1\n      dup2\n      mstore\n        /* \"NftStaking.sol\":4021:4039  stakerToArrayIndex */\n      0x07\n        /* \"NftStaking.sol\":4021:4051  stakerToArrayIndex[msg.sender] */\n      0x20\n      mstore\n      0x40\n      swap1\n      keccak256\n        /* \"NftStaking.sol\":4021:4077  stakerToArrayIndex[msg.sender] = stakersArray.length - 1 */\n      sstore\n        /* \"NftStaking.sol\":4118:4133  block.timestamp */\n      timestamp\n        /* \"NftStaking.sol\":4092:4115  staker.timeOfLastUpdate */\n      0x01\n      dup3\n      add\n        /* \"NftStaking.sol\":4092:4133  staker.timeOfLastUpdate = block.timestamp */\n      sstore\n        /* \"NftStaking.sol\":3866:4145  if (staker.stakedTokenIds.length > 0) {... */\n    tag_99:\n        /* \"NftStaking.sol\":4171:4180  _tokenIds */\n      dup2\n        /* \"NftStaking.sol\":4157:4168  uint256 len */\n      0x00\n        /* \"NftStaking.sol\":4198:4629  for (uint256 i; i < len; ++i) {... */\n    tag_103:\n        /* \"NftStaking.sol\":4218:4221  len */\n      dup2\n        /* \"NftStaking.sol\":4214:4215  i */\n      dup2\n        /* \"NftStaking.sol\":4214:4221  i < len */\n      lt\n        /* \"NftStaking.sol\":4198:4629  for (uint256 i; i < len; ++i) {... */\n      iszero\n      tag_104\n      jumpi\n        /* \"NftStaking.sol\":4290:4300  msg.sender */\n      caller\n        /* \"NftStaking.sol\":4251:4264  nftCollection */\n      immutable(\"0x9cce9eb03c9f29c6481fca9f0f942b15bef0bbbc47fda0ddb44df157019835d9\")\n      sub(shl(0xa0, 0x01), 0x01)\n        /* \"NftStaking.sol\":4251:4272  nftCollection.ownerOf */\n      and\n      0x6352211e\n        /* \"NftStaking.sol\":4273:4282  _tokenIds */\n      dup8\n      dup8\n        /* \"NftStaking.sol\":4283:4284  i */\n      dup6\n        /* \"NftStaking.sol\":4273:4285  _tokenIds[i] */\n      dup2\n      dup2\n      lt\n      tag_107\n      jumpi\n      tag_107\n      tag_108\n      jump\t// in\n    tag_107:\n      swap1\n      pop\n      0x20\n      mul\n      add\n      calldataload\n        /* \"NftStaking.sol\":4251:4286  nftCollection.ownerOf(_tokenIds[i]) */\n      mload(0x40)\n      dup3\n      0xffffffff\n      and\n      0xe0\n      shl\n      dup2\n      mstore\n      0x04\n      add\n      tag_109\n      swap2\n        /* \"#utility.yul\":2086:2111   */\n      dup2\n      mstore\n        /* \"#utility.yul\":2074:2076   */\n      0x20\n        /* \"#utility.yul\":2059:2077   */\n      add\n      swap1\n        /* \"#utility.yul\":1940:2117   */\n      jump\n        /* \"NftStaking.sol\":4251:4286  nftCollection.ownerOf(_tokenIds[i]) */\n    tag_109:\n      0x20\n      mload(0x40)\n      dup1\n      dup4\n      sub\n      dup2\n      dup7\n      gas\n      staticcall\n      iszero\n      dup1\n      iszero\n      tag_111\n      jumpi\n      returndatasize\n      0x00\n      dup1\n      returndatacopy\n      revert(0x00, returndatasize)\n    tag_111:\n      pop\n      pop\n      pop\n      pop\n      mload(0x40)\n      returndatasize\n      not(0x1f)\n      0x1f\n      dup3\n      add\n      and\n      dup3\n      add\n      dup1\n      0x40\n      mstore\n      pop\n      dup2\n      add\n      swap1\n      tag_112\n      swap2\n      swap1\n      tag_113\n      jump\t// in\n    tag_112:\n      sub(shl(0xa0, 0x01), 0x01)\n        /* \"NftStaking.sol\":4251:4300  nftCollection.ownerOf(_tokenIds[i]) == msg.sender */\n      and\n      eq\n        /* \"NftStaking.sol\":4243:4338  require(nftCollection.ownerOf(_tokenIds[i]) == msg.sender, \"Can't stake tokens you don't own!\") */\n      tag_114\n      jumpi\n      mload(0x40)\n      shl(0xe5, 0x461bcd)\n      dup2\n      mstore\n        /* \"#utility.yul\":4145:4147   */\n      0x20\n        /* \"NftStaking.sol\":4243:4338  require(nftCollection.ownerOf(_tokenIds[i]) == msg.sender, \"Can't stake tokens you don't own!\") */\n      0x04\n      dup3\n      add\n        /* \"#utility.yul\":4127:4148   */\n      mstore\n        /* \"#utility.yul\":4184:4186   */\n      0x21\n        /* \"#utility.yul\":4164:4182   */\n      0x24\n      dup3\n      add\n        /* \"#utility.yul\":4157:4187   */\n      mstore\n        /* \"#utility.yul\":4223:4257   */\n      0x43616e2774207374616b6520746f6b656e7320796f7520646f6e2774206f776e\n        /* \"#utility.yul\":4203:4221   */\n      0x44\n      dup3\n      add\n        /* \"#utility.yul\":4196:4258   */\n      mstore\n      shl(0xf8, 0x21)\n        /* \"#utility.yul\":4274:4292   */\n      0x64\n      dup3\n      add\n        /* \"#utility.yul\":4267:4298   */\n      mstore\n        /* \"#utility.yul\":4315:4334   */\n      0x84\n      add\n        /* \"NftStaking.sol\":4243:4338  require(nftCollection.ownerOf(_tokenIds[i]) == msg.sender, \"Can't stake tokens you don't own!\") */\n    tag_115:\n      mload(0x40)\n      dup1\n      swap2\n      sub\n      swap1\n      revert\n    tag_114:\n        /* \"NftStaking.sol\":4355:4368  nftCollection */\n      immutable(\"0x9cce9eb03c9f29c6481fca9f0f942b15bef0bbbc47fda0ddb44df157019835d9\")\n      sub(shl(0xa0, 0x01), 0x01)\n        /* \"NftStaking.sol\":4355:4381  nftCollection.transferFrom */\n      and\n      0x23b872dd\n        /* \"NftStaking.sol\":4382:4392  msg.sender */\n      caller\n        /* \"NftStaking.sol\":4402:4406  this */\n      address\n        /* \"NftStaking.sol\":4409:4418  _tokenIds */\n      dup9\n      dup9\n        /* \"NftStaking.sol\":4419:4420  i */\n      dup7\n        /* \"NftStaking.sol\":4409:4421  _tokenIds[i] */\n      dup2\n      dup2\n      lt\n      tag_118\n      jumpi\n      tag_118\n      tag_108\n      jump\t// in\n    tag_118:\n        /* \"NftStaking.sol\":4355:4422  nftCollection.transferFrom(msg.sender, address(this), _tokenIds[i]) */\n      mload(0x40)\n      0xffffffff00000000000000000000000000000000000000000000000000000000\n      0xe0\n      dup9\n      swap1\n      shl\n      and\n      dup2\n      mstore\n      sub(shl(0xa0, 0x01), 0x01)\n        /* \"#utility.yul\":4626:4641   */\n      swap6\n      dup7\n      and\n        /* \"NftStaking.sol\":4355:4422  nftCollection.transferFrom(msg.sender, address(this), _tokenIds[i]) */\n      0x04\n      dup3\n      add\n        /* \"#utility.yul\":4608:4642   */\n      mstore\n        /* \"#utility.yul\":4678:4693   */\n      swap5\n      swap1\n      swap4\n      and\n        /* \"#utility.yul\":4658:4676   */\n      0x24\n      dup6\n      add\n        /* \"#utility.yul\":4651:4694   */\n      mstore\n      pop\n        /* \"NftStaking.sol\":4409:4421  _tokenIds[i] */\n      0x20\n      swap1\n      swap2\n      mul\n      add\n      calldataload\n        /* \"#utility.yul\":4710:4728   */\n      0x44\n      dup3\n      add\n        /* \"#utility.yul\":4703:4737   */\n      mstore\n        /* \"#utility.yul\":4520:4538   */\n      0x64\n      add\n        /* \"NftStaking.sol\":4355:4422  nftCollection.transferFrom(msg.sender, address(this), _tokenIds[i]) */\n      0x00\n      mload(0x40)\n      dup1\n      dup4\n      sub\n      dup2\n      0x00\n      dup8\n      dup1\n      extcodesize\n      iszero\n      dup1\n      iszero\n      tag_121\n      jumpi\n      0x00\n      dup1\n      revert\n    tag_121:\n      pop\n      gas\n      call\n      iszero\n      dup1\n      iszero\n      tag_123\n      jumpi\n      returndatasize\n      0x00\n      dup1\n      returndatacopy\n      revert(0x00, returndatasize)\n    tag_123:\n      pop\n      pop\n      pop\n      pop\n        /* \"NftStaking.sol\":4439:4445  staker */\n      dup3\n        /* \"NftStaking.sol\":4439:4460  staker.stakedTokenIds */\n      0x00\n      add\n        /* \"NftStaking.sol\":4466:4475  _tokenIds */\n      dup6\n      dup6\n        /* \"NftStaking.sol\":4476:4477  i */\n      dup4\n        /* \"NftStaking.sol\":4466:4478  _tokenIds[i] */\n      dup2\n      dup2\n      lt\n      tag_125\n      jumpi\n      tag_125\n      tag_108\n      jump\t// in\n    tag_125:\n        /* \"NftStaking.sol\":4439:4479  staker.stakedTokenIds.push(_tokenIds[i]) */\n      dup4\n      sload\n      0x01\n      dup1\n      dup3\n      add\n      dup7\n      sstore\n      0x00\n      swap6\n      dup7\n      mstore\n        /* \"NftStaking.sol\":4466:4478  _tokenIds[i] */\n      0x20\n        /* \"NftStaking.sol\":4439:4479  staker.stakedTokenIds.push(_tokenIds[i]) */\n      swap6\n      dup7\n      swap1\n      keccak256\n        /* \"NftStaking.sol\":4466:4478  _tokenIds[i] */\n      swap3\n      swap1\n      swap6\n      mul\n      swap4\n      swap1\n      swap4\n      add\n      calldataload\n        /* \"NftStaking.sol\":4439:4479  staker.stakedTokenIds.push(_tokenIds[i]) */\n      swap3\n      add\n      swap2\n      swap1\n      swap2\n      sstore\n      pop\n        /* \"NftStaking.sol\":4530:4558  staker.stakedTokenIds.length */\n      dup4\n      sload\n        /* \"NftStaking.sol\":4530:4562  staker.stakedTokenIds.length - 1 */\n      tag_127\n      swap2\n        /* \"NftStaking.sol\":4439:4479  staker.stakedTokenIds.push(_tokenIds[i]) */\n      swap1\n        /* \"NftStaking.sol\":4530:4562  staker.stakedTokenIds.length - 1 */\n      tag_102\n      jump\t// in\n    tag_127:\n        /* \"NftStaking.sol\":4494:4513  tokenIdToArrayIndex */\n      0x08\n        /* \"NftStaking.sol\":4494:4527  tokenIdToArrayIndex[_tokenIds[i]] */\n      0x00\n        /* \"NftStaking.sol\":4514:4523  _tokenIds */\n      dup8\n      dup8\n        /* \"NftStaking.sol\":4524:4525  i */\n      dup6\n        /* \"NftStaking.sol\":4514:4526  _tokenIds[i] */\n      dup2\n      dup2\n      lt\n      tag_129\n      jumpi\n      tag_129\n      tag_108\n      jump\t// in\n    tag_129:\n      swap1\n      pop\n      0x20\n      mul\n      add\n      calldataload\n        /* \"NftStaking.sol\":4494:4527  tokenIdToArrayIndex[_tokenIds[i]] */\n      dup2\n      mstore\n      0x20\n      add\n      swap1\n      dup2\n      mstore\n      0x20\n      add\n      0x00\n      keccak256\n        /* \"NftStaking.sol\":4494:4562  tokenIdToArrayIndex[_tokenIds[i]] = staker.stakedTokenIds.length - 1 */\n      dup2\n      swap1\n      sstore\n      pop\n        /* \"NftStaking.sol\":4607:4617  msg.sender */\n      caller\n        /* \"NftStaking.sol\":4577:4590  stakerAddress */\n      0x05\n        /* \"NftStaking.sol\":4577:4604  stakerAddress[_tokenIds[i]] */\n      0x00\n        /* \"NftStaking.sol\":4591:4600  _tokenIds */\n      dup8\n      dup8\n        /* \"NftStaking.sol\":4601:4602  i */\n      dup6\n        /* \"NftStaking.sol\":4591:4603  _tokenIds[i] */\n      dup2\n      dup2\n      lt\n      tag_131\n      jumpi\n      tag_131\n      tag_108\n      jump\t// in\n    tag_131:\n      swap1\n      pop\n      0x20\n      mul\n      add\n      calldataload\n        /* \"NftStaking.sol\":4577:4604  stakerAddress[_tokenIds[i]] */\n      dup2\n      mstore\n      0x20\n      add\n      swap1\n      dup2\n      mstore\n      0x20\n      add\n      0x00\n      keccak256\n      0x00\n        /* \"NftStaking.sol\":4577:4617  stakerAddress[_tokenIds[i]] = msg.sender */\n      0x0100\n      exp\n      dup2\n      sload\n      dup2\n      sub(shl(0xa0, 0x01), 0x01)\n      mul\n      not\n      and\n      swap1\n      dup4\n      sub(shl(0xa0, 0x01), 0x01)\n      and\n      mul\n      or\n      swap1\n      sstore\n      pop\n        /* \"NftStaking.sol\":4223:4226  ++i */\n      dup1\n      tag_132\n      swap1\n      tag_133\n      jump\t// in\n    tag_132:\n      swap1\n      pop\n        /* \"NftStaking.sol\":4198:4629  for (uint256 i; i < len; ++i) {... */\n      jump(tag_103)\n    tag_104:\n      pop\n        /* \"NftStaking.sol\":3799:4636  {... */\n      pop\n      pop\n        /* \"NftStaking.sol\":3731:4636  function stake(uint256[] calldata _tokenIds) external whenNotPaused {... */\n      pop\n      pop\n      jump\t// out\n        /* \"NftStaking.sol\":6263:6657  function claimRewards() external {... */\n    tag_31:\n        /* \"NftStaking.sol\":6339:6349  msg.sender */\n      caller\n        /* \"NftStaking.sol\":6307:6328  Staker storage staker */\n      0x00\n        /* \"NftStaking.sol\":6331:6350  stakers[msg.sender] */\n      dup2\n      dup2\n      mstore\n        /* \"NftStaking.sol\":6331:6338  stakers */\n      0x04\n        /* \"NftStaking.sol\":6331:6350  stakers[msg.sender] */\n      0x20\n      mstore\n      0x40\n      dup2\n      keccak256\n        /* \"NftStaking.sol\":6412:6435  staker.unclaimedRewards */\n      0x02\n      dup2\n      add\n      sload\n        /* \"NftStaking.sol\":6331:6350  stakers[msg.sender] */\n      swap1\n      swap3\n        /* \"NftStaking.sol\":6381:6409  calculateRewards(msg.sender) */\n      tag_135\n      swap1\n        /* \"NftStaking.sol\":6381:6397  calculateRewards */\n      tag_136\n        /* \"NftStaking.sol\":6381:6409  calculateRewards(msg.sender) */\n      jump\t// in\n    tag_135:\n        /* \"NftStaking.sol\":6381:6435  calculateRewards(msg.sender) + staker.unclaimedRewards */\n      tag_137\n      swap2\n      swap1\n      tag_138\n      jump\t// in\n    tag_137:\n        /* \"NftStaking.sol\":6363:6435  uint256 rewards = calculateRewards(msg.sender) + staker.unclaimedRewards */\n      swap1\n      pop\n        /* \"NftStaking.sol\":6464:6465  0 */\n      0x00\n        /* \"NftStaking.sol\":6454:6461  rewards */\n      dup2\n        /* \"NftStaking.sol\":6454:6465  rewards > 0 */\n      gt\n        /* \"NftStaking.sol\":6446:6498  require(rewards > 0, \"You have no rewards to claim\") */\n      tag_139\n      jumpi\n      mload(0x40)\n      shl(0xe5, 0x461bcd)\n      dup2\n      mstore\n        /* \"#utility.yul\":5220:5222   */\n      0x20\n        /* \"NftStaking.sol\":6446:6498  require(rewards > 0, \"You have no rewards to claim\") */\n      0x04\n      dup3\n      add\n        /* \"#utility.yul\":5202:5223   */\n      mstore\n        /* \"#utility.yul\":5259:5261   */\n      0x1c\n        /* \"#utility.yul\":5239:5257   */\n      0x24\n      dup3\n      add\n        /* \"#utility.yul\":5232:5262   */\n      mstore\n        /* \"#utility.yul\":5298:5328   */\n      0x596f752068617665206e6f207265776172647320746f20636c61696d00000000\n        /* \"#utility.yul\":5278:5296   */\n      0x44\n      dup3\n      add\n        /* \"#utility.yul\":5271:5329   */\n      mstore\n        /* \"#utility.yul\":5346:5364   */\n      0x64\n      add\n        /* \"NftStaking.sol\":6446:6498  require(rewards > 0, \"You have no rewards to claim\") */\n      tag_115\n        /* \"#utility.yul\":5018:5370   */\n      jump\n        /* \"NftStaking.sol\":6446:6498  require(rewards > 0, \"You have no rewards to claim\") */\n    tag_139:\n        /* \"NftStaking.sol\":6537:6552  block.timestamp */\n      timestamp\n        /* \"NftStaking.sol\":6511:6534  staker.timeOfLastUpdate */\n      0x01\n      dup4\n      add\n        /* \"NftStaking.sol\":6511:6552  staker.timeOfLastUpdate = block.timestamp */\n      sstore\n        /* \"NftStaking.sol\":6589:6590  0 */\n      0x00\n        /* \"NftStaking.sol\":6563:6586  staker.unclaimedRewards */\n      0x02\n      dup4\n      add\n        /* \"NftStaking.sol\":6563:6590  staker.unclaimedRewards = 0 */\n      sstore\n        /* \"NftStaking.sol\":6603:6649  rewardsToken.safeTransfer(msg.sender, rewards) */\n      tag_142\n      sub(shl(0xa0, 0x01), 0x01)\n        /* \"NftStaking.sol\":6603:6615  rewardsToken */\n      immutable(\"0xd4d1a59767271eefdc7830a772b9732a11d503531d972ab8c981a6b1c0e666e5\")\n        /* \"NftStaking.sol\":6603:6628  rewardsToken.safeTransfer */\n      and\n        /* \"NftStaking.sol\":6629:6639  msg.sender */\n      caller\n        /* \"NftStaking.sol\":6641:6648  rewards */\n      dup4\n        /* \"NftStaking.sol\":6603:6628  rewardsToken.safeTransfer */\n      tag_143\n        /* \"NftStaking.sol\":6603:6649  rewardsToken.safeTransfer(msg.sender, rewards) */\n      jump\t// in\n    tag_142:\n        /* \"NftStaking.sol\":6296:6657  {... */\n      pop\n      pop\n        /* \"NftStaking.sol\":6263:6657  function claimRewards() external {... */\n      jump\t// out\n        /* \"NftStaking.sol\":9611:9678  function unpause() external onlyOwner {... */\n    tag_33:\n        /* \"@openzeppelin/contracts/access/Ownable.sol\":1094:1107   */\n      tag_145\n        /* \"@openzeppelin/contracts/access/Ownable.sol\":1094:1105   */\n      tag_146\n        /* \"@openzeppelin/contracts/access/Ownable.sol\":1094:1107   */\n      jump\t// in\n    tag_145:\n        /* \"NftStaking.sol\":9660:9670  _unpause() */\n      tag_148\n        /* \"NftStaking.sol\":9660:9668  _unpause */\n      tag_149\n        /* \"NftStaking.sol\":9660:9670  _unpause() */\n      jump\t// in\n    tag_148:\n        /* \"NftStaking.sol\":9611:9678  function unpause() external onlyOwner {... */\n      jump\t// out\n        /* \"NftStaking.sol\":7731:7965  function userStakeInfo(address _user)... */\n    tag_37:\n      sub(shl(0xa0, 0x01), 0x01)\n        /* \"NftStaking.sol\":7902:7916  stakers[_user] */\n      dup2\n      and\n        /* \"NftStaking.sol\":7851:7876  uint256 _availableRewards */\n      0x00\n        /* \"NftStaking.sol\":7902:7916  stakers[_user] */\n      swap1\n      dup2\n      mstore\n        /* \"NftStaking.sol\":7902:7909  stakers */\n      0x04\n        /* \"NftStaking.sol\":7902:7916  stakers[_user] */\n      0x20\n      mstore\n      0x40\n      dup2\n      keccak256\n        /* \"NftStaking.sol\":7817:7849  uint256[] memory _stakedTokenIds */\n      0x60\n      swap2\n        /* \"NftStaking.sol\":7851:7876  uint256 _availableRewards */\n      swap1\n        /* \"NftStaking.sol\":7933:7956  availableRewards(_user) */\n      tag_151\n        /* \"NftStaking.sol\":7910:7915  _user */\n      dup5\n        /* \"NftStaking.sol\":7933:7949  availableRewards */\n      tag_152\n        /* \"NftStaking.sol\":7933:7956  availableRewards(_user) */\n      jump\t// in\n    tag_151:\n        /* \"NftStaking.sol\":7894:7957  return (stakers[_user].stakedTokenIds, availableRewards(_user)) */\n      dup2\n      sload\n      0x40\n      dup1\n      mload\n      0x20\n      dup1\n      dup5\n      mul\n      dup3\n      add\n      dup2\n      add\n      swap1\n      swap3\n      mstore\n      dup3\n      dup2\n      mstore\n      swap2\n      dup5\n      swap2\n      dup4\n      add\n      dup3\n      dup3\n      dup1\n      iszero\n      tag_153\n      jumpi\n      0x20\n      mul\n      dup3\n      add\n      swap2\n      swap1\n      0x00\n      mstore\n      keccak256(0x00, 0x20)\n      swap1\n    tag_154:\n      dup2\n      sload\n      dup2\n      mstore\n      0x20\n      add\n      swap1\n      0x01\n      add\n      swap1\n      dup1\n      dup4\n      gt\n      tag_154\n      jumpi\n    tag_153:\n      pop\n      pop\n      pop\n      pop\n      pop\n      swap2\n      pop\n      swap2\n      pop\n      swap2\n      pop\n        /* \"NftStaking.sol\":7731:7965  function userStakeInfo(address _user)... */\n      swap2\n      pop\n      swap2\n      jump\t// out\n        /* \"NftStaking.sol\":2736:2765  address[] public stakersArray */\n    tag_48:\n      0x06\n      dup2\n      dup2\n      sload\n      dup2\n      lt\n      tag_155\n      jumpi\n      0x00\n      dup1\n      revert\n    tag_155:\n      0x00\n      swap2\n      dup3\n      mstore\n      0x20\n      swap1\n      swap2\n      keccak256\n      add\n      sload\n      sub(shl(0xa0, 0x01), 0x01)\n      and\n      swap1\n      pop\n      dup2\n      jump\t// out\n        /* \"@openzeppelin/contracts/access/Ownable.sol\":1824:1925   */\n    tag_60:\n        /* \"@openzeppelin/contracts/access/Ownable.sol\":1094:1107   */\n      tag_159\n        /* \"@openzeppelin/contracts/access/Ownable.sol\":1094:1105   */\n      tag_146\n        /* \"@openzeppelin/contracts/access/Ownable.sol\":1094:1107   */\n      jump\t// in\n    tag_159:\n        /* \"@openzeppelin/contracts/access/Ownable.sol\":1888:1918   */\n      tag_148\n        /* \"@openzeppelin/contracts/access/Ownable.sol\":1915:1916   */\n      0x00\n        /* \"@openzeppelin/contracts/access/Ownable.sol\":1888:1906   */\n      tag_162\n        /* \"@openzeppelin/contracts/access/Ownable.sol\":1888:1918   */\n      jump\t// in\n        /* \"NftStaking.sol\":9493:9556  function pause() external onlyOwner {... */\n    tag_62:\n        /* \"@openzeppelin/contracts/access/Ownable.sol\":1094:1107   */\n      tag_164\n        /* \"@openzeppelin/contracts/access/Ownable.sol\":1094:1105   */\n      tag_146\n        /* \"@openzeppelin/contracts/access/Ownable.sol\":1094:1107   */\n      jump\t// in\n    tag_164:\n        /* \"NftStaking.sol\":9540:9548  _pause() */\n      tag_148\n        /* \"NftStaking.sol\":9540:9546  _pause */\n      tag_167\n        /* \"NftStaking.sol\":9540:9548  _pause() */\n      jump\t// in\n        /* \"NftStaking.sol\":4782:6165  function withdraw(uint256[] calldata _tokenIds) external nonReentrant {... */\n    tag_77:\n        /* \"@openzeppelin/contracts/security/ReentrancyGuard.sol\":2261:2282   */\n      tag_170\n        /* \"@openzeppelin/contracts/security/ReentrancyGuard.sol\":2261:2280   */\n      tag_171\n        /* \"@openzeppelin/contracts/security/ReentrancyGuard.sol\":2261:2282   */\n      jump\t// in\n    tag_170:\n        /* \"NftStaking.sol\":4895:4905  msg.sender */\n      caller\n        /* \"NftStaking.sol\":4863:4884  Staker storage staker */\n      0x00\n        /* \"NftStaking.sol\":4887:4906  stakers[msg.sender] */\n      swap1\n      dup2\n      mstore\n        /* \"NftStaking.sol\":4887:4894  stakers */\n      0x04\n        /* \"NftStaking.sol\":4887:4906  stakers[msg.sender] */\n      0x20\n      mstore\n      0x40\n      swap1\n      keccak256\n        /* \"NftStaking.sol\":4925:4953  staker.stakedTokenIds.length */\n      dup1\n      sload\n        /* \"NftStaking.sol\":4917:4987  require(staker.stakedTokenIds.length > 0, \"You have no tokens staked\") */\n      tag_173\n      jumpi\n      mload(0x40)\n      shl(0xe5, 0x461bcd)\n      dup2\n      mstore\n        /* \"#utility.yul\":5577:5579   */\n      0x20\n        /* \"NftStaking.sol\":4917:4987  require(staker.stakedTokenIds.length > 0, \"You have no tokens staked\") */\n      0x04\n      dup3\n      add\n        /* \"#utility.yul\":5559:5580   */\n      mstore\n        /* \"#utility.yul\":5616:5618   */\n      0x19\n        /* \"#utility.yul\":5596:5614   */\n      0x24\n      dup3\n      add\n        /* \"#utility.yul\":5589:5619   */\n      mstore\n        /* \"#utility.yul\":5655:5682   */\n      0x596f752068617665206e6f20746f6b656e73207374616b656400000000000000\n        /* \"#utility.yul\":5635:5653   */\n      0x44\n      dup3\n      add\n        /* \"#utility.yul\":5628:5683   */\n      mstore\n        /* \"#utility.yul\":5700:5718   */\n      0x64\n      add\n        /* \"NftStaking.sol\":4917:4987  require(staker.stakedTokenIds.length > 0, \"You have no tokens staked\") */\n      tag_115\n        /* \"#utility.yul\":5375:5724   */\n      jump\n        /* \"NftStaking.sol\":4917:4987  require(staker.stakedTokenIds.length > 0, \"You have no tokens staked\") */\n    tag_173:\n        /* \"NftStaking.sol\":4998:5023  updateRewards(msg.sender) */\n      tag_176\n        /* \"NftStaking.sol\":5012:5022  msg.sender */\n      caller\n        /* \"NftStaking.sol\":4998:5011  updateRewards */\n      tag_98\n        /* \"NftStaking.sol\":4998:5023  updateRewards(msg.sender) */\n      jump\t// in\n    tag_176:\n        /* \"NftStaking.sol\":5060:5069  _tokenIds */\n      dup2\n        /* \"NftStaking.sol\":5036:5057  uint256 lenToWithdraw */\n      0x00\n        /* \"NftStaking.sol\":5087:5741  for (uint256 i; i < lenToWithdraw; ++i) {... */\n    tag_177:\n        /* \"NftStaking.sol\":5107:5120  lenToWithdraw */\n      dup2\n        /* \"NftStaking.sol\":5103:5104  i */\n      dup2\n        /* \"NftStaking.sol\":5103:5120  i < lenToWithdraw */\n      lt\n        /* \"NftStaking.sol\":5087:5741  for (uint256 i; i < lenToWithdraw; ++i) {... */\n      iszero\n      tag_178\n      jumpi\n        /* \"NftStaking.sol\":5181:5191  msg.sender */\n      caller\n        /* \"NftStaking.sol\":5150:5163  stakerAddress */\n      0x05\n        /* \"NftStaking.sol\":5150:5177  stakerAddress[_tokenIds[i]] */\n      0x00\n        /* \"NftStaking.sol\":5164:5173  _tokenIds */\n      dup8\n      dup8\n        /* \"NftStaking.sol\":5174:5175  i */\n      dup6\n        /* \"NftStaking.sol\":5164:5176  _tokenIds[i] */\n      dup2\n      dup2\n      lt\n      tag_181\n      jumpi\n      tag_181\n      tag_108\n      jump\t// in\n    tag_181:\n      0x20\n      swap1\n      dup2\n      mul\n      swap3\n      swap1\n      swap3\n      add\n      calldataload\n        /* \"NftStaking.sol\":5150:5177  stakerAddress[_tokenIds[i]] */\n      dup4\n      mstore\n      pop\n      dup2\n      add\n      swap2\n      swap1\n      swap2\n      mstore\n      0x40\n      add\n      0x00\n      keccak256\n      sload\n      sub(shl(0xa0, 0x01), 0x01)\n      and\n        /* \"NftStaking.sol\":5150:5191  stakerAddress[_tokenIds[i]] == msg.sender */\n      eq\n        /* \"NftStaking.sol\":5142:5192  require(stakerAddress[_tokenIds[i]] == msg.sender) */\n      tag_182\n      jumpi\n      0x00\n      dup1\n      revert\n    tag_182:\n        /* \"NftStaking.sol\":5209:5222  uint256 index */\n      0x00\n        /* \"NftStaking.sol\":5225:5244  tokenIdToArrayIndex */\n      0x08\n        /* \"NftStaking.sol\":5225:5258  tokenIdToArrayIndex[_tokenIds[i]] */\n      0x00\n        /* \"NftStaking.sol\":5245:5254  _tokenIds */\n      dup8\n      dup8\n        /* \"NftStaking.sol\":5255:5256  i */\n      dup6\n        /* \"NftStaking.sol\":5245:5257  _tokenIds[i] */\n      dup2\n      dup2\n      lt\n      tag_184\n      jumpi\n      tag_184\n      tag_108\n      jump\t// in\n    tag_184:\n      swap1\n      pop\n      0x20\n      mul\n      add\n      calldataload\n        /* \"NftStaking.sol\":5225:5258  tokenIdToArrayIndex[_tokenIds[i]] */\n      dup2\n      mstore\n      0x20\n      add\n      swap1\n      dup2\n      mstore\n      0x20\n      add\n      0x00\n      keccak256\n      sload\n        /* \"NftStaking.sol\":5209:5258  uint256 index = tokenIdToArrayIndex[_tokenIds[i]] */\n      swap1\n      pop\n        /* \"NftStaking.sol\":5273:5295  uint256 lastTokenIndex */\n      0x00\n        /* \"NftStaking.sol\":5329:5330  1 */\n      0x01\n        /* \"NftStaking.sol\":5298:5304  staker */\n      dup6\n        /* \"NftStaking.sol\":5298:5319  staker.stakedTokenIds */\n      0x00\n      add\n        /* \"NftStaking.sol\":5298:5326  staker.stakedTokenIds.length */\n      dup1\n      sload\n      swap1\n      pop\n        /* \"NftStaking.sol\":5298:5330  staker.stakedTokenIds.length - 1 */\n      tag_185\n      swap2\n      swap1\n      tag_102\n      jump\t// in\n    tag_185:\n        /* \"NftStaking.sol\":5273:5330  uint256 lastTokenIndex = staker.stakedTokenIds.length - 1 */\n      swap1\n      pop\n        /* \"NftStaking.sol\":5358:5372  lastTokenIndex */\n      dup1\n        /* \"NftStaking.sol\":5349:5354  index */\n      dup3\n        /* \"NftStaking.sol\":5349:5372  index != lastTokenIndex */\n      eq\n        /* \"NftStaking.sol\":5345:5553  if (index != lastTokenIndex) {... */\n      tag_186\n      jumpi\n        /* \"NftStaking.sol\":5424:5430  staker */\n      dup5\n        /* \"NftStaking.sol\":5424:5445  staker.stakedTokenIds */\n      0x00\n      add\n        /* \"NftStaking.sol\":5446:5460  lastTokenIndex */\n      dup2\n        /* \"NftStaking.sol\":5424:5461  staker.stakedTokenIds[lastTokenIndex] */\n      dup2\n      sload\n      dup2\n      lt\n      tag_188\n      jumpi\n      tag_188\n      tag_108\n      jump\t// in\n    tag_188:\n      swap1\n      0x00\n      mstore\n      keccak256(0x00, 0x20)\n      add\n      sload\n        /* \"NftStaking.sol\":5393:5399  staker */\n      dup6\n        /* \"NftStaking.sol\":5393:5414  staker.stakedTokenIds */\n      0x00\n      add\n        /* \"NftStaking.sol\":5415:5420  index */\n      dup4\n        /* \"NftStaking.sol\":5393:5421  staker.stakedTokenIds[index] */\n      dup2\n      sload\n      dup2\n      lt\n      tag_191\n      jumpi\n      tag_191\n      tag_108\n      jump\t// in\n    tag_191:\n      swap1\n      0x00\n      mstore\n      keccak256(0x00, 0x20)\n      add\n        /* \"NftStaking.sol\":5393:5461  staker.stakedTokenIds[index] = staker.stakedTokenIds[lastTokenIndex] */\n      dup2\n      swap1\n      sstore\n      pop\n        /* \"NftStaking.sol\":5532:5537  index */\n      dup2\n        /* \"NftStaking.sol\":5480:5499  tokenIdToArrayIndex */\n      0x08\n        /* \"NftStaking.sol\":5480:5529  tokenIdToArrayIndex[staker.stakedTokenIds[index]] */\n      0x00\n        /* \"NftStaking.sol\":5500:5506  staker */\n      dup8\n        /* \"NftStaking.sol\":5500:5521  staker.stakedTokenIds */\n      0x00\n      add\n        /* \"NftStaking.sol\":5522:5527  index */\n      dup6\n        /* \"NftStaking.sol\":5500:5528  staker.stakedTokenIds[index] */\n      dup2\n      sload\n      dup2\n      lt\n      tag_194\n      jumpi\n      tag_194\n      tag_108\n      jump\t// in\n    tag_194:\n      swap1\n      0x00\n      mstore\n      keccak256(0x00, 0x20)\n      add\n      sload\n        /* \"NftStaking.sol\":5480:5529  tokenIdToArrayIndex[staker.stakedTokenIds[index]] */\n      dup2\n      mstore\n      0x20\n      add\n      swap1\n      dup2\n      mstore\n      0x20\n      add\n      0x00\n      keccak256\n        /* \"NftStaking.sol\":5480:5537  tokenIdToArrayIndex[staker.stakedTokenIds[index]] = index */\n      dup2\n      swap1\n      sstore\n      pop\n        /* \"NftStaking.sol\":5345:5553  if (index != lastTokenIndex) {... */\n    tag_186:\n        /* \"NftStaking.sol\":5567:5594  staker.stakedTokenIds.pop() */\n      dup5\n      sload\n        /* \"NftStaking.sol\":5567:5573  staker */\n      dup6\n      swap1\n        /* \"NftStaking.sol\":5567:5594  staker.stakedTokenIds.pop() */\n      dup1\n      tag_197\n      jumpi\n      tag_197\n      tag_198\n      jump\t// in\n    tag_197:\n      0x01\n      swap1\n      sub\n      dup2\n      dup2\n      swap1\n      0x00\n      mstore\n      keccak256(0x00, 0x20)\n      add\n      0x00\n      swap1\n      sstore\n      swap1\n      sstore\n        /* \"NftStaking.sol\":5618:5631  stakerAddress */\n      0x05\n        /* \"NftStaking.sol\":5618:5645  stakerAddress[_tokenIds[i]] */\n      0x00\n        /* \"NftStaking.sol\":5632:5641  _tokenIds */\n      dup9\n      dup9\n        /* \"NftStaking.sol\":5642:5643  i */\n      dup7\n        /* \"NftStaking.sol\":5632:5644  _tokenIds[i] */\n      dup2\n      dup2\n      lt\n      tag_201\n      jumpi\n      tag_201\n      tag_108\n      jump\t// in\n    tag_201:\n      0x20\n      swap1\n      dup2\n      mul\n      swap3\n      swap1\n      swap3\n      add\n      calldataload\n        /* \"NftStaking.sol\":5618:5645  stakerAddress[_tokenIds[i]] */\n      dup4\n      mstore\n      pop\n      dup2\n      add\n      swap2\n      swap1\n      swap2\n      mstore\n      0x40\n      add\n      0x00\n      keccak256\n        /* \"NftStaking.sol\":5611:5645  delete stakerAddress[_tokenIds[i]] */\n      dup1\n      sload\n      not(sub(shl(0xa0, 0x01), 0x01))\n      and\n      swap1\n      sstore\n        /* \"NftStaking.sol\":5662:5675  nftCollection */\n      immutable(\"0x9cce9eb03c9f29c6481fca9f0f942b15bef0bbbc47fda0ddb44df157019835d9\")\n      sub(shl(0xa0, 0x01), 0x01)\n        /* \"NftStaking.sol\":5662:5688  nftCollection.transferFrom */\n      and\n      0x23b872dd\n        /* \"NftStaking.sol\":5697:5701  this */\n      address\n        /* \"NftStaking.sol\":5704:5714  msg.sender */\n      caller\n        /* \"NftStaking.sol\":5716:5725  _tokenIds */\n      dup11\n      dup11\n        /* \"NftStaking.sol\":5726:5727  i */\n      dup9\n        /* \"NftStaking.sol\":5716:5728  _tokenIds[i] */\n      dup2\n      dup2\n      lt\n      tag_203\n      jumpi\n      tag_203\n      tag_108\n      jump\t// in\n    tag_203:\n        /* \"NftStaking.sol\":5662:5729  nftCollection.transferFrom(address(this), msg.sender, _tokenIds[i]) */\n      mload(0x40)\n      0xffffffff00000000000000000000000000000000000000000000000000000000\n      0xe0\n      dup9\n      swap1\n      shl\n      and\n      dup2\n      mstore\n      sub(shl(0xa0, 0x01), 0x01)\n        /* \"#utility.yul\":4626:4641   */\n      swap6\n      dup7\n      and\n        /* \"NftStaking.sol\":5662:5729  nftCollection.transferFrom(address(this), msg.sender, _tokenIds[i]) */\n      0x04\n      dup3\n      add\n        /* \"#utility.yul\":4608:4642   */\n      mstore\n        /* \"#utility.yul\":4678:4693   */\n      swap5\n      swap1\n      swap4\n      and\n        /* \"#utility.yul\":4658:4676   */\n      0x24\n      dup6\n      add\n        /* \"#utility.yul\":4651:4694   */\n      mstore\n      pop\n        /* \"NftStaking.sol\":5716:5728  _tokenIds[i] */\n      0x20\n      swap1\n      swap2\n      mul\n      add\n      calldataload\n        /* \"#utility.yul\":4710:4728   */\n      0x44\n      dup3\n      add\n        /* \"#utility.yul\":4703:4737   */\n      mstore\n        /* \"#utility.yul\":4520:4538   */\n      0x64\n      add\n        /* \"NftStaking.sol\":5662:5729  nftCollection.transferFrom(address(this), msg.sender, _tokenIds[i]) */\n      0x00\n      mload(0x40)\n      dup1\n      dup4\n      sub\n      dup2\n      0x00\n      dup8\n      dup1\n      extcodesize\n      iszero\n      dup1\n      iszero\n      tag_205\n      jumpi\n      0x00\n      dup1\n      revert\n    tag_205:\n      pop\n      gas\n      call\n      iszero\n      dup1\n      iszero\n      tag_207\n      jumpi\n      returndatasize\n      0x00\n      dup1\n      returndatacopy\n      revert(0x00, returndatasize)\n    tag_207:\n      pop\n      pop\n      pop\n      pop\n        /* \"NftStaking.sol\":5127:5741  {... */\n      pop\n      pop\n        /* \"NftStaking.sol\":5122:5125  ++i */\n      dup1\n      tag_208\n      swap1\n      tag_133\n      jump\t// in\n    tag_208:\n      swap1\n      pop\n        /* \"NftStaking.sol\":5087:5741  for (uint256 i; i < lenToWithdraw; ++i) {... */\n      jump(tag_177)\n    tag_178:\n      pop\n        /* \"NftStaking.sol\":5757:5785  staker.stakedTokenIds.length */\n      dup2\n      sload\n        /* \"NftStaking.sol\":5757:5778  staker.stakedTokenIds */\n      0x00\n        /* \"NftStaking.sol\":5757:5790  staker.stakedTokenIds.length == 0 */\n      sub\n        /* \"NftStaking.sol\":5753:6158  if (staker.stakedTokenIds.length == 0) {... */\n      tag_209\n      jumpi\n        /* \"NftStaking.sol\":5842:5852  msg.sender */\n      caller\n        /* \"NftStaking.sol\":5807:5820  uint256 index */\n      0x00\n        /* \"NftStaking.sol\":5823:5853  stakerToArrayIndex[msg.sender] */\n      swap1\n      dup2\n      mstore\n        /* \"NftStaking.sol\":5823:5841  stakerToArrayIndex */\n      0x07\n        /* \"NftStaking.sol\":5823:5853  stakerToArrayIndex[msg.sender] */\n      0x20\n      mstore\n      0x40\n      dup2\n      keccak256\n      sload\n        /* \"NftStaking.sol\":5894:5906  stakersArray */\n      0x06\n        /* \"NftStaking.sol\":5894:5913  stakersArray.length */\n      sload\n        /* \"NftStaking.sol\":5823:5853  stakerToArrayIndex[msg.sender] */\n      swap1\n      swap2\n        /* \"NftStaking.sol\":5807:5820  uint256 index */\n      swap1\n        /* \"NftStaking.sol\":5894:5917  stakersArray.length - 1 */\n      tag_210\n      swap1\n        /* \"NftStaking.sol\":5916:5917  1 */\n      0x01\n      swap1\n        /* \"NftStaking.sol\":5894:5917  stakersArray.length - 1 */\n      tag_102\n      jump\t// in\n    tag_210:\n        /* \"NftStaking.sol\":5868:5917  uint256 lastStakerIndex = stakersArray.length - 1 */\n      swap1\n      pop\n        /* \"NftStaking.sol\":5945:5960  lastStakerIndex */\n      dup1\n        /* \"NftStaking.sol\":5936:5941  index */\n      dup3\n        /* \"NftStaking.sol\":5936:5960  index != lastStakerIndex */\n      eq\n        /* \"NftStaking.sol\":5932:6114  if (index != lastStakerIndex) {... */\n      tag_211\n      jumpi\n        /* \"NftStaking.sol\":6003:6015  stakersArray */\n      0x06\n        /* \"NftStaking.sol\":6016:6031  lastStakerIndex */\n      dup2\n        /* \"NftStaking.sol\":6003:6032  stakersArray[lastStakerIndex] */\n      dup2\n      sload\n      dup2\n      lt\n      tag_213\n      jumpi\n      tag_213\n      tag_108\n      jump\t// in\n    tag_213:\n      0x00\n      swap2\n      dup3\n      mstore\n      0x20\n      swap1\n      swap2\n      keccak256\n      add\n      sload\n        /* \"NftStaking.sol\":5981:5993  stakersArray */\n      0x06\n        /* \"NftStaking.sol\":5981:6000  stakersArray[index] */\n      dup1\n      sload\n      sub(shl(0xa0, 0x01), 0x01)\n        /* \"NftStaking.sol\":6003:6032  stakersArray[lastStakerIndex] */\n      swap1\n      swap3\n      and\n      swap2\n        /* \"NftStaking.sol\":5994:5999  index */\n      dup5\n      swap1\n        /* \"NftStaking.sol\":5981:6000  stakersArray[index] */\n      dup2\n      lt\n      tag_216\n      jumpi\n      tag_216\n      tag_108\n      jump\t// in\n    tag_216:\n      swap1\n      0x00\n      mstore\n      keccak256(0x00, 0x20)\n      add\n      0x00\n        /* \"NftStaking.sol\":5981:6032  stakersArray[index] = stakersArray[lastStakerIndex] */\n      0x0100\n      exp\n      dup2\n      sload\n      dup2\n      sub(shl(0xa0, 0x01), 0x01)\n      mul\n      not\n      and\n      swap1\n      dup4\n      sub(shl(0xa0, 0x01), 0x01)\n      and\n      mul\n      or\n      swap1\n      sstore\n      pop\n        /* \"NftStaking.sol\":6093:6098  index */\n      dup2\n        /* \"NftStaking.sol\":6051:6069  stakerToArrayIndex */\n      0x07\n        /* \"NftStaking.sol\":6051:6090  stakerToArrayIndex[stakersArray[index]] */\n      0x00\n        /* \"NftStaking.sol\":6070:6082  stakersArray */\n      0x06\n        /* \"NftStaking.sol\":6083:6088  index */\n      dup6\n        /* \"NftStaking.sol\":6070:6089  stakersArray[index] */\n      dup2\n      sload\n      dup2\n      lt\n      tag_219\n      jumpi\n      tag_219\n      tag_108\n      jump\t// in\n    tag_219:\n      0x00\n      swap2\n      dup3\n      mstore\n      0x20\n      dup1\n      dup4\n      keccak256\n      swap1\n      swap2\n      add\n      sload\n      sub(shl(0xa0, 0x01), 0x01)\n      and\n        /* \"NftStaking.sol\":6051:6090  stakerToArrayIndex[stakersArray[index]] */\n      dup4\n      mstore\n      dup3\n      add\n      swap3\n      swap1\n      swap3\n      mstore\n      0x40\n      add\n      swap1\n      keccak256\n        /* \"NftStaking.sol\":6051:6098  stakerToArrayIndex[stakersArray[index]] = index */\n      sstore\n        /* \"NftStaking.sol\":5932:6114  if (index != lastStakerIndex) {... */\n    tag_211:\n        /* \"NftStaking.sol\":6128:6140  stakersArray */\n      0x06\n        /* \"NftStaking.sol\":6128:6146  stakersArray.pop() */\n      dup1\n      sload\n      dup1\n      tag_222\n      jumpi\n      tag_222\n      tag_198\n      jump\t// in\n    tag_222:\n      0x00\n      dup3\n      dup2\n      mstore\n      0x20\n      swap1\n      keccak256\n      dup2\n      add\n      not(0x00)\n      swap1\n      dup2\n      add\n      dup1\n      sload\n      not(sub(shl(0xa0, 0x01), 0x01))\n      and\n      swap1\n      sstore\n      add\n      swap1\n      sstore\n      pop\n      pop\n        /* \"NftStaking.sol\":5753:6158  if (staker.stakedTokenIds.length == 0) {... */\n    tag_209:\n        /* \"NftStaking.sol\":4852:6165  {... */\n      pop\n      pop\n        /* \"@openzeppelin/contracts/security/ReentrancyGuard.sol\":2303:2323   */\n      tag_142\n        /* \"@openzeppelin/contracts/security/ReentrancyGuard.sol\":1716:1717   */\n      0x01\n        /* \"@openzeppelin/contracts/security/ReentrancyGuard.sol\":2809:2831   */\n      dup1\n      sstore\n        /* \"@openzeppelin/contracts/security/ReentrancyGuard.sol\":2629:2838   */\n      jump\n        /* \"NftStaking.sol\":7106:7402  function setRewardsPerHour(uint256 _newValue) public onlyOwner {... */\n    tag_80:\n        /* \"@openzeppelin/contracts/access/Ownable.sol\":1094:1107   */\n      tag_227\n        /* \"@openzeppelin/contracts/access/Ownable.sol\":1094:1105   */\n      tag_146\n        /* \"@openzeppelin/contracts/access/Ownable.sol\":1094:1107   */\n      jump\t// in\n    tag_227:\n        /* \"NftStaking.sol\":7180:7205  address[] memory _stakers */\n      0x00\n        /* \"NftStaking.sol\":7208:7220  stakersArray */\n      0x06\n        /* \"NftStaking.sol\":7180:7220  address[] memory _stakers = stakersArray */\n      dup1\n      sload\n      dup1\n      0x20\n      mul\n      0x20\n      add\n      mload(0x40)\n      swap1\n      dup2\n      add\n      0x40\n      mstore\n      dup1\n      swap3\n      swap2\n      swap1\n      dup2\n      dup2\n      mstore\n      0x20\n      add\n      dup3\n      dup1\n      sload\n      dup1\n      iszero\n      tag_229\n      jumpi\n      0x20\n      mul\n      dup3\n      add\n      swap2\n      swap1\n      0x00\n      mstore\n      keccak256(0x00, 0x20)\n      swap1\n    tag_230:\n      dup2\n      sload\n      sub(shl(0xa0, 0x01), 0x01)\n      and\n      dup2\n      mstore\n      0x01\n      swap1\n      swap2\n      add\n      swap1\n      0x20\n      add\n      dup1\n      dup4\n      gt\n      tag_230\n      jumpi\n    tag_229:\n      pop\n      pop\n        /* \"NftStaking.sol\":7247:7262  _stakers.length */\n      dup4\n      mload\n        /* \"NftStaking.sol\":7180:7220  address[] memory _stakers = stakersArray */\n      swap4\n      swap5\n      pop\n        /* \"NftStaking.sol\":7233:7244  uint256 len */\n      0x00\n      swap3\n      pop\n      pop\n      pop\n        /* \"NftStaking.sol\":7273:7356  for (uint256 i; i < len; ++i) {... */\n    tag_231:\n        /* \"NftStaking.sol\":7293:7296  len */\n      dup2\n        /* \"NftStaking.sol\":7289:7290  i */\n      dup2\n        /* \"NftStaking.sol\":7289:7296  i < len */\n      lt\n        /* \"NftStaking.sol\":7273:7356  for (uint256 i; i < len; ++i) {... */\n      iszero\n      tag_232\n      jumpi\n        /* \"NftStaking.sol\":7318:7344  updateRewards(_stakers[i]) */\n      tag_234\n        /* \"NftStaking.sol\":7332:7340  _stakers */\n      dup4\n        /* \"NftStaking.sol\":7341:7342  i */\n      dup3\n        /* \"NftStaking.sol\":7332:7343  _stakers[i] */\n      dup2\n      mload\n      dup2\n      lt\n      tag_236\n      jumpi\n      tag_236\n      tag_108\n      jump\t// in\n    tag_236:\n      0x20\n      mul\n      0x20\n      add\n      add\n      mload\n        /* \"NftStaking.sol\":7318:7331  updateRewards */\n      tag_98\n        /* \"NftStaking.sol\":7318:7344  updateRewards(_stakers[i]) */\n      jump\t// in\n    tag_234:\n        /* \"NftStaking.sol\":7298:7301  ++i */\n      tag_237\n      dup2\n      tag_133\n      jump\t// in\n    tag_237:\n      swap1\n      pop\n        /* \"NftStaking.sol\":7273:7356  for (uint256 i; i < len; ++i) {... */\n      jump(tag_231)\n    tag_232:\n      pop\n      pop\n      pop\n        /* \"NftStaking.sol\":7368:7382  rewardsPerHour */\n      0x03\n        /* \"NftStaking.sol\":7368:7394  rewardsPerHour = _newValue */\n      sstore\n        /* \"NftStaking.sol\":7106:7402  function setRewardsPerHour(uint256 _newValue) public onlyOwner {... */\n      jump\t// out\n        /* \"@openzeppelin/contracts/access/Ownable.sol\":2074:2272   */\n    tag_91:\n        /* \"@openzeppelin/contracts/access/Ownable.sol\":1094:1107   */\n      tag_239\n        /* \"@openzeppelin/contracts/access/Ownable.sol\":1094:1105   */\n      tag_146\n        /* \"@openzeppelin/contracts/access/Ownable.sol\":1094:1107   */\n      jump\t// in\n    tag_239:\n      sub(shl(0xa0, 0x01), 0x01)\n        /* \"@openzeppelin/contracts/access/Ownable.sol\":2162:2184   */\n      dup2\n      and\n        /* \"@openzeppelin/contracts/access/Ownable.sol\":2154:2227   */\n      tag_241\n      jumpi\n      mload(0x40)\n      shl(0xe5, 0x461bcd)\n      dup2\n      mstore\n        /* \"#utility.yul\":6063:6065   */\n      0x20\n        /* \"@openzeppelin/contracts/access/Ownable.sol\":2154:2227   */\n      0x04\n      dup3\n      add\n        /* \"#utility.yul\":6045:6066   */\n      mstore\n        /* \"#utility.yul\":6102:6104   */\n      0x26\n        /* \"#utility.yul\":6082:6100   */\n      0x24\n      dup3\n      add\n        /* \"#utility.yul\":6075:6105   */\n      mstore\n        /* \"#utility.yul\":6141:6175   */\n      0x4f776e61626c653a206e6577206f776e657220697320746865207a65726f2061\n        /* \"#utility.yul\":6121:6139   */\n      0x44\n      dup3\n      add\n        /* \"#utility.yul\":6114:6176   */\n      mstore\n        /* \"#utility.yul\":6212:6220   */\n      0x6464726573730000000000000000000000000000000000000000000000000000\n        /* \"#utility.yul\":6192:6210   */\n      0x64\n      dup3\n      add\n        /* \"#utility.yul\":6185:6221   */\n      mstore\n        /* \"#utility.yul\":6238:6257   */\n      0x84\n      add\n        /* \"@openzeppelin/contracts/access/Ownable.sol\":2154:2227   */\n      tag_115\n        /* \"#utility.yul\":5861:6263   */\n      jump\n        /* \"@openzeppelin/contracts/access/Ownable.sol\":2154:2227   */\n    tag_241:\n        /* \"@openzeppelin/contracts/access/Ownable.sol\":2237:2265   */\n      tag_244\n        /* \"@openzeppelin/contracts/access/Ownable.sol\":2256:2264   */\n      dup2\n        /* \"@openzeppelin/contracts/access/Ownable.sol\":2237:2255   */\n      tag_162\n        /* \"@openzeppelin/contracts/access/Ownable.sol\":2237:2265   */\n      jump\t// in\n    tag_244:\n        /* \"@openzeppelin/contracts/access/Ownable.sol\":2074:2272   */\n      pop\n      jump\t// out\n        /* \"@openzeppelin/contracts/security/Pausable.sol\":1767:1873   */\n    tag_94:\n        /* \"@openzeppelin/contracts/security/Pausable.sol\":1685:1692   */\n      and(0xff, sload(0x02))\n        /* \"@openzeppelin/contracts/security/Pausable.sol\":1836:1845   */\n      iszero\n        /* \"@openzeppelin/contracts/security/Pausable.sol\":1828:1866   */\n      tag_148\n      jumpi\n      mload(0x40)\n      shl(0xe5, 0x461bcd)\n      dup2\n      mstore\n        /* \"#utility.yul\":6470:6472   */\n      0x20\n        /* \"@openzeppelin/contracts/security/Pausable.sol\":1828:1866   */\n      0x04\n      dup3\n      add\n        /* \"#utility.yul\":6452:6473   */\n      mstore\n        /* \"#utility.yul\":6509:6511   */\n      0x10\n        /* \"#utility.yul\":6489:6507   */\n      0x24\n      dup3\n      add\n        /* \"#utility.yul\":6482:6512   */\n      mstore\n        /* \"#utility.yul\":6548:6566   */\n      0x5061757361626c653a2070617573656400000000000000000000000000000000\n        /* \"#utility.yul\":6528:6546   */\n      0x44\n      dup3\n      add\n        /* \"#utility.yul\":6521:6567   */\n      mstore\n        /* \"#utility.yul\":6584:6602   */\n      0x64\n      add\n        /* \"@openzeppelin/contracts/security/Pausable.sol\":1828:1866   */\n      tag_115\n        /* \"#utility.yul\":6268:6608   */\n      jump\n        /* \"NftStaking.sol\":9214:9439  function updateRewards(address _staker) internal {... */\n    tag_98:\n      sub(shl(0xa0, 0x01), 0x01)\n        /* \"NftStaking.sol\":9298:9314  stakers[_staker] */\n      dup2\n      and\n        /* \"NftStaking.sol\":9274:9295  Staker storage staker */\n      0x00\n        /* \"NftStaking.sol\":9298:9314  stakers[_staker] */\n      swap1\n      dup2\n      mstore\n        /* \"NftStaking.sol\":9298:9305  stakers */\n      0x04\n        /* \"NftStaking.sol\":9298:9314  stakers[_staker] */\n      0x20\n      mstore\n      0x40\n      swap1\n      keccak256\n        /* \"NftStaking.sol\":9354:9379  calculateRewards(_staker) */\n      tag_251\n        /* \"NftStaking.sol\":9306:9313  _staker */\n      dup3\n        /* \"NftStaking.sol\":9354:9370  calculateRewards */\n      tag_136\n        /* \"NftStaking.sol\":9354:9379  calculateRewards(_staker) */\n      jump\t// in\n    tag_251:\n        /* \"NftStaking.sol\":9327:9333  staker */\n      dup2\n        /* \"NftStaking.sol\":9327:9350  staker.unclaimedRewards */\n      0x02\n      add\n      0x00\n        /* \"NftStaking.sol\":9327:9379  staker.unclaimedRewards += calculateRewards(_staker) */\n      dup3\n      dup3\n      sload\n      tag_252\n      swap2\n      swap1\n      tag_138\n      jump\t// in\n    tag_252:\n      swap1\n      swap2\n      sstore\n      pop\n      pop\n        /* \"NftStaking.sol\":9416:9431  block.timestamp */\n      timestamp\n        /* \"NftStaking.sol\":9390:9413  staker.timeOfLastUpdate */\n      0x01\n      swap1\n      swap2\n      add\n        /* \"NftStaking.sol\":9390:9431  staker.timeOfLastUpdate = block.timestamp */\n      sstore\n      pop\n        /* \"NftStaking.sol\":9214:9439  function updateRewards(address _staker) internal {... */\n      jump\t// out\n        /* \"NftStaking.sol\":8756:9074  function calculateRewards(address _staker) internal view returns (uint256 _rewards) {... */\n    tag_136:\n      sub(shl(0xa0, 0x01), 0x01)\n        /* \"NftStaking.sol\":8874:8890  stakers[_staker] */\n      dup2\n      and\n        /* \"NftStaking.sol\":8822:8838  uint256 _rewards */\n      0x00\n        /* \"NftStaking.sol\":8874:8890  stakers[_staker] */\n      swap1\n      dup2\n      mstore\n        /* \"NftStaking.sol\":8874:8881  stakers */\n      0x04\n        /* \"NftStaking.sol\":8874:8890  stakers[_staker] */\n      0x20\n      swap1\n      dup2\n      mstore\n      0x40\n      dup1\n      dup4\n      keccak256\n        /* \"NftStaking.sol\":8851:8890  Staker memory staker = stakers[_staker] */\n      dup2\n      mload\n      dup2\n      sload\n      0x80\n      swap5\n      dup2\n      mul\n      dup3\n      add\n      dup6\n      add\n      swap1\n      swap4\n      mstore\n      0x60\n      dup2\n      add\n      dup4\n      dup2\n      mstore\n        /* \"NftStaking.sol\":8822:8838  uint256 _rewards */\n      dup6\n      swap5\n        /* \"NftStaking.sol\":8851:8890  Staker memory staker = stakers[_staker] */\n      swap2\n      swap4\n      dup5\n      swap3\n        /* \"NftStaking.sol\":8874:8890  stakers[_staker] */\n      dup5\n      swap2\n        /* \"NftStaking.sol\":8851:8890  Staker memory staker = stakers[_staker] */\n      swap1\n      dup5\n      add\n        /* \"NftStaking.sol\":8874:8890  stakers[_staker] */\n      dup3\n        /* \"NftStaking.sol\":8851:8890  Staker memory staker = stakers[_staker] */\n      dup3\n      dup1\n      iszero\n      tag_254\n      jumpi\n      0x20\n      mul\n      dup3\n      add\n      swap2\n      swap1\n      0x00\n      mstore\n      keccak256(0x00, 0x20)\n      swap1\n    tag_255:\n      dup2\n      sload\n      dup2\n      mstore\n      0x20\n      add\n      swap1\n      0x01\n      add\n      swap1\n      dup1\n      dup4\n      gt\n      tag_255\n      jumpi\n    tag_254:\n      pop\n      pop\n      pop\n      pop\n      pop\n      dup2\n      mstore\n      0x20\n      add\n      0x01\n      dup3\n      add\n      sload\n      dup2\n      mstore\n      0x20\n      add\n      0x02\n      dup3\n      add\n      sload\n      dup2\n      mstore\n      pop\n      pop\n      swap1\n      pop\n        /* \"NftStaking.sol\":1761:1765  3600 */\n      0x0e10\n        /* \"NftStaking.sol\":9005:9019  rewardsPerHour */\n      sload(0x03)\n        /* \"NftStaking.sol\":8972:8978  staker */\n      dup3\n        /* \"NftStaking.sol\":8972:8993  staker.stakedTokenIds */\n      0x00\n      add\n      mload\n        /* \"NftStaking.sol\":8972:9000  staker.stakedTokenIds.length */\n      mload\n        /* \"NftStaking.sol\":8945:8951  staker */\n      dup4\n        /* \"NftStaking.sol\":8945:8968  staker.timeOfLastUpdate */\n      0x20\n      add\n      mload\n        /* \"NftStaking.sol\":8927:8942  block.timestamp */\n      timestamp\n        /* \"NftStaking.sol\":8927:8968  block.timestamp - staker.timeOfLastUpdate */\n      tag_256\n      swap2\n      swap1\n      tag_102\n      jump\t// in\n    tag_256:\n        /* \"NftStaking.sol\":8926:9000  (block.timestamp - staker.timeOfLastUpdate) * staker.stakedTokenIds.length */\n      tag_257\n      swap2\n      swap1\n      tag_258\n      jump\t// in\n    tag_257:\n        /* \"NftStaking.sol\":8924:9019  (((block.timestamp - staker.timeOfLastUpdate) * staker.stakedTokenIds.length)) * rewardsPerHour */\n      tag_259\n      swap2\n      swap1\n      tag_258\n      jump\t// in\n    tag_259:\n        /* \"NftStaking.sol\":8923:9055  ((((block.timestamp - staker.timeOfLastUpdate) * staker.stakedTokenIds.length)) * rewardsPerHour)... */\n      tag_260\n      swap2\n      swap1\n      tag_261\n      jump\t// in\n    tag_260:\n        /* \"NftStaking.sol\":8901:9066  return (... */\n      swap4\n        /* \"NftStaking.sol\":8756:9074  function calculateRewards(address _staker) internal view returns (uint256 _rewards) {... */\n      swap3\n      pop\n      pop\n      pop\n      jump\t// out\n        /* \"@openzeppelin/contracts/token/ERC20/utils/SafeERC20.sol\":941:1116   */\n    tag_143:\n        /* \"@openzeppelin/contracts/token/ERC20/utils/SafeERC20.sol\":1050:1108   */\n      0x40\n      dup1\n      mload\n      sub(shl(0xa0, 0x01), 0x01)\n        /* \"#utility.yul\":7200:7255   */\n      dup5\n      and\n        /* \"@openzeppelin/contracts/token/ERC20/utils/SafeERC20.sol\":1050:1108   */\n      0x24\n      dup3\n      add\n        /* \"#utility.yul\":7182:7256   */\n      mstore\n        /* \"#utility.yul\":7272:7290   */\n      0x44\n      dup1\n      dup3\n      add\n        /* \"#utility.yul\":7265:7299   */\n      dup5\n      swap1\n      mstore\n        /* \"@openzeppelin/contracts/token/ERC20/utils/SafeERC20.sol\":1050:1108   */\n      dup3\n      mload\n      dup1\n      dup4\n      sub\n      swap1\n      swap2\n      add\n      dup2\n      mstore\n        /* \"#utility.yul\":7155:7173   */\n      0x64\n      swap1\n      swap2\n      add\n        /* \"@openzeppelin/contracts/token/ERC20/utils/SafeERC20.sol\":1050:1108   */\n      swap1\n      swap2\n      mstore\n      0x20\n      dup2\n      add\n      dup1\n      mload\n      0xffffffffffffffffffffffffffffffffffffffffffffffffffffffff\n      and\n      shl(0xe0, 0xa9059cbb)\n      or\n      swap1\n      mstore\n        /* \"@openzeppelin/contracts/token/ERC20/utils/SafeERC20.sol\":1023:1109   */\n      tag_263\n      swap1\n        /* \"@openzeppelin/contracts/token/ERC20/utils/SafeERC20.sol\":1043:1048   */\n      dup5\n      swap1\n        /* \"@openzeppelin/contracts/token/ERC20/utils/SafeERC20.sol\":1023:1042   */\n      tag_266\n        /* \"@openzeppelin/contracts/token/ERC20/utils/SafeERC20.sol\":1023:1109   */\n      jump\t// in\n    tag_263:\n        /* \"@openzeppelin/contracts/token/ERC20/utils/SafeERC20.sol\":941:1116   */\n      pop\n      pop\n      pop\n      jump\t// out\n        /* \"@openzeppelin/contracts/access/Ownable.sol\":1359:1489   */\n    tag_146:\n        /* \"@openzeppelin/contracts/access/Ownable.sol\":1247:1254   */\n      0x00\n        /* \"@openzeppelin/contracts/access/Ownable.sol\":1273:1279   */\n      sload\n      sub(shl(0xa0, 0x01), 0x01)\n      and\n        /* \"@openzeppelin/contracts/utils/Context.sol\":719:729   */\n      caller\n        /* \"@openzeppelin/contracts/access/Ownable.sol\":1422:1445   */\n      eq\n        /* \"@openzeppelin/contracts/access/Ownable.sol\":1414:1482   */\n      tag_148\n      jumpi\n      mload(0x40)\n      shl(0xe5, 0x461bcd)\n      dup2\n      mstore\n        /* \"#utility.yul\":7512:7514   */\n      0x20\n        /* \"@openzeppelin/contracts/access/Ownable.sol\":1414:1482   */\n      0x04\n      dup3\n      add\n        /* \"#utility.yul\":7494:7515   */\n      dup2\n      swap1\n      mstore\n        /* \"#utility.yul\":7531:7549   */\n      0x24\n      dup3\n      add\n        /* \"#utility.yul\":7524:7554   */\n      mstore\n        /* \"#utility.yul\":7590:7624   */\n      0x4f776e61626c653a2063616c6c6572206973206e6f7420746865206f776e6572\n        /* \"#utility.yul\":7570:7588   */\n      0x44\n      dup3\n      add\n        /* \"#utility.yul\":7563:7625   */\n      mstore\n        /* \"#utility.yul\":7642:7660   */\n      0x64\n      add\n        /* \"@openzeppelin/contracts/access/Ownable.sol\":1414:1482   */\n      tag_115\n        /* \"#utility.yul\":7310:7666   */\n      jump\n        /* \"@openzeppelin/contracts/security/Pausable.sol\":2433:2550   */\n    tag_149:\n        /* \"@openzeppelin/contracts/security/Pausable.sol\":1486:1502   */\n      tag_275\n        /* \"@openzeppelin/contracts/security/Pausable.sol\":1486:1500   */\n      tag_276\n        /* \"@openzeppelin/contracts/security/Pausable.sol\":1486:1502   */\n      jump\t// in\n    tag_275:\n        /* \"@openzeppelin/contracts/security/Pausable.sol\":2491:2498   */\n      0x02\n        /* \"@openzeppelin/contracts/security/Pausable.sol\":2491:2506   */\n      dup1\n      sload\n      not(0xff)\n      and\n      swap1\n      sstore\n        /* \"@openzeppelin/contracts/security/Pausable.sol\":2521:2543   */\n      0x5db9ee0a495bf2e6ff9c91a7834c1ba4fdd244a5e8aa4e537bd38aeae4b073aa\n        /* \"@openzeppelin/contracts/utils/Context.sol\":719:729   */\n      caller\n        /* \"@openzeppelin/contracts/security/Pausable.sol\":2530:2542   */\n    tag_278:\n        /* \"@openzeppelin/contracts/security/Pausable.sol\":2521:2543   */\n      mload(0x40)\n      sub(shl(0xa0, 0x01), 0x01)\n        /* \"#utility.yul\":2286:2341   */\n      swap1\n      swap2\n      and\n        /* \"#utility.yul\":2268:2342   */\n      dup2\n      mstore\n        /* \"#utility.yul\":2256:2258   */\n      0x20\n        /* \"#utility.yul\":2241:2259   */\n      add\n        /* \"@openzeppelin/contracts/security/Pausable.sol\":2521:2543   */\n      mload(0x40)\n      dup1\n      swap2\n      sub\n      swap1\n      log1\n        /* \"@openzeppelin/contracts/security/Pausable.sol\":2433:2550   */\n      jump\t// out\n        /* \"NftStaking.sol\":8291:8610  function availableRewards(address _user) internal view returns (uint256 _rewards) {... */\n    tag_152:\n      sub(shl(0xa0, 0x01), 0x01)\n        /* \"NftStaking.sol\":8407:8421  stakers[_user] */\n      dup2\n      and\n        /* \"NftStaking.sol\":8355:8371  uint256 _rewards */\n      0x00\n        /* \"NftStaking.sol\":8407:8421  stakers[_user] */\n      swap1\n      dup2\n      mstore\n        /* \"NftStaking.sol\":8407:8414  stakers */\n      0x04\n        /* \"NftStaking.sol\":8407:8421  stakers[_user] */\n      0x20\n      swap1\n      dup2\n      mstore\n      0x40\n      dup1\n      dup4\n      keccak256\n        /* \"NftStaking.sol\":8384:8421  Staker memory staker = stakers[_user] */\n      dup2\n      mload\n      dup2\n      sload\n      0x80\n      swap5\n      dup2\n      mul\n      dup3\n      add\n      dup6\n      add\n      swap1\n      swap4\n      mstore\n      0x60\n      dup2\n      add\n      dup4\n      dup2\n      mstore\n        /* \"NftStaking.sol\":8355:8371  uint256 _rewards */\n      dup6\n      swap5\n        /* \"NftStaking.sol\":8384:8421  Staker memory staker = stakers[_user] */\n      swap2\n      swap4\n      dup5\n      swap3\n        /* \"NftStaking.sol\":8407:8421  stakers[_user] */\n      dup5\n      swap2\n        /* \"NftStaking.sol\":8384:8421  Staker memory staker = stakers[_user] */\n      swap1\n      dup5\n      add\n        /* \"NftStaking.sol\":8407:8421  stakers[_user] */\n      dup3\n        /* \"NftStaking.sol\":8384:8421  Staker memory staker = stakers[_user] */\n      dup3\n      dup1\n      iszero\n      tag_281\n      jumpi\n      0x20\n      mul\n      dup3\n      add\n      swap2\n      swap1\n      0x00\n      mstore\n      keccak256(0x00, 0x20)\n      swap1\n    tag_282:\n      dup2\n      sload\n      dup2\n      mstore\n      0x20\n      add\n      swap1\n      0x01\n      add\n      swap1\n      dup1\n      dup4\n      gt\n      tag_282\n      jumpi\n    tag_281:\n      pop\n      pop\n      pop\n      pop\n      pop\n      dup2\n      mstore\n      0x20\n      add\n      0x01\n      dup3\n      add\n      sload\n      dup2\n      mstore\n      0x20\n      add\n      0x02\n      dup3\n      add\n      sload\n      dup2\n      mstore\n      pop\n      pop\n      swap1\n      pop\n        /* \"NftStaking.sol\":8438:8444  staker */\n      dup1\n        /* \"NftStaking.sol\":8438:8459  staker.stakedTokenIds */\n      0x00\n      add\n      mload\n        /* \"NftStaking.sol\":8438:8466  staker.stakedTokenIds.length */\n      mload\n        /* \"NftStaking.sol\":8470:8471  0 */\n      0x00\n        /* \"NftStaking.sol\":8438:8471  staker.stakedTokenIds.length == 0 */\n      sub\n        /* \"NftStaking.sol\":8434:8530  if (staker.stakedTokenIds.length == 0) {... */\n      tag_283\n      jumpi\n        /* \"NftStaking.sol\":8495:8518  staker.unclaimedRewards */\n      0x40\n      add\n      mload\n      swap3\n        /* \"NftStaking.sol\":8291:8610  function availableRewards(address _user) internal view returns (uint256 _rewards) {... */\n      swap2\n      pop\n      pop\n      jump\t// out\n        /* \"NftStaking.sol\":8434:8530  if (staker.stakedTokenIds.length == 0) {... */\n    tag_283:\n        /* \"NftStaking.sol\":8579:8602  calculateRewards(_user) */\n      tag_284\n        /* \"NftStaking.sol\":8596:8601  _user */\n      dup4\n        /* \"NftStaking.sol\":8579:8595  calculateRewards */\n      tag_136\n        /* \"NftStaking.sol\":8579:8602  calculateRewards(_user) */\n      jump\t// in\n    tag_284:\n        /* \"NftStaking.sol\":8553:8559  staker */\n      dup2\n        /* \"NftStaking.sol\":8553:8576  staker.unclaimedRewards */\n      0x40\n      add\n      mload\n        /* \"NftStaking.sol\":8553:8602  staker.unclaimedRewards + calculateRewards(_user) */\n      tag_260\n      swap2\n      swap1\n      tag_138\n      jump\t// in\n        /* \"@openzeppelin/contracts/access/Ownable.sol\":2426:2613   */\n    tag_162:\n        /* \"@openzeppelin/contracts/access/Ownable.sol\":2499:2515   */\n      0x00\n        /* \"@openzeppelin/contracts/access/Ownable.sol\":2518:2524   */\n      dup1\n      sload\n      sub(shl(0xa0, 0x01), 0x01)\n        /* \"@openzeppelin/contracts/access/Ownable.sol\":2534:2551   */\n      dup4\n      dup2\n      and\n      not(sub(shl(0xa0, 0x01), 0x01))\n      dup4\n      and\n      dup2\n      or\n      dup5\n      sstore\n        /* \"@openzeppelin/contracts/access/Ownable.sol\":2566:2606   */\n      mload(0x40)\n        /* \"@openzeppelin/contracts/access/Ownable.sol\":2518:2524   */\n      swap2\n      swap1\n      swap3\n      and\n      swap3\n      dup4\n      swap2\n        /* \"@openzeppelin/contracts/access/Ownable.sol\":2566:2606   */\n      0x8be0079c531659141344cd1fd0a4f28419497f9722a3daafe3b4186f6b6457e0\n      swap2\n        /* \"@openzeppelin/contracts/access/Ownable.sol\":2499:2515   */\n      swap1\n        /* \"@openzeppelin/contracts/access/Ownable.sol\":2566:2606   */\n      log3\n        /* \"@openzeppelin/contracts/access/Ownable.sol\":2489:2613   */\n      pop\n        /* \"@openzeppelin/contracts/access/Ownable.sol\":2426:2613   */\n      pop\n      jump\t// out\n        /* \"@openzeppelin/contracts/security/Pausable.sol\":2186:2301   */\n    tag_167:\n        /* \"@openzeppelin/contracts/security/Pausable.sol\":1239:1258   */\n      tag_288\n        /* \"@openzeppelin/contracts/security/Pausable.sol\":1239:1256   */\n      tag_94\n        /* \"@openzeppelin/contracts/security/Pausable.sol\":1239:1258   */\n      jump\t// in\n    tag_288:\n        /* \"@openzeppelin/contracts/security/Pausable.sol\":2245:2252   */\n      0x02\n        /* \"@openzeppelin/contracts/security/Pausable.sol\":2245:2259   */\n      dup1\n      sload\n      not(0xff)\n      and\n        /* \"@openzeppelin/contracts/security/Pausable.sol\":2255:2259   */\n      0x01\n        /* \"@openzeppelin/contracts/security/Pausable.sol\":2245:2259   */\n      or\n      swap1\n      sstore\n        /* \"@openzeppelin/contracts/security/Pausable.sol\":2274:2294   */\n      0x62e78cea01bee320cd4e420270b5ea74000d11b0c9f74754ebdbfc544b05a258\n        /* \"@openzeppelin/contracts/security/Pausable.sol\":2281:2293   */\n      tag_278\n        /* \"@openzeppelin/contracts/utils/Context.sol\":719:729   */\n      caller\n      swap1\n        /* \"@openzeppelin/contracts/utils/Context.sol\":640:736   */\n      jump\n        /* \"@openzeppelin/contracts/security/ReentrancyGuard.sol\":2336:2623   */\n    tag_171:\n        /* \"@openzeppelin/contracts/security/ReentrancyGuard.sol\":1759:1760   */\n      0x02\n        /* \"@openzeppelin/contracts/security/ReentrancyGuard.sol\":2468:2475   */\n      sload(0x01)\n        /* \"@openzeppelin/contracts/security/ReentrancyGuard.sol\":2468:2487   */\n      sub\n        /* \"@openzeppelin/contracts/security/ReentrancyGuard.sol\":2460:2523   */\n      tag_293\n      jumpi\n      mload(0x40)\n      shl(0xe5, 0x461bcd)\n      dup2\n      mstore\n        /* \"#utility.yul\":7873:7875   */\n      0x20\n        /* \"@openzeppelin/contracts/security/ReentrancyGuard.sol\":2460:2523   */\n      0x04\n      dup3\n      add\n        /* \"#utility.yul\":7855:7876   */\n      mstore\n        /* \"#utility.yul\":7912:7914   */\n      0x1f\n        /* \"#utility.yul\":7892:7910   */\n      0x24\n      dup3\n      add\n        /* \"#utility.yul\":7885:7915   */\n      mstore\n        /* \"#utility.yul\":7951:7984   */\n      0x5265656e7472616e637947756172643a207265656e7472616e742063616c6c00\n        /* \"#utility.yul\":7931:7949   */\n      0x44\n      dup3\n      add\n        /* \"#utility.yul\":7924:7985   */\n      mstore\n        /* \"#utility.yul\":8002:8020   */\n      0x64\n      add\n        /* \"@openzeppelin/contracts/security/ReentrancyGuard.sol\":2460:2523   */\n      tag_115\n        /* \"#utility.yul\":7671:8026   */\n      jump\n        /* \"@openzeppelin/contracts/security/ReentrancyGuard.sol\":2460:2523   */\n    tag_293:\n        /* \"@openzeppelin/contracts/security/ReentrancyGuard.sol\":1759:1760   */\n      0x02\n        /* \"@openzeppelin/contracts/security/ReentrancyGuard.sol\":2598:2605   */\n      0x01\n        /* \"@openzeppelin/contracts/security/ReentrancyGuard.sol\":2598:2616   */\n      sstore\n        /* \"@openzeppelin/contracts/security/ReentrancyGuard.sol\":2336:2623   */\n      jump\t// out\n        /* \"@openzeppelin/contracts/token/ERC20/utils/SafeERC20.sol\":5173:5815   */\n    tag_266:\n        /* \"@openzeppelin/contracts/token/ERC20/utils/SafeERC20.sol\":5592:5615   */\n      0x00\n        /* \"@openzeppelin/contracts/token/ERC20/utils/SafeERC20.sol\":5618:5687   */\n      tag_298\n        /* \"@openzeppelin/contracts/token/ERC20/utils/SafeERC20.sol\":5646:5650   */\n      dup3\n        /* \"@openzeppelin/contracts/token/ERC20/utils/SafeERC20.sol\":5618:5687   */\n      mload(0x40)\n      dup1\n      0x40\n      add\n      0x40\n      mstore\n      dup1\n      0x20\n      dup2\n      mstore\n      0x20\n      add\n      0x5361666545524332303a206c6f772d6c6576656c2063616c6c206661696c6564\n      dup2\n      mstore\n      pop\n        /* \"@openzeppelin/contracts/token/ERC20/utils/SafeERC20.sol\":5626:5631   */\n      dup6\n      sub(shl(0xa0, 0x01), 0x01)\n        /* \"@openzeppelin/contracts/token/ERC20/utils/SafeERC20.sol\":5618:5645   */\n      and\n      tag_299\n      swap1\n        /* \"@openzeppelin/contracts/token/ERC20/utils/SafeERC20.sol\":5618:5687   */\n      swap3\n      swap2\n      swap1\n      0xffffffff\n      and\n      jump\t// in\n    tag_298:\n        /* \"@openzeppelin/contracts/token/ERC20/utils/SafeERC20.sol\":5592:5687   */\n      swap1\n      pop\n        /* \"@openzeppelin/contracts/token/ERC20/utils/SafeERC20.sol\":5705:5715   */\n      dup1\n        /* \"@openzeppelin/contracts/token/ERC20/utils/SafeERC20.sol\":5705:5722   */\n      mload\n        /* \"@openzeppelin/contracts/token/ERC20/utils/SafeERC20.sol\":5726:5727   */\n      0x00\n        /* \"@openzeppelin/contracts/token/ERC20/utils/SafeERC20.sol\":5705:5727   */\n      eq\n        /* \"@openzeppelin/contracts/token/ERC20/utils/SafeERC20.sol\":5705:5761   */\n      dup1\n      tag_301\n      jumpi\n      pop\n        /* \"@openzeppelin/contracts/token/ERC20/utils/SafeERC20.sol\":5742:5752   */\n      dup1\n        /* \"@openzeppelin/contracts/token/ERC20/utils/SafeERC20.sol\":5731:5761   */\n      dup1\n      0x20\n      add\n      swap1\n      mload\n      dup2\n      add\n      swap1\n      tag_301\n      swap2\n      swap1\n      tag_302\n      jump\t// in\n    tag_301:\n        /* \"@openzeppelin/contracts/token/ERC20/utils/SafeERC20.sol\":5697:5808   */\n      tag_263\n      jumpi\n      mload(0x40)\n      shl(0xe5, 0x461bcd)\n      dup2\n      mstore\n        /* \"#utility.yul\":8515:8517   */\n      0x20\n        /* \"@openzeppelin/contracts/token/ERC20/utils/SafeERC20.sol\":5697:5808   */\n      0x04\n      dup3\n      add\n        /* \"#utility.yul\":8497:8518   */\n      mstore\n        /* \"#utility.yul\":8554:8556   */\n      0x2a\n        /* \"#utility.yul\":8534:8552   */\n      0x24\n      dup3\n      add\n        /* \"#utility.yul\":8527:8557   */\n      mstore\n        /* \"#utility.yul\":8593:8627   */\n      0x5361666545524332303a204552433230206f7065726174696f6e20646964206e\n        /* \"#utility.yul\":8573:8591   */\n      0x44\n      dup3\n      add\n        /* \"#utility.yul\":8566:8628   */\n      mstore\n        /* \"#utility.yul\":8664:8676   */\n      0x6f74207375636365656400000000000000000000000000000000000000000000\n        /* \"#utility.yul\":8644:8662   */\n      0x64\n      dup3\n      add\n        /* \"#utility.yul\":8637:8677   */\n      mstore\n        /* \"#utility.yul\":8694:8713   */\n      0x84\n      add\n        /* \"@openzeppelin/contracts/token/ERC20/utils/SafeERC20.sol\":5697:5808   */\n      tag_115\n        /* \"#utility.yul\":8313:8719   */\n      jump\n        /* \"@openzeppelin/contracts/security/Pausable.sol\":1945:2051   */\n    tag_276:\n        /* \"@openzeppelin/contracts/security/Pausable.sol\":1685:1692   */\n      and(0xff, sload(0x02))\n        /* \"@openzeppelin/contracts/security/Pausable.sol\":2003:2044   */\n      tag_148\n      jumpi\n      mload(0x40)\n      shl(0xe5, 0x461bcd)\n      dup2\n      mstore\n        /* \"#utility.yul\":8926:8928   */\n      0x20\n        /* \"@openzeppelin/contracts/security/Pausable.sol\":2003:2044   */\n      0x04\n      dup3\n      add\n        /* \"#utility.yul\":8908:8929   */\n      mstore\n        /* \"#utility.yul\":8965:8967   */\n      0x14\n        /* \"#utility.yul\":8945:8963   */\n      0x24\n      dup3\n      add\n        /* \"#utility.yul\":8938:8968   */\n      mstore\n        /* \"#utility.yul\":9004:9026   */\n      0x5061757361626c653a206e6f7420706175736564000000000000000000000000\n        /* \"#utility.yul\":8984:9002   */\n      0x44\n      dup3\n      add\n        /* \"#utility.yul\":8977:9027   */\n      mstore\n        /* \"#utility.yul\":9044:9062   */\n      0x64\n      add\n        /* \"@openzeppelin/contracts/security/Pausable.sol\":2003:2044   */\n      tag_115\n        /* \"#utility.yul\":8724:9068   */\n      jump\n        /* \"@openzeppelin/contracts/utils/Address.sol\":4108:4331   */\n    tag_299:\n        /* \"@openzeppelin/contracts/utils/Address.sol\":4241:4253   */\n      0x60\n        /* \"@openzeppelin/contracts/utils/Address.sol\":4272:4324   */\n      tag_313\n        /* \"@openzeppelin/contracts/utils/Address.sol\":4294:4300   */\n      dup5\n        /* \"@openzeppelin/contracts/utils/Address.sol\":4302:4306   */\n      dup5\n        /* \"@openzeppelin/contracts/utils/Address.sol\":4308:4309   */\n      0x00\n        /* \"@openzeppelin/contracts/utils/Address.sol\":4311:4323   */\n      dup6\n        /* \"@openzeppelin/contracts/utils/Address.sol\":4272:4293   */\n      tag_314\n        /* \"@openzeppelin/contracts/utils/Address.sol\":4272:4324   */\n      jump\t// in\n    tag_313:\n        /* \"@openzeppelin/contracts/utils/Address.sol\":4265:4324   */\n      swap5\n        /* \"@openzeppelin/contracts/utils/Address.sol\":4108:4331   */\n      swap4\n      pop\n      pop\n      pop\n      pop\n      jump\t// out\n        /* \"@openzeppelin/contracts/utils/Address.sol\":5165:5611   */\n    tag_314:\n        /* \"@openzeppelin/contracts/utils/Address.sol\":5330:5342   */\n      0x60\n        /* \"@openzeppelin/contracts/utils/Address.sol\":5387:5392   */\n      dup3\n        /* \"@openzeppelin/contracts/utils/Address.sol\":5362:5383   */\n      selfbalance\n        /* \"@openzeppelin/contracts/utils/Address.sol\":5362:5392   */\n      lt\n      iszero\n        /* \"@openzeppelin/contracts/utils/Address.sol\":5354:5435   */\n      tag_316\n      jumpi\n      mload(0x40)\n      shl(0xe5, 0x461bcd)\n      dup2\n      mstore\n        /* \"#utility.yul\":9275:9277   */\n      0x20\n        /* \"@openzeppelin/contracts/utils/Address.sol\":5354:5435   */\n      0x04\n      dup3\n      add\n        /* \"#utility.yul\":9257:9278   */\n      mstore\n        /* \"#utility.yul\":9314:9316   */\n      0x26\n        /* \"#utility.yul\":9294:9312   */\n      0x24\n      dup3\n      add\n        /* \"#utility.yul\":9287:9317   */\n      mstore\n        /* \"#utility.yul\":9353:9387   */\n      0x416464726573733a20696e73756666696369656e742062616c616e636520666f\n        /* \"#utility.yul\":9333:9351   */\n      0x44\n      dup3\n      add\n        /* \"#utility.yul\":9326:9388   */\n      mstore\n        /* \"#utility.yul\":9424:9432   */\n      0x722063616c6c0000000000000000000000000000000000000000000000000000\n        /* \"#utility.yul\":9404:9422   */\n      0x64\n      dup3\n      add\n        /* \"#utility.yul\":9397:9433   */\n      mstore\n        /* \"#utility.yul\":9450:9469   */\n      0x84\n      add\n        /* \"@openzeppelin/contracts/utils/Address.sol\":5354:5435   */\n      tag_115\n        /* \"#utility.yul\":9073:9475   */\n      jump\n        /* \"@openzeppelin/contracts/utils/Address.sol\":5354:5435   */\n    tag_316:\n        /* \"@openzeppelin/contracts/utils/Address.sol\":5446:5458   */\n      0x00\n        /* \"@openzeppelin/contracts/utils/Address.sol\":5460:5483   */\n      dup1\n        /* \"@openzeppelin/contracts/utils/Address.sol\":5487:5493   */\n      dup7\n      sub(shl(0xa0, 0x01), 0x01)\n        /* \"@openzeppelin/contracts/utils/Address.sol\":5487:5498   */\n      and\n        /* \"@openzeppelin/contracts/utils/Address.sol\":5506:5511   */\n      dup6\n        /* \"@openzeppelin/contracts/utils/Address.sol\":5513:5517   */\n      dup8\n        /* \"@openzeppelin/contracts/utils/Address.sol\":5487:5518   */\n      mload(0x40)\n      tag_319\n      swap2\n      swap1\n      tag_320\n      jump\t// in\n    tag_319:\n      0x00\n      mload(0x40)\n      dup1\n      dup4\n      sub\n      dup2\n      dup6\n      dup8\n      gas\n      call\n      swap3\n      pop\n      pop\n      pop\n      returndatasize\n      dup1\n      0x00\n      dup2\n      eq\n      tag_323\n      jumpi\n      mload(0x40)\n      swap2\n      pop\n      and(add(returndatasize, 0x3f), not(0x1f))\n      dup3\n      add\n      0x40\n      mstore\n      returndatasize\n      dup3\n      mstore\n      returndatasize\n      0x00\n      0x20\n      dup5\n      add\n      returndatacopy\n      jump(tag_322)\n    tag_323:\n      0x60\n      swap2\n      pop\n    tag_322:\n      pop\n        /* \"@openzeppelin/contracts/utils/Address.sol\":5445:5518   */\n      swap2\n      pop\n      swap2\n      pop\n        /* \"@openzeppelin/contracts/utils/Address.sol\":5535:5604   */\n      tag_324\n        /* \"@openzeppelin/contracts/utils/Address.sol\":5562:5568   */\n      dup8\n        /* \"@openzeppelin/contracts/utils/Address.sol\":5570:5577   */\n      dup4\n        /* \"@openzeppelin/contracts/utils/Address.sol\":5579:5589   */\n      dup4\n        /* \"@openzeppelin/contracts/utils/Address.sol\":5591:5603   */\n      dup8\n        /* \"@openzeppelin/contracts/utils/Address.sol\":5535:5561   */\n      tag_325\n        /* \"@openzeppelin/contracts/utils/Address.sol\":5535:5604   */\n      jump\t// in\n    tag_324:\n        /* \"@openzeppelin/contracts/utils/Address.sol\":5528:5604   */\n      swap8\n        /* \"@openzeppelin/contracts/utils/Address.sol\":5165:5611   */\n      swap7\n      pop\n      pop\n      pop\n      pop\n      pop\n      pop\n      pop\n      jump\t// out\n        /* \"@openzeppelin/contracts/utils/Address.sol\":7671:8299   */\n    tag_325:\n        /* \"@openzeppelin/contracts/utils/Address.sol\":7851:7863   */\n      0x60\n        /* \"@openzeppelin/contracts/utils/Address.sol\":7879:7886   */\n      dup4\n        /* \"@openzeppelin/contracts/utils/Address.sol\":7875:8293   */\n      iszero\n      tag_327\n      jumpi\n        /* \"@openzeppelin/contracts/utils/Address.sol\":7906:7916   */\n      dup3\n        /* \"@openzeppelin/contracts/utils/Address.sol\":7906:7923   */\n      mload\n        /* \"@openzeppelin/contracts/utils/Address.sol\":7927:7928   */\n      0x00\n        /* \"@openzeppelin/contracts/utils/Address.sol\":7906:7928   */\n      sub\n        /* \"@openzeppelin/contracts/utils/Address.sol\":7902:8188   */\n      tag_331\n      jumpi\n      sub(shl(0xa0, 0x01), 0x01)\n        /* \"@openzeppelin/contracts/utils/Address.sol\":1702:1721   */\n      dup6\n      and\n      extcodesize\n        /* \"@openzeppelin/contracts/utils/Address.sol\":8113:8173   */\n      tag_331\n      jumpi\n      mload(0x40)\n      shl(0xe5, 0x461bcd)\n      dup2\n      mstore\n        /* \"#utility.yul\":10229:10231   */\n      0x20\n        /* \"@openzeppelin/contracts/utils/Address.sol\":8113:8173   */\n      0x04\n      dup3\n      add\n        /* \"#utility.yul\":10211:10232   */\n      mstore\n        /* \"#utility.yul\":10268:10270   */\n      0x1d\n        /* \"#utility.yul\":10248:10266   */\n      0x24\n      dup3\n      add\n        /* \"#utility.yul\":10241:10271   */\n      mstore\n        /* \"#utility.yul\":10307:10338   */\n      0x416464726573733a2063616c6c20746f206e6f6e2d636f6e7472616374000000\n        /* \"#utility.yul\":10287:10305   */\n      0x44\n      dup3\n      add\n        /* \"#utility.yul\":10280:10339   */\n      mstore\n        /* \"#utility.yul\":10356:10374   */\n      0x64\n      add\n        /* \"@openzeppelin/contracts/utils/Address.sol\":8113:8173   */\n      tag_115\n        /* \"#utility.yul\":10027:10380   */\n      jump\n        /* \"@openzeppelin/contracts/utils/Address.sol\":8113:8173   */\n    tag_331:\n      pop\n        /* \"@openzeppelin/contracts/utils/Address.sol\":8208:8218   */\n      dup2\n        /* \"@openzeppelin/contracts/utils/Address.sol\":8201:8218   */\n      jump(tag_313)\n        /* \"@openzeppelin/contracts/utils/Address.sol\":7875:8293   */\n    tag_327:\n        /* \"@openzeppelin/contracts/utils/Address.sol\":8249:8282   */\n      tag_313\n        /* \"@openzeppelin/contracts/utils/Address.sol\":8257:8267   */\n      dup4\n        /* \"@openzeppelin/contracts/utils/Address.sol\":8269:8281   */\n      dup4\n        /* \"@openzeppelin/contracts/utils/Address.sol\":8980:8997   */\n      dup2\n      mload\n        /* \"@openzeppelin/contracts/utils/Address.sol\":8980:9001   */\n      iszero\n        /* \"@openzeppelin/contracts/utils/Address.sol\":8976:9355   */\n      tag_339\n      jumpi\n        /* \"@openzeppelin/contracts/utils/Address.sol\":9208:9218   */\n      dup2\n        /* \"@openzeppelin/contracts/utils/Address.sol\":9202:9219   */\n      mload\n        /* \"@openzeppelin/contracts/utils/Address.sol\":9264:9279   */\n      dup1\n        /* \"@openzeppelin/contracts/utils/Address.sol\":9251:9261   */\n      dup4\n        /* \"@openzeppelin/contracts/utils/Address.sol\":9247:9249   */\n      0x20\n        /* \"@openzeppelin/contracts/utils/Address.sol\":9243:9262   */\n      add\n        /* \"@openzeppelin/contracts/utils/Address.sol\":9236:9280   */\n      revert\n        /* \"@openzeppelin/contracts/utils/Address.sol\":8976:9355   */\n    tag_339:\n        /* \"@openzeppelin/contracts/utils/Address.sol\":9331:9343   */\n      dup1\n        /* \"@openzeppelin/contracts/utils/Address.sol\":9324:9344   */\n      mload(0x40)\n      shl(0xe5, 0x461bcd)\n      dup2\n      mstore\n      0x04\n      add\n      tag_115\n      swap2\n      swap1\n      tag_342\n      jump\t// in\n        /* \"#utility.yul\":14:629   */\n    tag_28:\n        /* \"#utility.yul\":100:106   */\n      0x00\n        /* \"#utility.yul\":108:114   */\n      dup1\n        /* \"#utility.yul\":161:163   */\n      0x20\n        /* \"#utility.yul\":149:158   */\n      dup4\n        /* \"#utility.yul\":140:147   */\n      dup6\n        /* \"#utility.yul\":136:159   */\n      sub\n        /* \"#utility.yul\":132:164   */\n      slt\n        /* \"#utility.yul\":129:181   */\n      iszero\n      tag_348\n      jumpi\n        /* \"#utility.yul\":177:178   */\n      0x00\n        /* \"#utility.yul\":174:175   */\n      dup1\n        /* \"#utility.yul\":167:179   */\n      revert\n        /* \"#utility.yul\":129:181   */\n    tag_348:\n        /* \"#utility.yul\":217:226   */\n      dup3\n        /* \"#utility.yul\":204:227   */\n      calldataload\n        /* \"#utility.yul\":246:264   */\n      0xffffffffffffffff\n        /* \"#utility.yul\":287:289   */\n      dup1\n        /* \"#utility.yul\":279:285   */\n      dup3\n        /* \"#utility.yul\":276:290   */\n      gt\n        /* \"#utility.yul\":273:307   */\n      iszero\n      tag_349\n      jumpi\n        /* \"#utility.yul\":303:304   */\n      0x00\n        /* \"#utility.yul\":300:301   */\n      dup1\n        /* \"#utility.yul\":293:305   */\n      revert\n        /* \"#utility.yul\":273:307   */\n    tag_349:\n        /* \"#utility.yul\":341:347   */\n      dup2\n        /* \"#utility.yul\":330:339   */\n      dup6\n        /* \"#utility.yul\":326:348   */\n      add\n        /* \"#utility.yul\":316:348   */\n      swap2\n      pop\n        /* \"#utility.yul\":386:393   */\n      dup6\n        /* \"#utility.yul\":379:383   */\n      0x1f\n        /* \"#utility.yul\":375:377   */\n      dup4\n        /* \"#utility.yul\":371:384   */\n      add\n        /* \"#utility.yul\":367:394   */\n      slt\n        /* \"#utility.yul\":357:412   */\n      tag_350\n      jumpi\n        /* \"#utility.yul\":408:409   */\n      0x00\n        /* \"#utility.yul\":405:406   */\n      dup1\n        /* \"#utility.yul\":398:410   */\n      revert\n        /* \"#utility.yul\":357:412   */\n    tag_350:\n        /* \"#utility.yul\":448:450   */\n      dup2\n        /* \"#utility.yul\":435:451   */\n      calldataload\n        /* \"#utility.yul\":474:476   */\n      dup2\n        /* \"#utility.yul\":466:472   */\n      dup2\n        /* \"#utility.yul\":463:477   */\n      gt\n        /* \"#utility.yul\":460:494   */\n      iszero\n      tag_351\n      jumpi\n        /* \"#utility.yul\":490:491   */\n      0x00\n        /* \"#utility.yul\":487:488   */\n      dup1\n        /* \"#utility.yul\":480:492   */\n      revert\n        /* \"#utility.yul\":460:494   */\n    tag_351:\n        /* \"#utility.yul\":543:550   */\n      dup7\n        /* \"#utility.yul\":538:540   */\n      0x20\n        /* \"#utility.yul\":528:534   */\n      dup3\n        /* \"#utility.yul\":525:526   */\n      0x05\n        /* \"#utility.yul\":521:535   */\n      shl\n        /* \"#utility.yul\":517:519   */\n      dup6\n        /* \"#utility.yul\":513:536   */\n      add\n        /* \"#utility.yul\":509:541   */\n      add\n        /* \"#utility.yul\":506:551   */\n      gt\n        /* \"#utility.yul\":503:568   */\n      iszero\n      tag_352\n      jumpi\n        /* \"#utility.yul\":564:565   */\n      0x00\n        /* \"#utility.yul\":561:562   */\n      dup1\n        /* \"#utility.yul\":554:566   */\n      revert\n        /* \"#utility.yul\":503:568   */\n    tag_352:\n        /* \"#utility.yul\":595:597   */\n      0x20\n        /* \"#utility.yul\":587:598   */\n      swap3\n      swap1\n      swap3\n      add\n      swap7\n        /* \"#utility.yul\":617:623   */\n      swap2\n      swap6\n      pop\n        /* \"#utility.yul\":14:629   */\n      swap1\n      swap4\n      pop\n      pop\n      pop\n      pop\n      jump\t// out\n        /* \"#utility.yul\":634:788   */\n    tag_343:\n      sub(shl(0xa0, 0x01), 0x01)\n        /* \"#utility.yul\":713:718   */\n      dup2\n        /* \"#utility.yul\":709:763   */\n      and\n        /* \"#utility.yul\":702:707   */\n      dup2\n        /* \"#utility.yul\":699:764   */\n      eq\n        /* \"#utility.yul\":689:782   */\n      tag_244\n      jumpi\n        /* \"#utility.yul\":778:779   */\n      0x00\n        /* \"#utility.yul\":775:776   */\n      dup1\n        /* \"#utility.yul\":768:780   */\n      revert\n        /* \"#utility.yul\":793:1040   */\n    tag_36:\n        /* \"#utility.yul\":852:858   */\n      0x00\n        /* \"#utility.yul\":905:907   */\n      0x20\n        /* \"#utility.yul\":893:902   */\n      dup3\n        /* \"#utility.yul\":884:891   */\n      dup5\n        /* \"#utility.yul\":880:903   */\n      sub\n        /* \"#utility.yul\":876:908   */\n      slt\n        /* \"#utility.yul\":873:925   */\n      iszero\n      tag_356\n      jumpi\n        /* \"#utility.yul\":921:922   */\n      0x00\n        /* \"#utility.yul\":918:919   */\n      dup1\n        /* \"#utility.yul\":911:923   */\n      revert\n        /* \"#utility.yul\":873:925   */\n    tag_356:\n        /* \"#utility.yul\":960:969   */\n      dup2\n        /* \"#utility.yul\":947:970   */\n      calldataload\n        /* \"#utility.yul\":979:1010   */\n      tag_260\n        /* \"#utility.yul\":1004:1009   */\n      dup2\n        /* \"#utility.yul\":979:1010   */\n      tag_343\n      jump\t// in\n        /* \"#utility.yul\":1045:1750   */\n    tag_39:\n        /* \"#utility.yul\":1263:1265   */\n      0x40\n        /* \"#utility.yul\":1275:1296   */\n      dup1\n      dup3\n      mstore\n        /* \"#utility.yul\":1345:1358   */\n      dup4\n      mload\n        /* \"#utility.yul\":1248:1266   */\n      swap1\n      dup3\n      add\n        /* \"#utility.yul\":1367:1389   */\n      dup2\n      swap1\n      mstore\n        /* \"#utility.yul\":1215:1219   */\n      0x00\n      swap1\n        /* \"#utility.yul\":1442:1446   */\n      0x20\n      swap1\n        /* \"#utility.yul\":1420:1422   */\n      0x60\n        /* \"#utility.yul\":1405:1423   */\n      dup5\n      add\n      swap1\n        /* \"#utility.yul\":1469:1484   */\n      dup3\n      dup8\n      add\n        /* \"#utility.yul\":1215:1219   */\n      dup5\n        /* \"#utility.yul\":1512:1681   */\n    tag_359:\n        /* \"#utility.yul\":1526:1532   */\n      dup3\n        /* \"#utility.yul\":1523:1524   */\n      dup2\n        /* \"#utility.yul\":1520:1533   */\n      lt\n        /* \"#utility.yul\":1512:1681   */\n      iszero\n      tag_361\n      jumpi\n        /* \"#utility.yul\":1587:1600   */\n      dup2\n      mload\n        /* \"#utility.yul\":1575:1601   */\n      dup5\n      mstore\n        /* \"#utility.yul\":1621:1633   */\n      swap3\n      dup5\n      add\n      swap3\n        /* \"#utility.yul\":1656:1671   */\n      swap1\n      dup5\n      add\n      swap1\n        /* \"#utility.yul\":1548:1549   */\n      0x01\n        /* \"#utility.yul\":1541:1550   */\n      add\n        /* \"#utility.yul\":1512:1681   */\n      jump(tag_359)\n    tag_361:\n      pop\n      pop\n      pop\n        /* \"#utility.yul\":1717:1735   */\n      swap3\n      add\n        /* \"#utility.yul\":1710:1744   */\n      swap3\n      swap1\n      swap3\n      mstore\n        /* \"#utility.yul\":1698:1701   */\n      swap3\n        /* \"#utility.yul\":1045:1750   */\n      swap2\n      pop\n      pop\n      jump\t// out\n        /* \"#utility.yul\":1755:1935   */\n    tag_42:\n        /* \"#utility.yul\":1814:1820   */\n      0x00\n        /* \"#utility.yul\":1867:1869   */\n      0x20\n        /* \"#utility.yul\":1855:1864   */\n      dup3\n        /* \"#utility.yul\":1846:1853   */\n      dup5\n        /* \"#utility.yul\":1842:1865   */\n      sub\n        /* \"#utility.yul\":1838:1870   */\n      slt\n        /* \"#utility.yul\":1835:1887   */\n      iszero\n      tag_363\n      jumpi\n        /* \"#utility.yul\":1883:1884   */\n      0x00\n        /* \"#utility.yul\":1880:1881   */\n      dup1\n        /* \"#utility.yul\":1873:1885   */\n      revert\n        /* \"#utility.yul\":1835:1887   */\n    tag_363:\n      pop\n        /* \"#utility.yul\":1906:1929   */\n      calldataload\n      swap2\n        /* \"#utility.yul\":1755:1935   */\n      swap1\n      pop\n      jump\t// out\n        /* \"#utility.yul\":3290:3417   */\n    tag_344:\n        /* \"#utility.yul\":3351:3361   */\n      0x4e487b71\n        /* \"#utility.yul\":3346:3349   */\n      0xe0\n        /* \"#utility.yul\":3342:3362   */\n      shl\n        /* \"#utility.yul\":3339:3340   */\n      0x00\n        /* \"#utility.yul\":3332:3363   */\n      mstore\n        /* \"#utility.yul\":3382:3386   */\n      0x11\n        /* \"#utility.yul\":3379:3380   */\n      0x04\n        /* \"#utility.yul\":3372:3387   */\n      mstore\n        /* \"#utility.yul\":3406:3410   */\n      0x24\n        /* \"#utility.yul\":3403:3404   */\n      0x00\n        /* \"#utility.yul\":3396:3411   */\n      revert\n        /* \"#utility.yul\":3422:3550   */\n    tag_102:\n        /* \"#utility.yul\":3489:3498   */\n      dup2\n      dup2\n      sub\n        /* \"#utility.yul\":3510:3521   */\n      dup2\n      dup2\n      gt\n        /* \"#utility.yul\":3507:3544   */\n      iszero\n      tag_373\n      jumpi\n        /* \"#utility.yul\":3524:3542   */\n      tag_373\n      tag_344\n      jump\t// in\n    tag_373:\n        /* \"#utility.yul\":3422:3550   */\n      swap3\n      swap2\n      pop\n      pop\n      jump\t// out\n        /* \"#utility.yul\":3555:3682   */\n    tag_108:\n        /* \"#utility.yul\":3616:3626   */\n      0x4e487b71\n        /* \"#utility.yul\":3611:3614   */\n      0xe0\n        /* \"#utility.yul\":3607:3627   */\n      shl\n        /* \"#utility.yul\":3604:3605   */\n      0x00\n        /* \"#utility.yul\":3597:3628   */\n      mstore\n        /* \"#utility.yul\":3647:3651   */\n      0x32\n        /* \"#utility.yul\":3644:3645   */\n      0x04\n        /* \"#utility.yul\":3637:3652   */\n      mstore\n        /* \"#utility.yul\":3671:3675   */\n      0x24\n        /* \"#utility.yul\":3668:3669   */\n      0x00\n        /* \"#utility.yul\":3661:3676   */\n      revert\n        /* \"#utility.yul\":3687:3938   */\n    tag_113:\n        /* \"#utility.yul\":3757:3763   */\n      0x00\n        /* \"#utility.yul\":3810:3812   */\n      0x20\n        /* \"#utility.yul\":3798:3807   */\n      dup3\n        /* \"#utility.yul\":3789:3796   */\n      dup5\n        /* \"#utility.yul\":3785:3808   */\n      sub\n        /* \"#utility.yul\":3781:3813   */\n      slt\n        /* \"#utility.yul\":3778:3830   */\n      iszero\n      tag_376\n      jumpi\n        /* \"#utility.yul\":3826:3827   */\n      0x00\n        /* \"#utility.yul\":3823:3824   */\n      dup1\n        /* \"#utility.yul\":3816:3828   */\n      revert\n        /* \"#utility.yul\":3778:3830   */\n    tag_376:\n        /* \"#utility.yul\":3858:3867   */\n      dup2\n        /* \"#utility.yul\":3852:3868   */\n      mload\n        /* \"#utility.yul\":3877:3908   */\n      tag_260\n        /* \"#utility.yul\":3902:3907   */\n      dup2\n        /* \"#utility.yul\":3877:3908   */\n      tag_343\n      jump\t// in\n        /* \"#utility.yul\":4748:4883   */\n    tag_133:\n        /* \"#utility.yul\":4787:4790   */\n      0x00\n        /* \"#utility.yul\":4808:4825   */\n      0x01\n      dup3\n      add\n        /* \"#utility.yul\":4805:4848   */\n      tag_382\n      jumpi\n        /* \"#utility.yul\":4828:4846   */\n      tag_382\n      tag_344\n      jump\t// in\n    tag_382:\n      pop\n        /* \"#utility.yul\":4875:4876   */\n      0x01\n        /* \"#utility.yul\":4864:4877   */\n      add\n      swap1\n        /* \"#utility.yul\":4748:4883   */\n      jump\t// out\n        /* \"#utility.yul\":4888:5013   */\n    tag_138:\n        /* \"#utility.yul\":4953:4962   */\n      dup1\n      dup3\n      add\n        /* \"#utility.yul\":4974:4984   */\n      dup1\n      dup3\n      gt\n        /* \"#utility.yul\":4971:5007   */\n      iszero\n      tag_373\n      jumpi\n        /* \"#utility.yul\":4987:5005   */\n      tag_373\n      tag_344\n      jump\t// in\n        /* \"#utility.yul\":5729:5856   */\n    tag_198:\n        /* \"#utility.yul\":5790:5800   */\n      0x4e487b71\n        /* \"#utility.yul\":5785:5788   */\n      0xe0\n        /* \"#utility.yul\":5781:5801   */\n      shl\n        /* \"#utility.yul\":5778:5779   */\n      0x00\n        /* \"#utility.yul\":5771:5802   */\n      mstore\n        /* \"#utility.yul\":5821:5825   */\n      0x31\n        /* \"#utility.yul\":5818:5819   */\n      0x04\n        /* \"#utility.yul\":5811:5826   */\n      mstore\n        /* \"#utility.yul\":5845:5849   */\n      0x24\n        /* \"#utility.yul\":5842:5843   */\n      0x00\n        /* \"#utility.yul\":5835:5850   */\n      revert\n        /* \"#utility.yul\":6613:6781   */\n    tag_258:\n        /* \"#utility.yul\":6686:6695   */\n      dup1\n      dup3\n      mul\n        /* \"#utility.yul\":6717:6726   */\n      dup2\n      iszero\n        /* \"#utility.yul\":6734:6749   */\n      dup3\n      dup3\n      div\n        /* \"#utility.yul\":6728:6750   */\n      dup5\n      eq\n        /* \"#utility.yul\":6714:6751   */\n      or\n        /* \"#utility.yul\":6704:6775   */\n      tag_373\n      jumpi\n        /* \"#utility.yul\":6755:6773   */\n      tag_373\n      tag_344\n      jump\t// in\n        /* \"#utility.yul\":6786:7003   */\n    tag_261:\n        /* \"#utility.yul\":6826:6827   */\n      0x00\n        /* \"#utility.yul\":6852:6853   */\n      dup3\n        /* \"#utility.yul\":6842:6974   */\n      tag_395\n      jumpi\n        /* \"#utility.yul\":6896:6906   */\n      0x4e487b71\n        /* \"#utility.yul\":6891:6894   */\n      0xe0\n        /* \"#utility.yul\":6887:6907   */\n      shl\n        /* \"#utility.yul\":6884:6885   */\n      0x00\n        /* \"#utility.yul\":6877:6908   */\n      mstore\n        /* \"#utility.yul\":6931:6935   */\n      0x12\n        /* \"#utility.yul\":6928:6929   */\n      0x04\n        /* \"#utility.yul\":6921:6936   */\n      mstore\n        /* \"#utility.yul\":6959:6963   */\n      0x24\n        /* \"#utility.yul\":6956:6957   */\n      0x00\n        /* \"#utility.yul\":6949:6964   */\n      revert\n        /* \"#utility.yul\":6842:6974   */\n    tag_395:\n      pop\n        /* \"#utility.yul\":6988:6997   */\n      div\n      swap1\n        /* \"#utility.yul\":6786:7003   */\n      jump\t// out\n        /* \"#utility.yul\":8031:8308   */\n    tag_302:\n        /* \"#utility.yul\":8098:8104   */\n      0x00\n        /* \"#utility.yul\":8151:8153   */\n      0x20\n        /* \"#utility.yul\":8139:8148   */\n      dup3\n        /* \"#utility.yul\":8130:8137   */\n      dup5\n        /* \"#utility.yul\":8126:8149   */\n      sub\n        /* \"#utility.yul\":8122:8154   */\n      slt\n        /* \"#utility.yul\":8119:8171   */\n      iszero\n      tag_400\n      jumpi\n        /* \"#utility.yul\":8167:8168   */\n      0x00\n        /* \"#utility.yul\":8164:8165   */\n      dup1\n        /* \"#utility.yul\":8157:8169   */\n      revert\n        /* \"#utility.yul\":8119:8171   */\n    tag_400:\n        /* \"#utility.yul\":8199:8208   */\n      dup2\n        /* \"#utility.yul\":8193:8209   */\n      mload\n        /* \"#utility.yul\":8252:8257   */\n      dup1\n        /* \"#utility.yul\":8245:8258   */\n      iszero\n        /* \"#utility.yul\":8238:8259   */\n      iszero\n        /* \"#utility.yul\":8231:8236   */\n      dup2\n        /* \"#utility.yul\":8228:8260   */\n      eq\n        /* \"#utility.yul\":8218:8278   */\n      tag_260\n      jumpi\n        /* \"#utility.yul\":8274:8275   */\n      0x00\n        /* \"#utility.yul\":8271:8272   */\n      dup1\n        /* \"#utility.yul\":8264:8276   */\n      revert\n        /* \"#utility.yul\":9480:9730   */\n    tag_345:\n        /* \"#utility.yul\":9565:9566   */\n      0x00\n        /* \"#utility.yul\":9575:9688   */\n    tag_406:\n        /* \"#utility.yul\":9589:9595   */\n      dup4\n        /* \"#utility.yul\":9586:9587   */\n      dup2\n        /* \"#utility.yul\":9583:9596   */\n      lt\n        /* \"#utility.yul\":9575:9688   */\n      iszero\n      tag_408\n      jumpi\n        /* \"#utility.yul\":9665:9676   */\n      dup2\n      dup2\n      add\n        /* \"#utility.yul\":9659:9677   */\n      mload\n        /* \"#utility.yul\":9646:9657   */\n      dup4\n      dup3\n      add\n        /* \"#utility.yul\":9639:9678   */\n      mstore\n        /* \"#utility.yul\":9611:9613   */\n      0x20\n        /* \"#utility.yul\":9604:9614   */\n      add\n        /* \"#utility.yul\":9575:9688   */\n      jump(tag_406)\n    tag_408:\n      pop\n      pop\n        /* \"#utility.yul\":9722:9723   */\n      0x00\n        /* \"#utility.yul\":9704:9720   */\n      swap2\n      add\n        /* \"#utility.yul\":9697:9724   */\n      mstore\n        /* \"#utility.yul\":9480:9730   */\n      jump\t// out\n        /* \"#utility.yul\":9735:10022   */\n    tag_320:\n        /* \"#utility.yul\":9864:9867   */\n      0x00\n        /* \"#utility.yul\":9902:9908   */\n      dup3\n        /* \"#utility.yul\":9896:9909   */\n      mload\n        /* \"#utility.yul\":9918:9984   */\n      tag_410\n        /* \"#utility.yul\":9977:9983   */\n      dup2\n        /* \"#utility.yul\":9972:9975   */\n      dup5\n        /* \"#utility.yul\":9965:9969   */\n      0x20\n        /* \"#utility.yul\":9957:9963   */\n      dup8\n        /* \"#utility.yul\":9953:9970   */\n      add\n        /* \"#utility.yul\":9918:9984   */\n      tag_345\n      jump\t// in\n    tag_410:\n        /* \"#utility.yul\":10000:10016   */\n      swap2\n      swap1\n      swap2\n      add\n      swap3\n        /* \"#utility.yul\":9735:10022   */\n      swap2\n      pop\n      pop\n      jump\t// out\n        /* \"#utility.yul\":10385:10781   */\n    tag_342:\n        /* \"#utility.yul\":10534:10536   */\n      0x20\n        /* \"#utility.yul\":10523:10532   */\n      dup2\n        /* \"#utility.yul\":10516:10537   */\n      mstore\n        /* \"#utility.yul\":10497:10501   */\n      0x00\n        /* \"#utility.yul\":10566:10572   */\n      dup3\n        /* \"#utility.yul\":10560:10573   */\n      mload\n        /* \"#utility.yul\":10609:10615   */\n      dup1\n        /* \"#utility.yul\":10604:10606   */\n      0x20\n        /* \"#utility.yul\":10593:10602   */\n      dup5\n        /* \"#utility.yul\":10589:10607   */\n      add\n        /* \"#utility.yul\":10582:10616   */\n      mstore\n        /* \"#utility.yul\":10625:10704   */\n      tag_413\n        /* \"#utility.yul\":10697:10703   */\n      dup2\n        /* \"#utility.yul\":10692:10694   */\n      0x40\n        /* \"#utility.yul\":10681:10690   */\n      dup6\n        /* \"#utility.yul\":10677:10695   */\n      add\n        /* \"#utility.yul\":10672:10674   */\n      0x20\n        /* \"#utility.yul\":10664:10670   */\n      dup8\n        /* \"#utility.yul\":10660:10675   */\n      add\n        /* \"#utility.yul\":10625:10704   */\n      tag_345\n      jump\t// in\n    tag_413:\n        /* \"#utility.yul\":10765:10767   */\n      0x1f\n        /* \"#utility.yul\":10744:10759   */\n      add\n      not(0x1f)\n        /* \"#utility.yul\":10740:10769   */\n      and\n        /* \"#utility.yul\":10725:10770   */\n      swap2\n      swap1\n      swap2\n      add\n        /* \"#utility.yul\":10772:10774   */\n      0x40\n        /* \"#utility.yul\":10721:10775   */\n      add\n      swap3\n        /* \"#utility.yul\":10385:10781   */\n      swap2\n      pop\n      pop\n      jump\t// out\n\n    auxdata: 0xa2646970667358221220fa885dfc25bb7ea4ef8465d218ec40b38899dd69142a615b7af86b5f8a4208ec64736f6c63430008110033\n}\n",
    "bytecode": {
      "linkReferences": {},
      "object": "60c0604052670de0b6b3a76400006003553480156200001d57600080fd5b5060405162001842380380620018428339810160408190526200004091620000da565b6200004b3362000071565b600180556002805460ff191690556001600160a01b0391821660a0521660805262000119565b600080546001600160a01b038381166001600160a01b0319831681178455604051919092169283917f8be0079c531659141344cd1fd0a4f28419497f9722a3daafe3b4186f6b6457e09190a35050565b6001600160a01b0381168114620000d757600080fd5b50565b60008060408385031215620000ee57600080fd5b8251620000fb81620000c1565b60208401519092506200010e81620000c1565b809150509250929050565b60805160a0516116e76200015b600039600081816101fe015281816103cb015281816104d70152610a040152600081816102f4015261071101526116e76000f3fe608060405234801561001057600080fd5b50600436106101365760003560e01c80638456cb59116100b2578063983d95ce11610081578063c1030da411610066578063c1030da4146102cf578063d1af0c7d146102ef578063f2fde38b1461031657600080fd5b8063983d95ce146102a9578063b5a5e509146102bc57600080fd5b80638456cb59146102285780638da5cb5b146102305780639168ae7214610241578063940670451461028057600080fd5b806350df1e02116101095780635c975abb116100ee5780635c975abb146101e35780636588103b146101f9578063715018a61461022057600080fd5b806350df1e021461018a5780635357e916146101b857600080fd5b80630fbf0a931461013b578063372500ab146101505780633f4ba83a146101585780634ead432714610160575b600080fd5b61014e610149366004611437565b610329565b005b61014e61067c565b61014e61073c565b61017361016e3660046114c1565b61074e565b6040516101819291906114de565b60405180910390f35b6101aa610198366004611526565b60086020526000908152604090205481565b604051908152602001610181565b6101cb6101c6366004611526565b6107ca565b6040516001600160a01b039091168152602001610181565b60025460ff166040519015158152602001610181565b6101cb7f000000000000000000000000000000000000000000000000000000000000000081565b61014e6107f4565b61014e610806565b6000546001600160a01b03166101cb565b61026b61024f3660046114c1565b6004602052600090815260409020600181015460029091015482565b60408051928352602083019190915201610181565b6101cb61028e366004611526565b6005602052600090815260409020546001600160a01b031681565b61014e6102b7366004611437565b610816565b61014e6102ca366004611526565b610c00565b6101aa6102dd3660046114c1565b60076020526000908152604090205481565b6101cb7f000000000000000000000000000000000000000000000000000000000000000081565b61014e6103243660046114c1565b610cb0565b610331610d40565b3360009081526004602052604090208054156103555761035033610d93565b6103bc565b600680546001818101835560008390527ff652222313e28459528d920b65115c16c04f3efc82aaedc97be59f3f377c0d3f90910180546001600160a01b0319163317905590546103a59190611555565b336000908152600760205260409020554260018201555b8160005b8181101561067557337f00000000000000000000000000000000000000000000000000000000000000006001600160a01b0316636352211e87878581811061040a5761040a61156e565b905060200201356040518263ffffffff1660e01b815260040161042f91815260200190565b602060405180830381865afa15801561044c573d6000803e3d6000fd5b505050506040513d601f19601f820116820180604052508101906104709190611584565b6001600160a01b0316146104d55760405162461bcd60e51b815260206004820152602160248201527f43616e2774207374616b6520746f6b656e7320796f7520646f6e2774206f776e6044820152602160f81b60648201526084015b60405180910390fd5b7f00000000000000000000000000000000000000000000000000000000000000006001600160a01b03166323b872dd33308888868181106105185761051861156e565b6040517fffffffff0000000000000000000000000000000000000000000000000000000060e088901b1681526001600160a01b03958616600482015294909316602485015250602090910201356044820152606401600060405180830381600087803b15801561058757600080fd5b505af115801561059b573d6000803e3d6000fd5b50505050826000018585838181106105b5576105b561156e565b83546001808201865560009586526020958690209290950293909301359201919091555083546105e59190611555565b600860008787858181106105fb576105fb61156e565b90506020020135815260200190815260200160002081905550336005600087878581811061062b5761062b61156e565b90506020020135815260200190815260200160002060006101000a8154816001600160a01b0302191690836001600160a01b031602179055508061066e906115a1565b90506103c0565b5050505050565b3360008181526004602052604081206002810154909261069b90610dd6565b6106a591906115ba565b9050600081116106f75760405162461bcd60e51b815260206004820152601c60248201527f596f752068617665206e6f207265776172647320746f20636c61696d0000000060448201526064016104cc565b426001830155600060028301556107386001600160a01b037f0000000000000000000000000000000000000000000000000000000000000000163383610ea0565b5050565b610744610f0c565b61074c610f66565b565b6001600160a01b03811660009081526004602052604081206060919061077384610fb8565b8154604080516020808402820181019092528281529184918301828280156107ba57602002820191906000526020600020905b8154815260200190600101908083116107a6575b5050505050915091509150915091565b600681815481106107da57600080fd5b6000918252602090912001546001600160a01b0316905081565b6107fc610f0c565b61074c6000611070565b61080e610f0c565b61074c6110c0565b61081e6110fd565b336000908152600460205260409020805461087b5760405162461bcd60e51b815260206004820152601960248201527f596f752068617665206e6f20746f6b656e73207374616b65640000000000000060448201526064016104cc565b61088433610d93565b8160005b81811015610adf5733600560008787858181106108a7576108a761156e565b60209081029290920135835250810191909152604001600020546001600160a01b0316146108d457600080fd5b6000600860008787858181106108ec576108ec61156e565b90506020020135815260200190815260200160002054905060006001856000018054905061091a9190611555565b905080821461099e578460000181815481106109385761093861156e565b90600052602060002001548560000183815481106109585761095861156e565b906000526020600020018190555081600860008760000185815481106109805761098061156e565b90600052602060002001548152602001908152602001600020819055505b84548590806109af576109af6115cd565b60019003818190600052602060002001600090559055600560008888868181106109db576109db61156e565b6020908102929092013583525081019190915260400160002080546001600160a01b03191690557f00000000000000000000000000000000000000000000000000000000000000006001600160a01b03166323b872dd30338a8a88818110610a4557610a4561156e565b6040517fffffffff0000000000000000000000000000000000000000000000000000000060e088901b1681526001600160a01b03958616600482015294909316602485015250602090910201356044820152606401600060405180830381600087803b158015610ab457600080fd5b505af1158015610ac8573d6000803e3d6000fd5b50505050505080610ad8906115a1565b9050610888565b508154600003610bf55733600090815260076020526040812054600654909190610b0b90600190611555565b9050808214610bbf5760068181548110610b2757610b2761156e565b600091825260209091200154600680546001600160a01b039092169184908110610b5357610b5361156e565b9060005260206000200160006101000a8154816001600160a01b0302191690836001600160a01b03160217905550816007600060068581548110610b9957610b9961156e565b60009182526020808320909101546001600160a01b031683528201929092526040019020555b6006805480610bd057610bd06115cd565b600082815260209020810160001990810180546001600160a01b031916905501905550505b505061073860018055565b610c08610f0c565b60006006805480602002602001604051908101604052809291908181526020018280548015610c6057602002820191906000526020600020905b81546001600160a01b03168152600190910190602001808311610c42575b505083519394506000925050505b81811015610ca857610c98838281518110610c8b57610c8b61156e565b6020026020010151610d93565b610ca1816115a1565b9050610c6e565b505050600355565b610cb8610f0c565b6001600160a01b038116610d345760405162461bcd60e51b815260206004820152602660248201527f4f776e61626c653a206e6577206f776e657220697320746865207a65726f206160448201527f646472657373000000000000000000000000000000000000000000000000000060648201526084016104cc565b610d3d81611070565b50565b60025460ff161561074c5760405162461bcd60e51b815260206004820152601060248201527f5061757361626c653a207061757365640000000000000000000000000000000060448201526064016104cc565b6001600160a01b0381166000908152600460205260409020610db482610dd6565b816002016000828254610dc791906115ba565b90915550504260019091015550565b6001600160a01b03811660009081526004602090815260408083208151815460809481028201850190935260608101838152859491938492849190840182828015610e4057602002820191906000526020600020905b815481526020019060010190808311610e2c575b50505050508152602001600182015481526020016002820154815250509050610e10600354826000015151836020015142610e7b9190611555565b610e8591906115e3565b610e8f91906115e3565b610e9991906115fa565b9392505050565b604080516001600160a01b038416602482015260448082018490528251808303909101815260649091019091526020810180517bffffffffffffffffffffffffffffffffffffffffffffffffffffffff1663a9059cbb60e01b179052610f07908490611156565b505050565b6000546001600160a01b0316331461074c5760405162461bcd60e51b815260206004820181905260248201527f4f776e61626c653a2063616c6c6572206973206e6f7420746865206f776e657260448201526064016104cc565b610f6e61123e565b6002805460ff191690557f5db9ee0a495bf2e6ff9c91a7834c1ba4fdd244a5e8aa4e537bd38aeae4b073aa335b6040516001600160a01b03909116815260200160405180910390a1565b6001600160a01b0381166000908152600460209081526040808320815181546080948102820185019093526060810183815285949193849284919084018282801561102257602002820191906000526020600020905b81548152602001906001019080831161100e575b50505050508152602001600182015481526020016002820154815250509050806000015151600003611058576040015192915050565b61106183610dd6565b8160400151610e9991906115ba565b600080546001600160a01b038381166001600160a01b0319831681178455604051919092169283917f8be0079c531659141344cd1fd0a4f28419497f9722a3daafe3b4186f6b6457e09190a35050565b6110c8610d40565b6002805460ff191660011790557f62e78cea01bee320cd4e420270b5ea74000d11b0c9f74754ebdbfc544b05a258610f9b3390565b60026001540361114f5760405162461bcd60e51b815260206004820152601f60248201527f5265656e7472616e637947756172643a207265656e7472616e742063616c6c0060448201526064016104cc565b6002600155565b60006111ab826040518060400160405280602081526020017f5361666545524332303a206c6f772d6c6576656c2063616c6c206661696c6564815250856001600160a01b03166112909092919063ffffffff16565b90508051600014806111cc5750808060200190518101906111cc919061161c565b610f075760405162461bcd60e51b815260206004820152602a60248201527f5361666545524332303a204552433230206f7065726174696f6e20646964206e60448201527f6f7420737563636565640000000000000000000000000000000000000000000060648201526084016104cc565b60025460ff1661074c5760405162461bcd60e51b815260206004820152601460248201527f5061757361626c653a206e6f742070617573656400000000000000000000000060448201526064016104cc565b606061129f84846000856112a7565b949350505050565b60608247101561131f5760405162461bcd60e51b815260206004820152602660248201527f416464726573733a20696e73756666696369656e742062616c616e636520666f60448201527f722063616c6c000000000000000000000000000000000000000000000000000060648201526084016104cc565b600080866001600160a01b0316858760405161133b9190611662565b60006040518083038185875af1925050503d8060008114611378576040519150601f19603f3d011682016040523d82523d6000602084013e61137d565b606091505b509150915061138e87838387611399565b979650505050505050565b60608315611408578251600003611401576001600160a01b0385163b6114015760405162461bcd60e51b815260206004820152601d60248201527f416464726573733a2063616c6c20746f206e6f6e2d636f6e747261637400000060448201526064016104cc565b508161129f565b61129f838381511561141d5781518083602001fd5b8060405162461bcd60e51b81526004016104cc919061167e565b6000806020838503121561144a57600080fd5b823567ffffffffffffffff8082111561146257600080fd5b818501915085601f83011261147657600080fd5b81358181111561148557600080fd5b8660208260051b850101111561149a57600080fd5b60209290920196919550909350505050565b6001600160a01b0381168114610d3d57600080fd5b6000602082840312156114d357600080fd5b8135610e99816114ac565b604080825283519082018190526000906020906060840190828701845b82811015611517578151845292840192908401906001016114fb565b50505092019290925292915050565b60006020828403121561153857600080fd5b5035919050565b634e487b7160e01b600052601160045260246000fd5b818103818111156115685761156861153f565b92915050565b634e487b7160e01b600052603260045260246000fd5b60006020828403121561159657600080fd5b8151610e99816114ac565b6000600182016115b3576115b361153f565b5060010190565b808201808211156115685761156861153f565b634e487b7160e01b600052603160045260246000fd5b80820281158282048414176115685761156861153f565b60008261161757634e487b7160e01b600052601260045260246000fd5b500490565b60006020828403121561162e57600080fd5b81518015158114610e9957600080fd5b60005b83811015611659578181015183820152602001611641565b50506000910152565b6000825161167481846020870161163e565b9190910192915050565b602081526000825180602084015261169d81604085016020870161163e565b601f01601f1916919091016040019291505056fea2646970667358221220fa885dfc25bb7ea4ef8465d218ec40b38899dd69142a615b7af86b5f8a4208ec64736f6c63430008110033",
      "opcodes": "PUSH1 0xC0 PUSH1 0x40 MSTORE PUSH8 0xDE0B6B3A7640000 PUSH1 0x3 SSTORE CALLVALUE DUP1 ISZERO PUSH3 0x1D JUMPI PUSH1 0x0 DUP1 REVERT JUMPDEST POP PUSH1 0x40 MLOAD PUSH3 0x1842 CODESIZE SUB DUP1 PUSH3 0x1842 DUP4 CODECOPY DUP2 ADD PUSH1 0x40 DUP2 SWAP1 MSTORE PUSH3 0x40 SWAP2 PUSH3 0xDA JUMP JUMPDEST PUSH3 0x4B CALLER PUSH3 0x71 JUMP JUMPDEST PUSH1 0x1 DUP1 SSTORE PUSH1 0x2 DUP1 SLOAD PUSH1 0xFF NOT AND SWAP1 SSTORE PUSH1 0x1 PUSH1 0x1 PUSH1 0xA0 SHL SUB SWAP2 DUP3 AND PUSH1 0xA0 MSTORE AND PUSH1 0x80 MSTORE PUSH3 0x119 JUMP JUMPDEST PUSH1 0x0 DUP1 SLOAD PUSH1 0x1 PUSH1 0x1 PUSH1 0xA0 SHL SUB DUP4 DUP2 AND PUSH1 0x1 PUSH1 0x1 PUSH1 0xA0 SHL SUB NOT DUP4 AND DUP2 OR DUP5 SSTORE PUSH1 0x40 MLOAD SWAP2 SWAP1 SWAP3 AND SWAP3 DUP4 SWAP2 PUSH32 0x8BE0079C531659141344CD1FD0A4F28419497F9722A3DAAFE3B4186F6B6457E0 SWAP2 SWAP1 LOG3 POP POP JUMP JUMPDEST PUSH1 0x1 PUSH1 0x1 PUSH1 0xA0 SHL SUB DUP2 AND DUP2 EQ PUSH3 0xD7 JUMPI PUSH1 0x0 DUP1 REVERT JUMPDEST POP JUMP JUMPDEST PUSH1 0x0 DUP1 PUSH1 0x40 DUP4 DUP6 SUB SLT ISZERO PUSH3 0xEE JUMPI PUSH1 0x0 DUP1 REVERT JUMPDEST DUP3 MLOAD PUSH3 0xFB DUP2 PUSH3 0xC1 JUMP JUMPDEST PUSH1 0x20 DUP5 ADD MLOAD SWAP1 SWAP3 POP PUSH3 0x10E DUP2 PUSH3 0xC1 JUMP JUMPDEST DUP1 SWAP2 POP POP SWAP3 POP SWAP3 SWAP1 POP JUMP JUMPDEST PUSH1 0x80 MLOAD PUSH1 0xA0 MLOAD PUSH2 0x16E7 PUSH3 0x15B PUSH1 0x0 CODECOPY PUSH1 0x0 DUP2 DUP2 PUSH2 0x1FE ADD MSTORE DUP2 DUP2 PUSH2 0x3CB ADD MSTORE DUP2 DUP2 PUSH2 0x4D7 ADD MSTORE PUSH2 0xA04 ADD MSTORE PUSH1 0x0 DUP2 DUP2 PUSH2 0x2F4 ADD MSTORE PUSH2 0x711 ADD MSTORE PUSH2 0x16E7 PUSH1 0x0 RETURN INVALID PUSH1 0x80 PUSH1 0x40 MSTORE CALLVALUE DUP1 ISZERO PUSH2 0x10 JUMPI PUSH1 0x0 DUP1 REVERT JUMPDEST POP PUSH1 0x4 CALLDATASIZE LT PUSH2 0x136 JUMPI PUSH1 0x0 CALLDATALOAD PUSH1 0xE0 SHR DUP1 PUSH4 0x8456CB59 GT PUSH2 0xB2 JUMPI DUP1 PUSH4 0x983D95CE GT PUSH2 0x81 JUMPI DUP1 PUSH4 0xC1030DA4 GT PUSH2 0x66 JUMPI DUP1 PUSH4 0xC1030DA4 EQ PUSH2 0x2CF JUMPI DUP1 PUSH4 0xD1AF0C7D EQ PUSH2 0x2EF JUMPI DUP1 PUSH4 0xF2FDE38B EQ PUSH2 0x316 JUMPI PUSH1 0x0 DUP1 REVERT JUMPDEST DUP1 PUSH4 0x983D95CE EQ PUSH2 0x2A9 JUMPI DUP1 PUSH4 0xB5A5E509 EQ PUSH2 0x2BC JUMPI PUSH1 0x0 DUP1 REVERT JUMPDEST DUP1 PUSH4 0x8456CB59 EQ PUSH2 0x228 JUMPI DUP1 PUSH4 0x8DA5CB5B EQ PUSH2 0x230 JUMPI DUP1 PUSH4 0x9168AE72 EQ PUSH2 0x241 JUMPI DUP1 PUSH4 0x94067045 EQ PUSH2 0x280 JUMPI PUSH1 0x0 DUP1 REVERT JUMPDEST DUP1 PUSH4 0x50DF1E02 GT PUSH2 0x109 JUMPI DUP1 PUSH4 0x5C975ABB GT PUSH2 0xEE JUMPI DUP1 PUSH4 0x5C975ABB EQ PUSH2 0x1E3 JUMPI DUP1 PUSH4 0x6588103B EQ PUSH2 0x1F9 JUMPI DUP1 PUSH4 0x715018A6 EQ PUSH2 0x220 JUMPI PUSH1 0x0 DUP1 REVERT JUMPDEST DUP1 PUSH4 0x50DF1E02 EQ PUSH2 0x18A JUMPI DUP1 PUSH4 0x5357E916 EQ PUSH2 0x1B8 JUMPI PUSH1 0x0 DUP1 REVERT JUMPDEST DUP1 PUSH4 0xFBF0A93 EQ PUSH2 0x13B JUMPI DUP1 PUSH4 0x372500AB EQ PUSH2 0x150 JUMPI DUP1 PUSH4 0x3F4BA83A EQ PUSH2 0x158 JUMPI DUP1 PUSH4 0x4EAD4327 EQ PUSH2 0x160 JUMPI JUMPDEST PUSH1 0x0 DUP1 REVERT JUMPDEST PUSH2 0x14E PUSH2 0x149 CALLDATASIZE PUSH1 0x4 PUSH2 0x1437 JUMP JUMPDEST PUSH2 0x329 JUMP JUMPDEST STOP JUMPDEST PUSH2 0x14E PUSH2 0x67C JUMP JUMPDEST PUSH2 0x14E PUSH2 0x73C JUMP JUMPDEST PUSH2 0x173 PUSH2 0x16E CALLDATASIZE PUSH1 0x4 PUSH2 0x14C1 JUMP JUMPDEST PUSH2 0x74E JUMP JUMPDEST PUSH1 0x40 MLOAD PUSH2 0x181 SWAP3 SWAP2 SWAP1 PUSH2 0x14DE JUMP JUMPDEST PUSH1 0x40 MLOAD DUP1 SWAP2 SUB SWAP1 RETURN JUMPDEST PUSH2 0x1AA PUSH2 0x198 CALLDATASIZE PUSH1 0x4 PUSH2 0x1526 JUMP JUMPDEST PUSH1 0x8 PUSH1 0x20 MSTORE PUSH1 0x0 SWAP1 DUP2 MSTORE PUSH1 0x40 SWAP1 KECCAK256 SLOAD DUP2 JUMP JUMPDEST PUSH1 0x40 MLOAD SWAP1 DUP2 MSTORE PUSH1 0x20 ADD PUSH2 0x181 JUMP JUMPDEST PUSH2 0x1CB PUSH2 0x1C6 CALLDATASIZE PUSH1 0x4 PUSH2 0x1526 JUMP JUMPDEST PUSH2 0x7CA JUMP JUMPDEST PUSH1 0x40 MLOAD PUSH1 0x1 PUSH1 0x1 PUSH1 0xA0 SHL SUB SWAP1 SWAP2 AND DUP2 MSTORE PUSH1 0x20 ADD PUSH2 0x181 JUMP JUMPDEST PUSH1 0x2 SLOAD PUSH1 0xFF AND PUSH1 0x40 MLOAD SWAP1 ISZERO ISZERO DUP2 MSTORE PUSH1 0x20 ADD PUSH2 0x181 JUMP JUMPDEST PUSH2 0x1CB PUSH32 0x0 DUP2 JUMP JUMPDEST PUSH2 0x14E PUSH2 0x7F4 JUMP JUMPDEST PUSH2 0x14E PUSH2 0x806 JUMP JUMPDEST PUSH1 0x0 SLOAD PUSH1 0x1 PUSH1 0x1 PUSH1 0xA0 SHL SUB AND PUSH2 0x1CB JUMP JUMPDEST PUSH2 0x26B PUSH2 0x24F CALLDATASIZE PUSH1 0x4 PUSH2 0x14C1 JUMP JUMPDEST PUSH1 0x4 PUSH1 0x20 MSTORE PUSH1 0x0 SWAP1 DUP2 MSTORE PUSH1 0x40 SWAP1 KECCAK256 PUSH1 0x1 DUP2 ADD SLOAD PUSH1 0x2 SWAP1 SWAP2 ADD SLOAD DUP3 JUMP JUMPDEST PUSH1 0x40 DUP1 MLOAD SWAP3 DUP4 MSTORE PUSH1 0x20 DUP4 ADD SWAP2 SWAP1 SWAP2 MSTORE ADD PUSH2 0x181 JUMP JUMPDEST PUSH2 0x1CB PUSH2 0x28E CALLDATASIZE PUSH1 0x4 PUSH2 0x1526 JUMP JUMPDEST PUSH1 0x5 PUSH1 0x20 MSTORE PUSH1 0x0 SWAP1 DUP2 MSTORE PUSH1 0x40 SWAP1 KECCAK256 SLOAD PUSH1 0x1 PUSH1 0x1 PUSH1 0xA0 SHL SUB AND DUP2 JUMP JUMPDEST PUSH2 0x14E PUSH2 0x2B7 CALLDATASIZE PUSH1 0x4 PUSH2 0x1437 JUMP JUMPDEST PUSH2 0x816 JUMP JUMPDEST PUSH2 0x14E PUSH2 0x2CA CALLDATASIZE PUSH1 0x4 PUSH2 0x1526 JUMP JUMPDEST PUSH2 0xC00 JUMP JUMPDEST PUSH2 0x1AA PUSH2 0x2DD CALLDATASIZE PUSH1 0x4 PUSH2 0x14C1 JUMP JUMPDEST PUSH1 0x7 PUSH1 0x20 MSTORE PUSH1 0x0 SWAP1 DUP2 MSTORE PUSH1 0x40 SWAP1 KECCAK256 SLOAD DUP2 JUMP JUMPDEST PUSH2 0x1CB PUSH32 0x0 DUP2 JUMP JUMPDEST PUSH2 0x14E PUSH2 0x324 CALLDATASIZE PUSH1 0x4 PUSH2 0x14C1 JUMP JUMPDEST PUSH2 0xCB0 JUMP JUMPDEST PUSH2 0x331 PUSH2 0xD40 JUMP JUMPDEST CALLER PUSH1 0x0 SWAP1 DUP2 MSTORE PUSH1 0x4 PUSH1 0x20 MSTORE PUSH1 0x40 SWAP1 KECCAK256 DUP1 SLOAD ISZERO PUSH2 0x355 JUMPI PUSH2 0x350 CALLER PUSH2 0xD93 JUMP JUMPDEST PUSH2 0x3BC JUMP JUMPDEST PUSH1 0x6 DUP1 SLOAD PUSH1 0x1 DUP2 DUP2 ADD DUP4 SSTORE PUSH1 0x0 DUP4 SWAP1 MSTORE PUSH32 0xF652222313E28459528D920B65115C16C04F3EFC82AAEDC97BE59F3F377C0D3F SWAP1 SWAP2 ADD DUP1 SLOAD PUSH1 0x1 PUSH1 0x1 PUSH1 0xA0 SHL SUB NOT AND CALLER OR SWAP1 SSTORE SWAP1 SLOAD PUSH2 0x3A5 SWAP2 SWAP1 PUSH2 0x1555 JUMP JUMPDEST CALLER PUSH1 0x0 SWAP1 DUP2 MSTORE PUSH1 0x7 PUSH1 0x20 MSTORE PUSH1 0x40 SWAP1 KECCAK256 SSTORE TIMESTAMP PUSH1 0x1 DUP3 ADD SSTORE JUMPDEST DUP2 PUSH1 0x0 JUMPDEST DUP2 DUP2 LT ISZERO PUSH2 0x675 JUMPI CALLER PUSH32 0x0 PUSH1 0x1 PUSH1 0x1 PUSH1 0xA0 SHL SUB AND PUSH4 0x6352211E DUP8 DUP8 DUP6 DUP2 DUP2 LT PUSH2 0x40A JUMPI PUSH2 0x40A PUSH2 0x156E JUMP JUMPDEST SWAP1 POP PUSH1 0x20 MUL ADD CALLDATALOAD PUSH1 0x40 MLOAD DUP3 PUSH4 0xFFFFFFFF AND PUSH1 0xE0 SHL DUP2 MSTORE PUSH1 0x4 ADD PUSH2 0x42F SWAP2 DUP2 MSTORE PUSH1 0x20 ADD SWAP1 JUMP JUMPDEST PUSH1 0x20 PUSH1 0x40 MLOAD DUP1 DUP4 SUB DUP2 DUP7 GAS STATICCALL ISZERO DUP1 ISZERO PUSH2 0x44C JUMPI RETURNDATASIZE PUSH1 0x0 DUP1 RETURNDATACOPY RETURNDATASIZE PUSH1 0x0 REVERT JUMPDEST POP POP POP POP PUSH1 0x40 MLOAD RETURNDATASIZE PUSH1 0x1F NOT PUSH1 0x1F DUP3 ADD AND DUP3 ADD DUP1 PUSH1 0x40 MSTORE POP DUP2 ADD SWAP1 PUSH2 0x470 SWAP2 SWAP1 PUSH2 0x1584 JUMP JUMPDEST PUSH1 0x1 PUSH1 0x1 PUSH1 0xA0 SHL SUB AND EQ PUSH2 0x4D5 JUMPI PUSH1 0x40 MLOAD PUSH3 0x461BCD PUSH1 0xE5 SHL DUP2 MSTORE PUSH1 0x20 PUSH1 0x4 DUP3 ADD MSTORE PUSH1 0x21 PUSH1 0x24 DUP3 ADD MSTORE PUSH32 0x43616E2774207374616B6520746F6B656E7320796F7520646F6E2774206F776E PUSH1 0x44 DUP3 ADD MSTORE PUSH1 0x21 PUSH1 0xF8 SHL PUSH1 0x64 DUP3 ADD MSTORE PUSH1 0x84 ADD JUMPDEST PUSH1 0x40 MLOAD DUP1 SWAP2 SUB SWAP1 REVERT JUMPDEST PUSH32 0x0 PUSH1 0x1 PUSH1 0x1 PUSH1 0xA0 SHL SUB AND PUSH4 0x23B872DD CALLER ADDRESS DUP9 DUP9 DUP7 DUP2 DUP2 LT PUSH2 0x518 JUMPI PUSH2 0x518 PUSH2 0x156E JUMP JUMPDEST PUSH1 0x40 MLOAD PUSH32 0xFFFFFFFF00000000000000000000000000000000000000000000000000000000 PUSH1 0xE0 DUP9 SWAP1 SHL AND DUP2 MSTORE PUSH1 0x1 PUSH1 0x1 PUSH1 0xA0 SHL SUB SWAP6 DUP7 AND PUSH1 0x4 DUP3 ADD MSTORE SWAP5 SWAP1 SWAP4 AND PUSH1 0x24 DUP6 ADD MSTORE POP PUSH1 0x20 SWAP1 SWAP2 MUL ADD CALLDATALOAD PUSH1 0x44 DUP3 ADD MSTORE PUSH1 0x64 ADD PUSH1 0x0 PUSH1 0x40 MLOAD DUP1 DUP4 SUB DUP2 PUSH1 0x0 DUP8 DUP1 EXTCODESIZE ISZERO DUP1 ISZERO PUSH2 0x587 JUMPI PUSH1 0x0 DUP1 REVERT JUMPDEST POP GAS CALL ISZERO DUP1 ISZERO PUSH2 0x59B JUMPI RETURNDATASIZE PUSH1 0x0 DUP1 RETURNDATACOPY RETURNDATASIZE PUSH1 0x0 REVERT JUMPDEST POP POP POP POP DUP3 PUSH1 0x0 ADD DUP6 DUP6 DUP4 DUP2 DUP2 LT PUSH2 0x5B5 JUMPI PUSH2 0x5B5 PUSH2 0x156E JUMP JUMPDEST DUP4 SLOAD PUSH1 0x1 DUP1 DUP3 ADD DUP7 SSTORE PUSH1 0x0 SWAP6 DUP7 MSTORE PUSH1 0x20 SWAP6 DUP7 SWAP1 KECCAK256 SWAP3 SWAP1 SWAP6 MUL SWAP4 SWAP1 SWAP4 ADD CALLDATALOAD SWAP3 ADD SWAP2 SWAP1 SWAP2 SSTORE POP DUP4 SLOAD PUSH2 0x5E5 SWAP2 SWAP1 PUSH2 0x1555 JUMP JUMPDEST PUSH1 0x8 PUSH1 0x0 DUP8 DUP8 DUP6 DUP2 DUP2 LT PUSH2 0x5FB JUMPI PUSH2 0x5FB PUSH2 0x156E JUMP JUMPDEST SWAP1 POP PUSH1 0x20 MUL ADD CALLDATALOAD DUP2 MSTORE PUSH1 0x20 ADD SWAP1 DUP2 MSTORE PUSH1 0x20 ADD PUSH1 0x0 KECCAK256 DUP2 SWAP1 SSTORE POP CALLER PUSH1 0x5 PUSH1 0x0 DUP8 DUP8 DUP6 DUP2 DUP2 LT PUSH2 0x62B JUMPI PUSH2 0x62B PUSH2 0x156E JUMP JUMPDEST SWAP1 POP PUSH1 0x20 MUL ADD CALLDATALOAD DUP2 MSTORE PUSH1 0x20 ADD SWAP1 DUP2 MSTORE PUSH1 0x20 ADD PUSH1 0x0 KECCAK256 PUSH1 0x0 PUSH2 0x100 EXP DUP2 SLOAD DUP2 PUSH1 0x1 PUSH1 0x1 PUSH1 0xA0 SHL SUB MUL NOT AND SWAP1 DUP4 PUSH1 0x1 PUSH1 0x1 PUSH1 0xA0 SHL SUB AND MUL OR SWAP1 SSTORE POP DUP1 PUSH2 0x66E SWAP1 PUSH2 0x15A1 JUMP JUMPDEST SWAP1 POP PUSH2 0x3C0 JUMP JUMPDEST POP POP POP POP POP JUMP JUMPDEST CALLER PUSH1 0x0 DUP2 DUP2 MSTORE PUSH1 0x4 PUSH1 0x20 MSTORE PUSH1 0x40 DUP2 KECCAK256 PUSH1 0x2 DUP2 ADD SLOAD SWAP1 SWAP3 PUSH2 0x69B SWAP1 PUSH2 0xDD6 JUMP JUMPDEST PUSH2 0x6A5 SWAP2 SWAP1 PUSH2 0x15BA JUMP JUMPDEST SWAP1 POP PUSH1 0x0 DUP2 GT PUSH2 0x6F7 JUMPI PUSH1 0x40 MLOAD PUSH3 0x461BCD PUSH1 0xE5 SHL DUP2 MSTORE PUSH1 0x20 PUSH1 0x4 DUP3 ADD MSTORE PUSH1 0x1C PUSH1 0x24 DUP3 ADD MSTORE PUSH32 0x596F752068617665206E6F207265776172647320746F20636C61696D00000000 PUSH1 0x44 DUP3 ADD MSTORE PUSH1 0x64 ADD PUSH2 0x4CC JUMP JUMPDEST TIMESTAMP PUSH1 0x1 DUP4 ADD SSTORE PUSH1 0x0 PUSH1 0x2 DUP4 ADD SSTORE PUSH2 0x738 PUSH1 0x1 PUSH1 0x1 PUSH1 0xA0 SHL SUB PUSH32 0x0 AND CALLER DUP4 PUSH2 0xEA0 JUMP JUMPDEST POP POP JUMP JUMPDEST PUSH2 0x744 PUSH2 0xF0C JUMP JUMPDEST PUSH2 0x74C PUSH2 0xF66 JUMP JUMPDEST JUMP JUMPDEST PUSH1 0x1 PUSH1 0x1 PUSH1 0xA0 SHL SUB DUP2 AND PUSH1 0x0 SWAP1 DUP2 MSTORE PUSH1 0x4 PUSH1 0x20 MSTORE PUSH1 0x40 DUP2 KECCAK256 PUSH1 0x60 SWAP2 SWAP1 PUSH2 0x773 DUP5 PUSH2 0xFB8 JUMP JUMPDEST DUP2 SLOAD PUSH1 0x40 DUP1 MLOAD PUSH1 0x20 DUP1 DUP5 MUL DUP3 ADD DUP2 ADD SWAP1 SWAP3 MSTORE DUP3 DUP2 MSTORE SWAP2 DUP5 SWAP2 DUP4 ADD DUP3 DUP3 DUP1 ISZERO PUSH2 0x7BA JUMPI PUSH1 0x20 MUL DUP3 ADD SWAP2 SWAP1 PUSH1 0x0 MSTORE PUSH1 0x20 PUSH1 0x0 KECCAK256 SWAP1 JUMPDEST DUP2 SLOAD DUP2 MSTORE PUSH1 0x20 ADD SWAP1 PUSH1 0x1 ADD SWAP1 DUP1 DUP4 GT PUSH2 0x7A6 JUMPI JUMPDEST POP POP POP POP POP SWAP2 POP SWAP2 POP SWAP2 POP SWAP2 POP SWAP2 JUMP JUMPDEST PUSH1 0x6 DUP2 DUP2 SLOAD DUP2 LT PUSH2 0x7DA JUMPI PUSH1 0x0 DUP1 REVERT JUMPDEST PUSH1 0x0 SWAP2 DUP3 MSTORE PUSH1 0x20 SWAP1 SWAP2 KECCAK256 ADD SLOAD PUSH1 0x1 PUSH1 0x1 PUSH1 0xA0 SHL SUB AND SWAP1 POP DUP2 JUMP JUMPDEST PUSH2 0x7FC PUSH2 0xF0C JUMP JUMPDEST PUSH2 0x74C PUSH1 0x0 PUSH2 0x1070 JUMP JUMPDEST PUSH2 0x80E PUSH2 0xF0C JUMP JUMPDEST PUSH2 0x74C PUSH2 0x10C0 JUMP JUMPDEST PUSH2 0x81E PUSH2 0x10FD JUMP JUMPDEST CALLER PUSH1 0x0 SWAP1 DUP2 MSTORE PUSH1 0x4 PUSH1 0x20 MSTORE PUSH1 0x40 SWAP1 KECCAK256 DUP1 SLOAD PUSH2 0x87B JUMPI PUSH1 0x40 MLOAD PUSH3 0x461BCD PUSH1 0xE5 SHL DUP2 MSTORE PUSH1 0x20 PUSH1 0x4 DUP3 ADD MSTORE PUSH1 0x19 PUSH1 0x24 DUP3 ADD MSTORE PUSH32 0x596F752068617665206E6F20746F6B656E73207374616B656400000000000000 PUSH1 0x44 DUP3 ADD MSTORE PUSH1 0x64 ADD PUSH2 0x4CC JUMP JUMPDEST PUSH2 0x884 CALLER PUSH2 0xD93 JUMP JUMPDEST DUP2 PUSH1 0x0 JUMPDEST DUP2 DUP2 LT ISZERO PUSH2 0xADF JUMPI CALLER PUSH1 0x5 PUSH1 0x0 DUP8 DUP8 DUP6 DUP2 DUP2 LT PUSH2 0x8A7 JUMPI PUSH2 0x8A7 PUSH2 0x156E JUMP JUMPDEST PUSH1 0x20 SWAP1 DUP2 MUL SWAP3 SWAP1 SWAP3 ADD CALLDATALOAD DUP4 MSTORE POP DUP2 ADD SWAP2 SWAP1 SWAP2 MSTORE PUSH1 0x40 ADD PUSH1 0x0 KECCAK256 SLOAD PUSH1 0x1 PUSH1 0x1 PUSH1 0xA0 SHL SUB AND EQ PUSH2 0x8D4 JUMPI PUSH1 0x0 DUP1 REVERT JUMPDEST PUSH1 0x0 PUSH1 0x8 PUSH1 0x0 DUP8 DUP8 DUP6 DUP2 DUP2 LT PUSH2 0x8EC JUMPI PUSH2 0x8EC PUSH2 0x156E JUMP JUMPDEST SWAP1 POP PUSH1 0x20 MUL ADD CALLDATALOAD DUP2 MSTORE PUSH1 0x20 ADD SWAP1 DUP2 MSTORE PUSH1 0x20 ADD PUSH1 0x0 KECCAK256 SLOAD SWAP1 POP PUSH1 0x0 PUSH1 0x1 DUP6 PUSH1 0x0 ADD DUP1 SLOAD SWAP1 POP PUSH2 0x91A SWAP2 SWAP1 PUSH2 0x1555 JUMP JUMPDEST SWAP1 POP DUP1 DUP3 EQ PUSH2 0x99E JUMPI DUP5 PUSH1 0x0 ADD DUP2 DUP2 SLOAD DUP2 LT PUSH2 0x938 JUMPI PUSH2 0x938 PUSH2 0x156E JUMP JUMPDEST SWAP1 PUSH1 0x0 MSTORE PUSH1 0x20 PUSH1 0x0 KECCAK256 ADD SLOAD DUP6 PUSH1 0x0 ADD DUP4 DUP2 SLOAD DUP2 LT PUSH2 0x958 JUMPI PUSH2 0x958 PUSH2 0x156E JUMP JUMPDEST SWAP1 PUSH1 0x0 MSTORE PUSH1 0x20 PUSH1 0x0 KECCAK256 ADD DUP2 SWAP1 SSTORE POP DUP2 PUSH1 0x8 PUSH1 0x0 DUP8 PUSH1 0x0 ADD DUP6 DUP2 SLOAD DUP2 LT PUSH2 0x980 JUMPI PUSH2 0x980 PUSH2 0x156E JUMP JUMPDEST SWAP1 PUSH1 0x0 MSTORE PUSH1 0x20 PUSH1 0x0 KECCAK256 ADD SLOAD DUP2 MSTORE PUSH1 0x20 ADD SWAP1 DUP2 MSTORE PUSH1 0x20 ADD PUSH1 0x0 KECCAK256 DUP2 SWAP1 SSTORE POP JUMPDEST DUP5 SLOAD DUP6 SWAP1 DUP1 PUSH2 0x9AF JUMPI PUSH2 0x9AF PUSH2 0x15CD JUMP JUMPDEST PUSH1 0x1 SWAP1 SUB DUP2 DUP2 SWAP1 PUSH1 0x0 MSTORE PUSH1 0x20 PUSH1 0x0 KECCAK256 ADD PUSH1 0x0 SWAP1 SSTORE SWAP1 SSTORE PUSH1 0x5 PUSH1 0x0 DUP9 DUP9 DUP7 DUP2 DUP2 LT PUSH2 0x9DB JUMPI PUSH2 0x9DB PUSH2 0x156E JUMP JUMPDEST PUSH1 0x20 SWAP1 DUP2 MUL SWAP3 SWAP1 SWAP3 ADD CALLDATALOAD DUP4 MSTORE POP DUP2 ADD SWAP2 SWAP1 SWAP2 MSTORE PUSH1 0x40 ADD PUSH1 0x0 KECCAK256 DUP1 SLOAD PUSH1 0x1 PUSH1 0x1 PUSH1 0xA0 SHL SUB NOT AND SWAP1 SSTORE PUSH32 0x0 PUSH1 0x1 PUSH1 0x1 PUSH1 0xA0 SHL SUB AND PUSH4 0x23B872DD ADDRESS CALLER DUP11 DUP11 DUP9 DUP2 DUP2 LT PUSH2 0xA45 JUMPI PUSH2 0xA45 PUSH2 0x156E JUMP JUMPDEST PUSH1 0x40 MLOAD PUSH32 0xFFFFFFFF00000000000000000000000000000000000000000000000000000000 PUSH1 0xE0 DUP9 SWAP1 SHL AND DUP2 MSTORE PUSH1 0x1 PUSH1 0x1 PUSH1 0xA0 SHL SUB SWAP6 DUP7 AND PUSH1 0x4 DUP3 ADD MSTORE SWAP5 SWAP1 SWAP4 AND PUSH1 0x24 DUP6 ADD MSTORE POP PUSH1 0x20 SWAP1 SWAP2 MUL ADD CALLDATALOAD PUSH1 0x44 DUP3 ADD MSTORE PUSH1 0x64 ADD PUSH1 0x0 PUSH1 0x40 MLOAD DUP1 DUP4 SUB DUP2 PUSH1 0x0 DUP8 DUP1 EXTCODESIZE ISZERO DUP1 ISZERO PUSH2 0xAB4 JUMPI PUSH1 0x0 DUP1 REVERT JUMPDEST POP GAS CALL ISZERO DUP1 ISZERO PUSH2 0xAC8 JUMPI RETURNDATASIZE PUSH1 0x0 DUP1 RETURNDATACOPY RETURNDATASIZE PUSH1 0x0 REVERT JUMPDEST POP POP POP POP POP POP DUP1 PUSH2 0xAD8 SWAP1 PUSH2 0x15A1 JUMP JUMPDEST SWAP1 POP PUSH2 0x888 JUMP JUMPDEST POP DUP2 SLOAD PUSH1 0x0 SUB PUSH2 0xBF5 JUMPI CALLER PUSH1 0x0 SWAP1 DUP2 MSTORE PUSH1 0x7 PUSH1 0x20 MSTORE PUSH1 0x40 DUP2 KECCAK256 SLOAD PUSH1 0x6 SLOAD SWAP1 SWAP2 SWAP1 PUSH2 0xB0B SWAP1 PUSH1 0x1 SWAP1 PUSH2 0x1555 JUMP JUMPDEST SWAP1 POP DUP1 DUP3 EQ PUSH2 0xBBF JUMPI PUSH1 0x6 DUP2 DUP2 SLOAD DUP2 LT PUSH2 0xB27 JUMPI PUSH2 0xB27 PUSH2 0x156E JUMP JUMPDEST PUSH1 0x0 SWAP2 DUP3 MSTORE PUSH1 0x20 SWAP1 SWAP2 KECCAK256 ADD SLOAD PUSH1 0x6 DUP1 SLOAD PUSH1 0x1 PUSH1 0x1 PUSH1 0xA0 SHL SUB SWAP1 SWAP3 AND SWAP2 DUP5 SWAP1 DUP2 LT PUSH2 0xB53 JUMPI PUSH2 0xB53 PUSH2 0x156E JUMP JUMPDEST SWAP1 PUSH1 0x0 MSTORE PUSH1 0x20 PUSH1 0x0 KECCAK256 ADD PUSH1 0x0 PUSH2 0x100 EXP DUP2 SLOAD DUP2 PUSH1 0x1 PUSH1 0x1 PUSH1 0xA0 SHL SUB MUL NOT AND SWAP1 DUP4 PUSH1 0x1 PUSH1 0x1 PUSH1 0xA0 SHL SUB AND MUL OR SWAP1 SSTORE POP DUP2 PUSH1 0x7 PUSH1 0x0 PUSH1 0x6 DUP6 DUP2 SLOAD DUP2 LT PUSH2 0xB99 JUMPI PUSH2 0xB99 PUSH2 0x156E JUMP JUMPDEST PUSH1 0x0 SWAP2 DUP3 MSTORE PUSH1 0x20 DUP1 DUP4 KECCAK256 SWAP1 SWAP2 ADD SLOAD PUSH1 0x1 PUSH1 0x1 PUSH1 0xA0 SHL SUB AND DUP4 MSTORE DUP3 ADD SWAP3 SWAP1 SWAP3 MSTORE PUSH1 0x40 ADD SWAP1 KECCAK256 SSTORE JUMPDEST PUSH1 0x6 DUP1 SLOAD DUP1 PUSH2 0xBD0 JUMPI PUSH2 0xBD0 PUSH2 0x15CD JUMP JUMPDEST PUSH1 0x0 DUP3 DUP2 MSTORE PUSH1 0x20 SWAP1 KECCAK256 DUP2 ADD PUSH1 0x0 NOT SWAP1 DUP2 ADD DUP1 SLOAD PUSH1 0x1 PUSH1 0x1 PUSH1 0xA0 SHL SUB NOT AND SWAP1 SSTORE ADD SWAP1 SSTORE POP POP JUMPDEST POP POP PUSH2 0x738 PUSH1 0x1 DUP1 SSTORE JUMP JUMPDEST PUSH2 0xC08 PUSH2 0xF0C JUMP JUMPDEST PUSH1 0x0 PUSH1 0x6 DUP1 SLOAD DUP1 PUSH1 0x20 MUL PUSH1 0x20 ADD PUSH1 0x40 MLOAD SWAP1 DUP2 ADD PUSH1 0x40 MSTORE DUP1 SWAP3 SWAP2 SWAP1 DUP2 DUP2 MSTORE PUSH1 0x20 ADD DUP3 DUP1 SLOAD DUP1 ISZERO PUSH2 0xC60 JUMPI PUSH1 0x20 MUL DUP3 ADD SWAP2 SWAP1 PUSH1 0x0 MSTORE PUSH1 0x20 PUSH1 0x0 KECCAK256 SWAP1 JUMPDEST DUP2 SLOAD PUSH1 0x1 PUSH1 0x1 PUSH1 0xA0 SHL SUB AND DUP2 MSTORE PUSH1 0x1 SWAP1 SWAP2 ADD SWAP1 PUSH1 0x20 ADD DUP1 DUP4 GT PUSH2 0xC42 JUMPI JUMPDEST POP POP DUP4 MLOAD SWAP4 SWAP5 POP PUSH1 0x0 SWAP3 POP POP POP JUMPDEST DUP2 DUP2 LT ISZERO PUSH2 0xCA8 JUMPI PUSH2 0xC98 DUP4 DUP3 DUP2 MLOAD DUP2 LT PUSH2 0xC8B JUMPI PUSH2 0xC8B PUSH2 0x156E JUMP JUMPDEST PUSH1 0x20 MUL PUSH1 0x20 ADD ADD MLOAD PUSH2 0xD93 JUMP JUMPDEST PUSH2 0xCA1 DUP2 PUSH2 0x15A1 JUMP JUMPDEST SWAP1 POP PUSH2 0xC6E JUMP JUMPDEST POP POP POP PUSH1 0x3 SSTORE JUMP JUMPDEST PUSH2 0xCB8 PUSH2 0xF0C JUMP JUMPDEST PUSH1 0x1 PUSH1 0x1 PUSH1 0xA0 SHL SUB DUP2 AND PUSH2 0xD34 JUMPI PUSH1 0x40 MLOAD PUSH3 0x461BCD PUSH1 0xE5 SHL DUP2 MSTORE PUSH1 0x20 PUSH1 0x4 DUP3 ADD MSTORE PUSH1 0x26 PUSH1 0x24 DUP3 ADD MSTORE PUSH32 0x4F776E61626C653A206E6577206F776E657220697320746865207A65726F2061 PUSH1 0x44 DUP3 ADD MSTORE PUSH32 0x6464726573730000000000000000000000000000000000000000000000000000 PUSH1 0x64 DUP3 ADD MSTORE PUSH1 0x84 ADD PUSH2 0x4CC JUMP JUMPDEST PUSH2 0xD3D DUP2 PUSH2 0x1070 JUMP JUMPDEST POP JUMP JUMPDEST PUSH1 0x2 SLOAD PUSH1 0xFF AND ISZERO PUSH2 0x74C JUMPI PUSH1 0x40 MLOAD PUSH3 0x461BCD PUSH1 0xE5 SHL DUP2 MSTORE PUSH1 0x20 PUSH1 0x4 DUP3 ADD MSTORE PUSH1 0x10 PUSH1 0x24 DUP3 ADD MSTORE PUSH32 0x5061757361626C653A2070617573656400000000000000000000000000000000 PUSH1 0x44 DUP3 ADD MSTORE PUSH1 0x64 ADD PUSH2 0x4CC JUMP JUMPDEST PUSH1 0x1 PUSH1 0x1 PUSH1 0xA0 SHL SUB DUP2 AND PUSH1 0x0 SWAP1 DUP2 MSTORE PUSH1 0x4 PUSH1 0x20 MSTORE PUSH1 0x40 SWAP1 KECCAK256 PUSH2 0xDB4 DUP3 PUSH2 0xDD6 JUMP JUMPDEST DUP2 PUSH1 0x2 ADD PUSH1 0x0 DUP3 DUP3 SLOAD PUSH2 0xDC7 SWAP2 SWAP1 PUSH2 0x15BA JUMP JUMPDEST SWAP1 SWAP2 SSTORE POP POP TIMESTAMP PUSH1 0x1 SWAP1 SWAP2 ADD SSTORE POP JUMP JUMPDEST PUSH1 0x1 PUSH1 0x1 PUSH1 0xA0 SHL SUB DUP2 AND PUSH1 0x0 SWAP1 DUP2 MSTORE PUSH1 0x4 PUSH1 0x20 SWAP1 DUP2 MSTORE PUSH1 0x40 DUP1 DUP4 KECCAK256 DUP2 MLOAD DUP2 SLOAD PUSH1 0x80 SWAP5 DUP2 MUL DUP3 ADD DUP6 ADD SWAP1 SWAP4 MSTORE PUSH1 0x60 DUP2 ADD DUP4 DUP2 MSTORE DUP6 SWAP5 SWAP2 SWAP4 DUP5 SWAP3 DUP5 SWAP2 SWAP1 DUP5 ADD DUP3 DUP3 DUP1 ISZERO PUSH2 0xE40 JUMPI PUSH1 0x20 MUL DUP3 ADD SWAP2 SWAP1 PUSH1 0x0 MSTORE PUSH1 0x20 PUSH1 0x0 KECCAK256 SWAP1 JUMPDEST DUP2 SLOAD DUP2 MSTORE PUSH1 0x20 ADD SWAP1 PUSH1 0x1 ADD SWAP1 DUP1 DUP4 GT PUSH2 0xE2C JUMPI JUMPDEST POP POP POP POP POP DUP2 MSTORE PUSH1 0x20 ADD PUSH1 0x1 DUP3 ADD SLOAD DUP2 MSTORE PUSH1 0x20 ADD PUSH1 0x2 DUP3 ADD SLOAD DUP2 MSTORE POP POP SWAP1 POP PUSH2 0xE10 PUSH1 0x3 SLOAD DUP3 PUSH1 0x0 ADD MLOAD MLOAD DUP4 PUSH1 0x20 ADD MLOAD TIMESTAMP PUSH2 0xE7B SWAP2 SWAP1 PUSH2 0x1555 JUMP JUMPDEST PUSH2 0xE85 SWAP2 SWAP1 PUSH2 0x15E3 JUMP JUMPDEST PUSH2 0xE8F SWAP2 SWAP1 PUSH2 0x15E3 JUMP JUMPDEST PUSH2 0xE99 SWAP2 SWAP1 PUSH2 0x15FA JUMP JUMPDEST SWAP4 SWAP3 POP POP POP JUMP JUMPDEST PUSH1 0x40 DUP1 MLOAD PUSH1 0x1 PUSH1 0x1 PUSH1 0xA0 SHL SUB DUP5 AND PUSH1 0x24 DUP3 ADD MSTORE PUSH1 0x44 DUP1 DUP3 ADD DUP5 SWAP1 MSTORE DUP3 MLOAD DUP1 DUP4 SUB SWAP1 SWAP2 ADD DUP2 MSTORE PUSH1 0x64 SWAP1 SWAP2 ADD SWAP1 SWAP2 MSTORE PUSH1 0x20 DUP2 ADD DUP1 MLOAD PUSH28 0xFFFFFFFFFFFFFFFFFFFFFFFFFFFFFFFFFFFFFFFFFFFFFFFFFFFFFFFF AND PUSH4 0xA9059CBB PUSH1 0xE0 SHL OR SWAP1 MSTORE PUSH2 0xF07 SWAP1 DUP5 SWAP1 PUSH2 0x1156 JUMP JUMPDEST POP POP POP JUMP JUMPDEST PUSH1 0x0 SLOAD PUSH1 0x1 PUSH1 0x1 PUSH1 0xA0 SHL SUB AND CALLER EQ PUSH2 0x74C JUMPI PUSH1 0x40 MLOAD PUSH3 0x461BCD PUSH1 0xE5 SHL DUP2 MSTORE PUSH1 0x20 PUSH1 0x4 DUP3 ADD DUP2 SWAP1 MSTORE PUSH1 0x24 DUP3 ADD MSTORE PUSH32 0x4F776E61626C653A2063616C6C6572206973206E6F7420746865206F776E6572 PUSH1 0x44 DUP3 ADD MSTORE PUSH1 0x64 ADD PUSH2 0x4CC JUMP JUMPDEST PUSH2 0xF6E PUSH2 0x123E JUMP JUMPDEST PUSH1 0x2 DUP1 SLOAD PUSH1 0xFF NOT AND SWAP1 SSTORE PUSH32 0x5DB9EE0A495BF2E6FF9C91A7834C1BA4FDD244A5E8AA4E537BD38AEAE4B073AA CALLER JUMPDEST PUSH1 0x40 MLOAD PUSH1 0x1 PUSH1 0x1 PUSH1 0xA0 SHL SUB SWAP1 SWAP2 AND DUP2 MSTORE PUSH1 0x20 ADD PUSH1 0x40 MLOAD DUP1 SWAP2 SUB SWAP1 LOG1 JUMP JUMPDEST PUSH1 0x1 PUSH1 0x1 PUSH1 0xA0 SHL SUB DUP2 AND PUSH1 0x0 SWAP1 DUP2 MSTORE PUSH1 0x4 PUSH1 0x20 SWAP1 DUP2 MSTORE PUSH1 0x40 DUP1 DUP4 KECCAK256 DUP2 MLOAD DUP2 SLOAD PUSH1 0x80 SWAP5 DUP2 MUL DUP3 ADD DUP6 ADD SWAP1 SWAP4 MSTORE PUSH1 0x60 DUP2 ADD DUP4 DUP2 MSTORE DUP6 SWAP5 SWAP2 SWAP4 DUP5 SWAP3 DUP5 SWAP2 SWAP1 DUP5 ADD DUP3 DUP3 DUP1 ISZERO PUSH2 0x1022 JUMPI PUSH1 0x20 MUL DUP3 ADD SWAP2 SWAP1 PUSH1 0x0 MSTORE PUSH1 0x20 PUSH1 0x0 KECCAK256 SWAP1 JUMPDEST DUP2 SLOAD DUP2 MSTORE PUSH1 0x20 ADD SWAP1 PUSH1 0x1 ADD SWAP1 DUP1 DUP4 GT PUSH2 0x100E JUMPI JUMPDEST POP POP POP POP POP DUP2 MSTORE PUSH1 0x20 ADD PUSH1 0x1 DUP3 ADD SLOAD DUP2 MSTORE PUSH1 0x20 ADD PUSH1 0x2 DUP3 ADD SLOAD DUP2 MSTORE POP POP SWAP1 POP DUP1 PUSH1 0x0 ADD MLOAD MLOAD PUSH1 0x0 SUB PUSH2 0x1058 JUMPI PUSH1 0x40 ADD MLOAD SWAP3 SWAP2 POP POP JUMP JUMPDEST PUSH2 0x1061 DUP4 PUSH2 0xDD6 JUMP JUMPDEST DUP2 PUSH1 0x40 ADD MLOAD PUSH2 0xE99 SWAP2 SWAP1 PUSH2 0x15BA JUMP JUMPDEST PUSH1 0x0 DUP1 SLOAD PUSH1 0x1 PUSH1 0x1 PUSH1 0xA0 SHL SUB DUP4 DUP2 AND PUSH1 0x1 PUSH1 0x1 PUSH1 0xA0 SHL SUB NOT DUP4 AND DUP2 OR DUP5 SSTORE PUSH1 0x40 MLOAD SWAP2 SWAP1 SWAP3 AND SWAP3 DUP4 SWAP2 PUSH32 0x8BE0079C531659141344CD1FD0A4F28419497F9722A3DAAFE3B4186F6B6457E0 SWAP2 SWAP1 LOG3 POP POP JUMP JUMPDEST PUSH2 0x10C8 PUSH2 0xD40 JUMP JUMPDEST PUSH1 0x2 DUP1 SLOAD PUSH1 0xFF NOT AND PUSH1 0x1 OR SWAP1 SSTORE PUSH32 0x62E78CEA01BEE320CD4E420270B5EA74000D11B0C9F74754EBDBFC544B05A258 PUSH2 0xF9B CALLER SWAP1 JUMP JUMPDEST PUSH1 0x2 PUSH1 0x1 SLOAD SUB PUSH2 0x114F JUMPI PUSH1 0x40 MLOAD PUSH3 0x461BCD PUSH1 0xE5 SHL DUP2 MSTORE PUSH1 0x20 PUSH1 0x4 DUP3 ADD MSTORE PUSH1 0x1F PUSH1 0x24 DUP3 ADD MSTORE PUSH32 0x5265656E7472616E637947756172643A207265656E7472616E742063616C6C00 PUSH1 0x44 DUP3 ADD MSTORE PUSH1 0x64 ADD PUSH2 0x4CC JUMP JUMPDEST PUSH1 0x2 PUSH1 0x1 SSTORE JUMP JUMPDEST PUSH1 0x0 PUSH2 0x11AB DUP3 PUSH1 0x40 MLOAD DUP1 PUSH1 0x40 ADD PUSH1 0x40 MSTORE DUP1 PUSH1 0x20 DUP2 MSTORE PUSH1 0x20 ADD PUSH32 0x5361666545524332303A206C6F772D6C6576656C2063616C6C206661696C6564 DUP2 MSTORE POP DUP6 PUSH1 0x1 PUSH1 0x1 PUSH1 0xA0 SHL SUB AND PUSH2 0x1290 SWAP1 SWAP3 SWAP2 SWAP1 PUSH4 0xFFFFFFFF AND JUMP JUMPDEST SWAP1 POP DUP1 MLOAD PUSH1 0x0 EQ DUP1 PUSH2 0x11CC JUMPI POP DUP1 DUP1 PUSH1 0x20 ADD SWAP1 MLOAD DUP2 ADD SWAP1 PUSH2 0x11CC SWAP2 SWAP1 PUSH2 0x161C JUMP JUMPDEST PUSH2 0xF07 JUMPI PUSH1 0x40 MLOAD PUSH3 0x461BCD PUSH1 0xE5 SHL DUP2 MSTORE PUSH1 0x20 PUSH1 0x4 DUP3 ADD MSTORE PUSH1 0x2A PUSH1 0x24 DUP3 ADD MSTORE PUSH32 0x5361666545524332303A204552433230206F7065726174696F6E20646964206E PUSH1 0x44 DUP3 ADD MSTORE PUSH32 0x6F74207375636365656400000000000000000000000000000000000000000000 PUSH1 0x64 DUP3 ADD MSTORE PUSH1 0x84 ADD PUSH2 0x4CC JUMP JUMPDEST PUSH1 0x2 SLOAD PUSH1 0xFF AND PUSH2 0x74C JUMPI PUSH1 0x40 MLOAD PUSH3 0x461BCD PUSH1 0xE5 SHL DUP2 MSTORE PUSH1 0x20 PUSH1 0x4 DUP3 ADD MSTORE PUSH1 0x14 PUSH1 0x24 DUP3 ADD MSTORE PUSH32 0x5061757361626C653A206E6F7420706175736564000000000000000000000000 PUSH1 0x44 DUP3 ADD MSTORE PUSH1 0x64 ADD PUSH2 0x4CC JUMP JUMPDEST PUSH1 0x60 PUSH2 0x129F DUP5 DUP5 PUSH1 0x0 DUP6 PUSH2 0x12A7 JUMP JUMPDEST SWAP5 SWAP4 POP POP POP POP JUMP JUMPDEST PUSH1 0x60 DUP3 SELFBALANCE LT ISZERO PUSH2 0x131F JUMPI PUSH1 0x40 MLOAD PUSH3 0x461BCD PUSH1 0xE5 SHL DUP2 MSTORE PUSH1 0x20 PUSH1 0x4 DUP3 ADD MSTORE PUSH1 0x26 PUSH1 0x24 DUP3 ADD MSTORE PUSH32 0x416464726573733A20696E73756666696369656E742062616C616E636520666F PUSH1 0x44 DUP3 ADD MSTORE PUSH32 0x722063616C6C0000000000000000000000000000000000000000000000000000 PUSH1 0x64 DUP3 ADD MSTORE PUSH1 0x84 ADD PUSH2 0x4CC JUMP JUMPDEST PUSH1 0x0 DUP1 DUP7 PUSH1 0x1 PUSH1 0x1 PUSH1 0xA0 SHL SUB AND DUP6 DUP8 PUSH1 0x40 MLOAD PUSH2 0x133B SWAP2 SWAP1 PUSH2 0x1662 JUMP JUMPDEST PUSH1 0x0 PUSH1 0x40 MLOAD DUP1 DUP4 SUB DUP2 DUP6 DUP8 GAS CALL SWAP3 POP POP POP RETURNDATASIZE DUP1 PUSH1 0x0 DUP2 EQ PUSH2 0x1378 JUMPI PUSH1 0x40 MLOAD SWAP2 POP PUSH1 0x1F NOT PUSH1 0x3F RETURNDATASIZE ADD AND DUP3 ADD PUSH1 0x40 MSTORE RETURNDATASIZE DUP3 MSTORE RETURNDATASIZE PUSH1 0x0 PUSH1 0x20 DUP5 ADD RETURNDATACOPY PUSH2 0x137D JUMP JUMPDEST PUSH1 0x60 SWAP2 POP JUMPDEST POP SWAP2 POP SWAP2 POP PUSH2 0x138E DUP8 DUP4 DUP4 DUP8 PUSH2 0x1399 JUMP JUMPDEST SWAP8 SWAP7 POP POP POP POP POP POP POP JUMP JUMPDEST PUSH1 0x60 DUP4 ISZERO PUSH2 0x1408 JUMPI DUP3 MLOAD PUSH1 0x0 SUB PUSH2 0x1401 JUMPI PUSH1 0x1 PUSH1 0x1 PUSH1 0xA0 SHL SUB DUP6 AND EXTCODESIZE PUSH2 0x1401 JUMPI PUSH1 0x40 MLOAD PUSH3 0x461BCD PUSH1 0xE5 SHL DUP2 MSTORE PUSH1 0x20 PUSH1 0x4 DUP3 ADD MSTORE PUSH1 0x1D PUSH1 0x24 DUP3 ADD MSTORE PUSH32 0x416464726573733A2063616C6C20746F206E6F6E2D636F6E7472616374000000 PUSH1 0x44 DUP3 ADD MSTORE PUSH1 0x64 ADD PUSH2 0x4CC JUMP JUMPDEST POP DUP2 PUSH2 0x129F JUMP JUMPDEST PUSH2 0x129F DUP4 DUP4 DUP2 MLOAD ISZERO PUSH2 0x141D JUMPI DUP2 MLOAD DUP1 DUP4 PUSH1 0x20 ADD REVERT JUMPDEST DUP1 PUSH1 0x40 MLOAD PUSH3 0x461BCD PUSH1 0xE5 SHL DUP2 MSTORE PUSH1 0x4 ADD PUSH2 0x4CC SWAP2 SWAP1 PUSH2 0x167E JUMP JUMPDEST PUSH1 0x0 DUP1 PUSH1 0x20 DUP4 DUP6 SUB SLT ISZERO PUSH2 0x144A JUMPI PUSH1 0x0 DUP1 REVERT JUMPDEST DUP3 CALLDATALOAD PUSH8 0xFFFFFFFFFFFFFFFF DUP1 DUP3 GT ISZERO PUSH2 0x1462 JUMPI PUSH1 0x0 DUP1 REVERT JUMPDEST DUP2 DUP6 ADD SWAP2 POP DUP6 PUSH1 0x1F DUP4 ADD SLT PUSH2 0x1476 JUMPI PUSH1 0x0 DUP1 REVERT JUMPDEST DUP2 CALLDATALOAD DUP2 DUP2 GT ISZERO PUSH2 0x1485 JUMPI PUSH1 0x0 DUP1 REVERT JUMPDEST DUP7 PUSH1 0x20 DUP3 PUSH1 0x5 SHL DUP6 ADD ADD GT ISZERO PUSH2 0x149A JUMPI PUSH1 0x0 DUP1 REVERT JUMPDEST PUSH1 0x20 SWAP3 SWAP1 SWAP3 ADD SWAP7 SWAP2 SWAP6 POP SWAP1 SWAP4 POP POP POP POP JUMP JUMPDEST PUSH1 0x1 PUSH1 0x1 PUSH1 0xA0 SHL SUB DUP2 AND DUP2 EQ PUSH2 0xD3D JUMPI PUSH1 0x0 DUP1 REVERT JUMPDEST PUSH1 0x0 PUSH1 0x20 DUP3 DUP5 SUB SLT ISZERO PUSH2 0x14D3 JUMPI PUSH1 0x0 DUP1 REVERT JUMPDEST DUP2 CALLDATALOAD PUSH2 0xE99 DUP2 PUSH2 0x14AC JUMP JUMPDEST PUSH1 0x40 DUP1 DUP3 MSTORE DUP4 MLOAD SWAP1 DUP3 ADD DUP2 SWAP1 MSTORE PUSH1 0x0 SWAP1 PUSH1 0x20 SWAP1 PUSH1 0x60 DUP5 ADD SWAP1 DUP3 DUP8 ADD DUP5 JUMPDEST DUP3 DUP2 LT ISZERO PUSH2 0x1517 JUMPI DUP2 MLOAD DUP5 MSTORE SWAP3 DUP5 ADD SWAP3 SWAP1 DUP5 ADD SWAP1 PUSH1 0x1 ADD PUSH2 0x14FB JUMP JUMPDEST POP POP POP SWAP3 ADD SWAP3 SWAP1 SWAP3 MSTORE SWAP3 SWAP2 POP POP JUMP JUMPDEST PUSH1 0x0 PUSH1 0x20 DUP3 DUP5 SUB SLT ISZERO PUSH2 0x1538 JUMPI PUSH1 0x0 DUP1 REVERT JUMPDEST POP CALLDATALOAD SWAP2 SWAP1 POP JUMP JUMPDEST PUSH4 0x4E487B71 PUSH1 0xE0 SHL PUSH1 0x0 MSTORE PUSH1 0x11 PUSH1 0x4 MSTORE PUSH1 0x24 PUSH1 0x0 REVERT JUMPDEST DUP2 DUP2 SUB DUP2 DUP2 GT ISZERO PUSH2 0x1568 JUMPI PUSH2 0x1568 PUSH2 0x153F JUMP JUMPDEST SWAP3 SWAP2 POP POP JUMP JUMPDEST PUSH4 0x4E487B71 PUSH1 0xE0 SHL PUSH1 0x0 MSTORE PUSH1 0x32 PUSH1 0x4 MSTORE PUSH1 0x24 PUSH1 0x0 REVERT JUMPDEST PUSH1 0x0 PUSH1 0x20 DUP3 DUP5 SUB SLT ISZERO PUSH2 0x1596 JUMPI PUSH1 0x0 DUP1 REVERT JUMPDEST DUP2 MLOAD PUSH2 0xE99 DUP2 PUSH2 0x14AC JUMP JUMPDEST PUSH1 0x0 PUSH1 0x1 DUP3 ADD PUSH2 0x15B3 JUMPI PUSH2 0x15B3 PUSH2 0x153F JUMP JUMPDEST POP PUSH1 0x1 ADD SWAP1 JUMP JUMPDEST DUP1 DUP3 ADD DUP1 DUP3 GT ISZERO PUSH2 0x1568 JUMPI PUSH2 0x1568 PUSH2 0x153F JUMP JUMPDEST PUSH4 0x4E487B71 PUSH1 0xE0 SHL PUSH1 0x0 MSTORE PUSH1 0x31 PUSH1 0x4 MSTORE PUSH1 0x24 PUSH1 0x0 REVERT JUMPDEST DUP1 DUP3 MUL DUP2 ISZERO DUP3 DUP3 DIV DUP5 EQ OR PUSH2 0x1568 JUMPI PUSH2 0x1568 PUSH2 0x153F JUMP JUMPDEST PUSH1 0x0 DUP3 PUSH2 0x1617 JUMPI PUSH4 0x4E487B71 PUSH1 0xE0 SHL PUSH1 0x0 MSTORE PUSH1 0x12 PUSH1 0x4 MSTORE PUSH1 0x24 PUSH1 0x0 REVERT JUMPDEST POP DIV SWAP1 JUMP JUMPDEST PUSH1 0x0 PUSH1 0x20 DUP3 DUP5 SUB SLT ISZERO PUSH2 0x162E JUMPI PUSH1 0x0 DUP1 REVERT JUMPDEST DUP2 MLOAD DUP1 ISZERO ISZERO DUP2 EQ PUSH2 0xE99 JUMPI PUSH1 0x0 DUP1 REVERT JUMPDEST PUSH1 0x0 JUMPDEST DUP4 DUP2 LT ISZERO PUSH2 0x1659 JUMPI DUP2 DUP2 ADD MLOAD DUP4 DUP3 ADD MSTORE PUSH1 0x20 ADD PUSH2 0x1641 JUMP JUMPDEST POP POP PUSH1 0x0 SWAP2 ADD MSTORE JUMP JUMPDEST PUSH1 0x0 DUP3 MLOAD PUSH2 0x1674 DUP2 DUP5 PUSH1 0x20 DUP8 ADD PUSH2 0x163E JUMP JUMPDEST SWAP2 SWAP1 SWAP2 ADD SWAP3 SWAP2 POP POP JUMP JUMPDEST PUSH1 0x20 DUP2 MSTORE PUSH1 0x0 DUP3 MLOAD DUP1 PUSH1 0x20 DUP5 ADD MSTORE PUSH2 0x169D DUP2 PUSH1 0x40 DUP6 ADD PUSH1 0x20 DUP8 ADD PUSH2 0x163E JUMP JUMPDEST PUSH1 0x1F ADD PUSH1 0x1F NOT AND SWAP2 SWAP1 SWAP2 ADD PUSH1 0x40 ADD SWAP3 SWAP2 POP POP JUMP INVALID LOG2 PUSH5 0x6970667358 0x22 SLT KECCAK256 STATICCALL DUP9 0x5D 0xFC 0x25 0xBB PUSH31 0xA4EF8465D218EC40B38899DD69142A615B7AF86B5F8A4208EC64736F6C6343 STOP ADDMOD GT STOP CALLER "
    },
    "gasEstimates": {
      "creation": {
        "codeDepositCost": "1172600",
        "executionCost": "infinite",
        "totalCost": "infinite"
      },
      "external": {
        "claimRewards()": "infinite",
        "nftCollection()": "infinite",
        "owner()": "2376",
        "pause()": "infinite",
        "paused()": "2337",
        "renounceOwnership()": "infinite",
        "rewardsToken()": "infinite",
        "setRewardsPerHour(uint256)": "infinite",
        "stake(uint256[])": "infinite",
        "stakerAddress(uint256)": "2566",
        "stakerToArrayIndex(address)": "2557",
        "stakers(address)": "4725",
        "stakersArray(uint256)": "4682",
        "tokenIdToArrayIndex(uint256)": "2484",
        "transferOwnership(address)": "infinite",
        "unpause()": "infinite",
        "userStakeInfo(address)": "infinite",
        "withdraw(uint256[])": "infinite"
      },
      "internal": {
        "availableRewards(address)": "infinite",
        "calculateRewards(address)": "infinite",
        "updateRewards(address)": "infinite"
      }
    },
    "methodIdentifiers": {
      "claimRewards()": "372500ab",
      "nftCollection()": "6588103b",
      "owner()": "8da5cb5b",
      "pause()": "8456cb59",
      "paused()": "5c975abb",
      "renounceOwnership()": "715018a6",
      "rewardsToken()": "d1af0c7d",
      "setRewardsPerHour(uint256)": "b5a5e509",
      "stake(uint256[])": "0fbf0a93",
      "stakerAddress(uint256)": "94067045",
      "stakerToArrayIndex(address)": "c1030da4",
      "stakers(address)": "9168ae72",
      "stakersArray(uint256)": "5357e916",
      "tokenIdToArrayIndex(uint256)": "50df1e02",
      "transferOwnership(address)": "f2fde38b",
      "unpause()": "3f4ba83a",
      "userStakeInfo(address)": "4ead4327",
      "withdraw(uint256[])": "983d95ce"
    }
  },
  "storageLayout": {
    "storage": [
      {
        "astId": 634,
        "contract": "NftStaking.sol:ERC721Staking",
        "label": "_owner",
        "offset": 0,
        "slot": "0",
        "type": "t_address"
      },
      {
        "astId": 858,
        "contract": "NftStaking.sol:ERC721Staking",
        "label": "_status",
        "offset": 0,
        "slot": "1",
        "type": "t_uint256"
      },
      {
        "astId": 757,
        "contract": "NftStaking.sol:ERC721Staking",
        "label": "_paused",
        "offset": 0,
        "slot": "2",
        "type": "t_bool"
      },
      {
        "astId": 44,
        "contract": "NftStaking.sol:ERC721Staking",
        "label": "rewardsPerHour",
        "offset": 0,
        "slot": "3",
        "type": "t_uint256"
      },
      {
        "astId": 50,
        "contract": "NftStaking.sol:ERC721Staking",
        "label": "stakers",
        "offset": 0,
        "slot": "4",
        "type": "t_mapping(t_address,t_struct(Staker)40_storage)"
      },
      {
        "astId": 55,
        "contract": "NftStaking.sol:ERC721Staking",
        "label": "stakerAddress",
        "offset": 0,
        "slot": "5",
        "type": "t_mapping(t_uint256,t_address)"
      },
      {
        "astId": 59,
        "contract": "NftStaking.sol:ERC721Staking",
        "label": "stakersArray",
        "offset": 0,
        "slot": "6",
        "type": "t_array(t_address)dyn_storage"
      },
      {
        "astId": 64,
        "contract": "NftStaking.sol:ERC721Staking",
        "label": "stakerToArrayIndex",
        "offset": 0,
        "slot": "7",
        "type": "t_mapping(t_address,t_uint256)"
      },
      {
        "astId": 69,
        "contract": "NftStaking.sol:ERC721Staking",
        "label": "tokenIdToArrayIndex",
        "offset": 0,
        "slot": "8",
        "type": "t_mapping(t_uint256,t_uint256)"
      }
    ],
    "types": {
      "t_address": {
        "encoding": "inplace",
        "label": "address",
        "numberOfBytes": "20"
      },
      "t_array(t_address)dyn_storage": {
        "base": "t_address",
        "encoding": "dynamic_array",
        "label": "address[]",
        "numberOfBytes": "32"
      },
      "t_array(t_uint256)dyn_storage": {
        "base": "t_uint256",
        "encoding": "dynamic_array",
        "label": "uint256[]",
        "numberOfBytes": "32"
      },
      "t_bool": {
        "encoding": "inplace",
        "label": "bool",
        "numberOfBytes": "1"
      },
      "t_mapping(t_address,t_struct(Staker)40_storage)": {
        "encoding": "mapping",
        "key": "t_address",
        "label": "mapping(address => struct ERC721Staking.Staker)",
        "numberOfBytes": "32",
        "value": "t_struct(Staker)40_storage"
      },
      "t_mapping(t_address,t_uint256)": {
        "encoding": "mapping",
        "key": "t_address",
        "label": "mapping(address => uint256)",
        "numberOfBytes": "32",
        "value": "t_uint256"
      },
      "t_mapping(t_uint256,t_address)": {
        "encoding": "mapping",
        "key": "t_uint256",
        "label": "mapping(uint256 => address)",
        "numberOfBytes": "32",
        "value": "t_address"
      },
      "t_mapping(t_uint256,t_uint256)": {
        "encoding": "mapping",
        "key": "t_uint256",
        "label": "mapping(uint256 => uint256)",
        "numberOfBytes": "32",
        "value": "t_uint256"
      },
      "t_struct(Staker)40_storage": {
        "encoding": "inplace",
        "label": "struct ERC721Staking.Staker",
        "members": [
          {
            "astId": 33,
            "contract": "NftStaking.sol:ERC721Staking",
            "label": "stakedTokenIds",
            "offset": 0,
            "slot": "0",
            "type": "t_array(t_uint256)dyn_storage"
          },
          {
            "astId": 36,
            "contract": "NftStaking.sol:ERC721Staking",
            "label": "timeOfLastUpdate",
            "offset": 0,
            "slot": "1",
            "type": "t_uint256"
          },
          {
            "astId": 39,
            "contract": "NftStaking.sol:ERC721Staking",
            "label": "unclaimedRewards",
            "offset": 0,
            "slot": "2",
            "type": "t_uint256"
          }
        ],
        "numberOfBytes": "96"
      },
      "t_uint256": {
        "encoding": "inplace",
        "label": "uint256",
        "numberOfBytes": "32"
      }
    }
  },
  "userdoc": {
    "kind": "user",
    "methods": {
      "claimRewards()": {
        "notice": "Function used to claim the accrued ERC20 Reward Tokens."
      },
      "constructor": {
        "notice": "Constructor function that initializes the ERC20 and ERC721 interfaces."
      },
      "setRewardsPerHour(uint256)": {
        "notice": "Function used to set the amount of ERC20 Reward Tokens accrued per hour."
      },
      "stake(uint256[])": {
        "notice": "Function used to stake ERC721 Tokens."
      },
      "tokenIdToArrayIndex(uint256)": {
        "notice": "Mapping of Token Id to it's index in the staker's stakedTokenIds array."
      },
      "userStakeInfo(address)": {
        "notice": "Function used to get the info for a user: the Token Ids staked and the available rewards."
      },
      "withdraw(uint256[])": {
        "notice": "Function used to withdraw ERC721 Tokens."
      }
    },
    "notice": "This contract uses a simple principle to alow users to stake ERC721 Tokens and earn ERC20 Reward Tokens distributed by the owner of the contract. Each time a user stakes or withdraws a new Token Id, the contract will store the time of the transaction and the amount of ERC20 Reward Tokens that the user has earned up to that point (based on the amount of time that has passed since the last transaction, the amount of Tokens staked and the amount of ERC20 Reward Tokens distributed per hour so that the amount of ERC20 Reward Tokens earned by the user is always distributed accounting for how many ERC721 Tokens he has staked at that particular moment. The user can claim the ERC20 Reward Tokens at any time by calling the claimRewards function.",
    "version": 1
  }
}